:100000000C9462000C948A000C948A000C948A0070
:100010000C948A000C948A000C948A000C948A0038
:100020000C948A000C948A000C948A000C948A0028
:100030000C948A000C948A000C948A000C948A0018
:100040000C9428020C948A000C9498020C9472026E
:100050000C948A000C948A000C948A000C948A00F8
:100060000C948A000C948A000000000023002600F3
:10007000290000000008000201000003040700003E
:1000800000000000000000000000250028002B00F8
:1000900000000000240027002A00040404040404D3
:1000A0000404020202020202030303030303010227
:1000B00004081020408001020408102001020408F6
:1000C0001020A70311241FBECFEFD8E0DEBFCDBFA5
:1000D00011E0A0E0B1E0E8EBF7E002C005900D927E
:1000E000A837B107D9F722E0A8E7B1E001C01D9217
:1000F000A132B207E1F710E0C2E6D0E004C02197D8
:10010000FE010E94D403C136D107C9F70E94CA027A
:100110000C94DA030C940000CF93DF9390E0FC0181
:10012000E255FF4F249186569F4FFC01849188230E
:10013000C1F090E0880F991FFC01E057FF4FC59177
:10014000D491FC01EA57FF4FA591B4919FB7F89461
:100150008881E22FE0958E2388838C91E823EC93AD
:100160009FBFDF91CF91089590E0FC01EE58FF4FC3
:100170002491FC01E255FF4F3491FC01E656FF4FFC
:10018000E491EE23C1F1222339F02330E9F090F419
:10019000213001F1223011F1F0E0EE0FFF1FE8599C
:1001A000FF4FA591B491EC91E32381E090E029F514
:1001B00080E008952730A9F02830C9F0243061F795
:1001C000809180008F7D03C0809180008F77809325
:1001D0008000E2CF84B58F7784BDDECF84B58F7D7C
:1001E000FBCF8091B0008F778093B000D5CF809106
:1001F000B0008F7DF9CF80E090E00895AF92BF927C
:10020000CF92DF92EF92FF920F931F93CF93DF93E2
:100210006C017B018B01040F151FEB015E01AE1811
:10022000BF08C017D10759F06991D601ED91FC9133
:100230000190F081E02DC6010995892B79F7C50160
:10024000DF91CF911F910F91FF90EF90DF90CF90B2
:10025000BF90AF900895FC01538D448D252F30E061
:10026000842F90E0821B930B541710F0CF960895C3
:1002700001970895FC01918D828D981761F0A28DF0
:10028000AE0FBF2FB11D5D968C91928D9F5F9F73B6
:10029000928F90E008958FEF9FEF0895FC01918D6C
:1002A000828D981731F0828DE80FF11D858D90E0D9
:1002B00008958FEF9FEF0895FC01918D228D892F76
:1002C00090E0805C9F4F821B91098F73992708955E
:1002D00084E891E00E945C0121E0892B09F420E090
:1002E000822F089580E090E0892B29F00E94680118
:1002F00081110C9400000895FC01A48DA80FB92F62
:10030000B11DA35ABF4F2C91848D90E001968F733D
:100310009927848FA689B7892C93A089B1898C915C
:10032000837080648C93938D848D981306C00288AB
:10033000F389E02D80818F7D80830895EF92FF9275
:100340000F931F93CF93DF93EC0181E0888F9B8DF8
:100350008C8D98131AC0E889F989808185FF15C0B2
:100360009FB7F894EE89FF896083E889F9898081D5
:100370008370806480839FBF81E090E0DF91CF91A4
:100380001F910F91FF90EF900895F62E0B8D10E0C6
:100390000F5F1F4F0F731127E02E8C8D8E110CC035
:1003A0000FB607FCFACFE889F989808185FFF5CF80
:1003B000CE010E947C01F1CFEB8DEC0FFD2FF11DE2
:1003C000E35AFF4FF0829FB7F8940B8FEA89FB89BD
:1003D00080818062CFCFCF93DF93EC01888D88231B
:1003E000B9F0AA89BB89E889F9898C9185FD03C098
:1003F000808186FD0DC00FB607FCF7CF8C9185FF7D
:10040000F2CF808185FFEDCFCE010E947C01E9CF44
:10041000DF91CF910895CF93DF93FC0101900020ED
:10042000E9F73197AF01481B590BBC0184E891E013
:100430000E94FE00EC0142E050E062E171E084E8DD
:1004400091E00E94FE008C0F9D1FDF91CF910895D7
:100450001F920F920FB60F9211242F933F938F93F9
:100460009F93AF93BF938091800190918101A09160
:100470008201B091830130917F0123E0230F2D375A
:1004800058F50196A11DB11D20937F018093800135
:1004900090938101A0938201B093830180917B01AD
:1004A00090917C01A0917D01B0917E010196A11DEA
:1004B000B11D80937B0190937C01A0937D01B0934B
:1004C0007E01BF91AF919F918F913F912F910F909E
:1004D0000FBE0F901F90189526E8230F0296A11DBE
:1004E000B11DD2CF1F920F920FB60F9211242F93EE
:1004F0003F934F935F936F937F938F939F93AF93AC
:10050000BF93EF93FF9384E891E00E947C01FF91F9
:10051000EF91BF91AF919F918F917F916F915F917B
:100520004F913F912F910F900FBE0F901F901895F4
:100530001F920F920FB60F9211242F938F939F93B8
:10054000EF93FF93E0919401F09195018081E09108
:100550009A01F0919B0182FD1BC0908180919D01C9
:100560008F5F8F7320919E01821741F0E0919D0172
:10057000F0E0EC57FE4F958F80939D01FF91EF9136
:100580009F918F912F910F900FBE0F901F901895F4
:100590008081F4CF789484B5826084BD84B5816015
:1005A00084BD85B5826085BD85B5816085BD80913E
:1005B0006E00816080936E001092810080918100B6
:1005C00082608093810080918100816080938100AE
:1005D000809180008160809380008091B100846070
:1005E0008093B1008091B00081608093B0008091D1
:1005F0007A00846080937A0080917A008260809390
:100600007A0080917A00816080937A0080917A00EC
:10061000806880937A001092C10083E00E948C0071
:100620008AE00E948C008BE00E948C00E091940193
:10063000F091950182E08083E0919001F091910129
:100640001082E0919201F091930180E180831092F9
:100650009C01E0919801F091990186E08083E091FE
:100660009601F0919701808180618083E0919601ED
:10067000F0919701808188608083E0919601F091EC
:100680009701808180688083E0919601F0919701C5
:1006900080818F7D8083C1E000E010E083E00E94D4
:1006A000B4005C018AE00E94B4006C018BE00E94FF
:1006B000B4007C01AA94AB2881F483E00E94B400CA
:1006C0000197D9F380917A018C2780937A0188234E
:1006D000A9F185E191E00E940B02CA94CD2881F432
:1006E0008AE00E94B4000197D9F3809179018C27A8
:1006F00080937901882329F186E391E00E940B021F
:10070000EF2881F48BE00E94B400892BD9F380910B
:1007100078018C27809378018823B1F087E591E0F8
:100720000E940B020115110509F4B8CF0E9468015F
:10073000882309F4B3CF0E940000B0CF85E291E096
:10074000CACF86E491E0DACF87E691E0E9CFE4E82A
:10075000F1E01382128288EE93E0A0E0B0E084839F
:100760009583A683B78384E091E09183808385ECB1
:1007700090E09587848784EC90E09787868780EC6B
:1007800090E0918B808B81EC90E0938B828B82EC5C
:1007900090E0958B848B86EC90E0978B868B118E06
:1007A000128E138E148E0895EE0FFF1F0590F49194
:0807B000E02D0994F894FFCF3D
:1007B800000000009E01FE002B01EB015C013A01E4
:1007C8004E010D0A00426F746F6E2031202D2D2DC1
:1007D8003E204F4E00426F746F6E2031202D2D2D1C
:1007E8003E204F464600426F746F6E2032202D2DFA
:1007F8002D3E204F4E00426F746F6E2032202D2DFB
:100808002D3E204F464600426F746F6E2033202DD8
:100818002D2D3E204F4E00426F746F6E2033202DD9
:080828002D2D3E204F46460035
:00000001FF
