:100000000C941E010C9446010C9446010C9446017C
:100010000C9446010C9446010C9446010C94460144
:100020000C9446010C9446010C9446010C94460134
:100030000C9446010C9446010C9446010C94460124
:100040000C94AC0F0C9446010C941C100C94F60FFD
:100050000C9446010C9446010C9446010C94460104
:100060000C9446010C9446015030392053656C6560
:100070006363696F6E616461005030372053656C53
:10008000656363696F6E616461202D2D3E20536549
:100090006E736F72204D6F76696D69656E746F2037
:1000A000285049522900503620494E544552525545
:1000B00050544F522053656C656363696F6E616481
:1000C0006F00503520494E544552525550544F52AE
:1000D0002053656C656363696F6E61646F005034B3
:1000E00020434F4E4D555441444F522053656C654B
:1000F0006363696F6E61646F00503420494E5445EC
:1001000052525550544F522053656C656363696F6A
:100110006E61646F00503320434F4E4D555441443F
:100120004F522053656C656363696F6E61646F0045
:10013000503120434F4E4D555441444F522053654A
:100140006C656363696F6E61646F00503120494E66
:10015000544552525550544F522053656C65636359
:10016000696F6E61646F0050312050554C534144AB
:100170004F5245532053656C656363696F6E6164CC
:100180006F004F4646004F4E00202D2D3E205075EB
:100190006C7361646F00202D2D3E20536F6C746171
:1001A000646F004F4646004F4E00436F6E6D75748E
:1001B00061646F72202D2D3E20004153594E5741EE
:1001C0004954205445524D494E41444F0050303916
:1001D0002053656C656363696F6E61646100000044
:1001E0000000240027002A0000000000250028004D
:1001F0002B00000000002300260029000404040452
:1002000004040404020202020202030303030303C0
:10021000010204081020408001020408102001029D
:100220000408102000000008000201000003040779
:100230000000000000000000FC11F11411241FBE9A
:10024000CFEFD8E0DEBFCDBF26E0A8EAB2E001C024
:100250001D92AB36B207E1F712E0A0E0B1E0E0E5B5
:10026000F7E302C005900D92A83AB107D9F711E063
:10027000CDE1D1E004C02197FE010E94F916CC31F6
:10028000D107C9F70E949F130C949B1B0C9400008C
:10029000833081F028F4813099F08230A9F00895FC
:1002A0008730A9F08830C9F08430B1F480918000A3
:1002B0008F7D03C0809180008F77809380000895A8
:1002C00084B58F7784BD089584B58F7DFBCF8091F1
:1002D000B0008F778093B00008958091B0008F7D3B
:1002E000F9CF0F931F93CF93DF93FC012581222336
:1002F00009F455C0EC0186819781009731F0019790
:1003000009F437C090E080E023C0208130E0F9019B
:10031000EC5DFD4F8491F901E05FFD4F0491F9011F
:10032000E450FE4F1491112369F381110E9448019A
:10033000E12FF0E0EE0FFF1FEE50FE4FA591B491BC
:10034000EC910E2331E020E009F430E0832F922F6E
:1003500029813A812817390711F19A838983E8891D
:10036000F9893097E1F0CE01DF91CF911F910F9184
:10037000099480818E3008F08E508770806480935D
:100380007C0080917A00806480937A0080917A006A
:1003900086FDFCCF8091780090917900D9CFDF91D4
:1003A000CF911F910F9108951F93CF93DF93282F23
:1003B00030E0F901EC5DFD4F8491F901E05FFD4F04
:1003C000D491F901E450FE4FC491CC23A9F0162F2B
:1003D00081110E944801EC2FF0E0EE0FFF1FE85161
:1003E000FE4FA591B4918FB7F894EC91111108C00C
:1003F000D095DE23DC938FBFDF91CF911F910895BD
:10040000DE2BF8CFCF93DF9390E0FC01E05FFD4F50
:10041000249184509E4FFC0184918823D1F090E078
:10042000880F991FFC01E252FE4FA591B491FC0187
:10043000E851FE4FC591D49161110EC09FB7F89459
:100440008C91E22FE0958E238C932881E223E88320
:100450009FBFDF91CF9108958FB7F894EC91E22B75
:10046000EC938FBFF6CF3FB7F8948091CC02909178
:10047000CD02A091CE02B091CF0226B5A89B05C0B7
:100480002F3F19F00196A11DB11D3FBFBA2FA92F13
:10049000982F8827BC01CD01620F711D811D911D10
:1004A00042E0660F771F881F991F4A95D1F708957C
:1004B0008F929F92AF92BF92CF92DF92EF92FF9274
:1004C0004B015C010E9433026B017C010E943302EC
:1004D0006C197D098E099F09683E7340810591055D
:1004E000A8F321E0821A9108A108B10888EEC80E8D
:1004F00083E0D81EE11CF11C81149104A104B10415
:1005000029F7FF90EF90DF90CF90BF90AF909F9032
:100510008F9008950F931F93CF93DF938C01C62F75
:1005200080919203823074F09091C0009064909317
:10053000C00061E00E94D40161E070E080E090E0E2
:100540000E945802902FF8012FEF3FEF819128274A
:1005500088E0A9014170552736952795452B21F054
:1005600041E0242740EA3427815099F78E2F891BD8
:100570008C1760F3322723273227F801EC0FF11D87
:100580003083E1E0EC0FE00FF12FF11D2083CE5F0F
:100590008091D0029091D102D0E0DC01ED91FC91EC
:1005A0000280F381E02DAE01B80109956AE070E0A8
:1005B00080E090E00E9458028091920382303CF0EB
:1005C0009091C00096FFFCCF60E00E94D401CE0164
:1005D000DF91CF911F910F9108950F931F93CF93A8
:1005E000DF93CDB7DEB7C054D1090FB6F894DEBFA4
:1005F0000FBECDBF9091910399838A8381E08B8355
:10060000DB01AA0FBB1FA20FB31FCB0120E0460FD7
:10061000572F511D382F361B8417950770F40D91F5
:100620001D91E1E0F0E0012B09F4E0E001C0EE0FE4
:100630003A95EAF72E2B0196EDCF2C8364E0CE019C
:1006400001960E948A02C05CDF4F0FB6F894DEBFAD
:100650000FBECDBFDF91CF911F910F910895EF9203
:10066000FF920F931F93CF93DF93CDB7DEB7C054A4
:10067000D1090FB6F894DEBF0FBECDBF90919103A4
:1006800099838A83842F880F8B83CB01880F991FCE
:10069000280F391FDE0111967B0163E070E0CD0168
:1006A0004E0D5F2D511D1296E416F50688F4F901E2
:1006B000108101812E5F3F4F11960C931197129676
:1006C0001C9312976E5F7F4FFFEFEF1AFF0AEBCF7D
:1006D0000E948A02C05CDF4F0FB6F894DEBF0FBEE7
:1006E000CDBFDF91CF911F910F91FF90EF900895B3
:1006F000AF92BF92CF92DF92EF92FF920F931F9330
:10070000CF93DF936C017B018B01040F151FEB016D
:100710005E01AE18BF08C017D10759F06991D60124
:10072000ED91FC910190F081E02DC6010995892B96
:1007300079F7C501DF91CF911F910F91FF90EF9055
:10074000DF90CF90BF90AF900895FC01538D448D02
:10075000252F30E0842F90E0821B930B541710F06C
:10076000CF96089501970895FC01918D828D981779
:1007700061F0A28DAE0FBF2FB11D5D968C91928D51
:100780009F5F9F73928F90E008958FEF9FEF089582
:10079000FC01918D828D981731F0828DE80FF11D4B
:1007A000858D90E008958FEF9FEF0895FC01918D66
:1007B000228D892F90E0805C9F4F821B91098F735F
:1007C0009927089582ED92E00E94D60321E0892BBB
:1007D00009F420E0822F089580E090E0892B29F031
:1007E0000E94E20381110C9400000895FC01A48D85
:1007F000A80FB92FB11DA35ABF4F2C91848D90E043
:1008000001968F739927848FA689B7892C93A08925
:10081000B1898C91837080648C93938D848D9813AF
:1008200006C00288F389E02D80818F7D8083089542
:10083000EF92FF920F931F93CF93DF93EC0181E030
:10084000888F9B8D8C8D98131AC0E889F9898081D7
:1008500085FF15C09FB7F894EE89FF896083E8890A
:10086000F98980818370806480839FBF81E090E0FC
:10087000DF91CF911F910F91FF90EF900895F62E89
:100880000B8D10E00F5F1F4F0F731127E02E8C8D23
:100890008E110CC00FB607FCFACFE889F989808168
:1008A00085FFF5CFCE010E94F603F1CFEB8DEC0F63
:1008B000FD2FF11DE35AFF4FF0829FB7F8940B8F85
:1008C000EA89FB8980818062CFCF0F931F93CF93FA
:1008D000DF938C01D0E0C0E0F801EC0FFD1F6491C4
:1008E000662341F082ED92E00E941804892B11F0FA
:1008F0002196F2CFCE01DF91CF911F910F910895F4
:10090000CF93DF93EC01888D8823B9F0AA89BB8946
:10091000E889F9898C9185FD03C0808186FD0DC031
:100920000FB607FCF7CF8C9185FFF2CF808185FF52
:10093000EDCFCE010E94F603E9CFDF91CF9108956C
:100940001F93CF93DF93FC012181261731F0162FDF
:10095000EC0180810E94D4011983DF91CF911F9116
:100960000895EF92FF920F931F93CF93DF93EC01C3
:10097000888199810E947101EC80FD80E881F98174
:1009800001811281D7018D919C9180179107C9F146
:1009900086859785892B89F163E371E0828593854C
:1009A0000E94EA18892B49F5B801110F880B990BA1
:1009B0000E9403152FEF3FEF4FE95BE30E943E15C6
:1009C00020E030E040E05FE30E94491620E030E0A4
:1009D00048EC52E40E943E150E94B616F70171835E
:1009E0006083EE85FF85309761F0CE01DF91CF9176
:1009F0001F910F91FF90EF900994D7010D931C93D5
:100A0000F0CFDF91CF911F910F91FF90EF9008955C
:100A10008091790390917A038035910580F489E77C
:100A200095E00E94710183E995E00E9471018DEAD1
:100A300095E00E94710187EC95E00C94710189EAC0
:100A400094E00E94B1048FEB94E00E94B10485ED24
:100A500094E00E94B1048BEE94E00E94B10481E026
:100A600095E00E94B10487E195E00E94B1048DE217
:100A700095E00E94B10483E495E00E94B10489E509
:100A800095E00C94B104FB0101900020E9F7319747
:100A9000AF01461B570BDC01ED91FC910280F38105
:100AA000E02D0994CF93DF930E946504EC016FE37E
:100AB00071E082ED92E00E9443058C0F9D1FDF9153
:100AC000CF9108950F931F93CF93DF93EC010E9472
:100AD00043058C016FE371E0CE010E944305800F56
:100AE000911FDF91CF911F910F9108950F931F9345
:100AF000CF93DF938C01EB0182ED92E00E946205BF
:100B0000F80180819181009739F0BE01DF91CF918A
:100B10001F910F910C946205DF91CF911F910F915E
:100B20000895EF92FF920F931F93CF93DF938C0161
:100B3000D62FC0E0D80112968D919C911397C817BB
:100B40001906E4F41496ED91FC91E080F18080E0C8
:100B5000309759F462E471E0C8010E9476056D2F68
:100B6000C7010E94A004CF5FE5CFC817C1F3028080
:100B7000F381E02DE080F1808F5FF7CFDF91CF919F
:100B80001F910F91FF90EF900895CF93DF93EC01A9
:100B90004B815C8129813A814217530771F58AEABA
:100BA00091E00E9465048091BF029091C002892B60
:100BB000E9F481E090E09093C0028093BF0287EA5D
:100BC00091E00E9452058C899D8918161906ACF493
:100BD00061E08091BF029091C002892B09F460E02E
:100BE000CE014296DF91CF910C9491051092C002F4
:100BF0001092BF0283EA91E0E4CFDF91CF91089594
:100C0000CF93DF93EC014E855F856A857B8582ED0E
:100C100092E00E9478032B813C8189819A81281778
:100C20003907C1F486E991E00E9452058C899D89BB
:100C30001816190694F461E02B813C8189819A8110
:100C40002817390709F460E0CE014296DF91CF9171
:100C50000C94910589E891E0E7CFDF91CF91089559
:100C6000BF92CF92DF92EF92FF920F931F93CF9399
:100C7000DF938C016B01D0E0C0E0862F8170B82E2D
:100C8000D80112968D919C911397C817D907ACF58E
:100C90009C2F1496ED91FC91E080F18080E03097DC
:100CA00019F562E471E0C8010E947605D701129639
:100CB000ED91FC91208131816B2DB2E0CB16D104F6
:100CC00029F461E02115310509F060E0862F90E0FC
:100CD0008217930739F091838083F7018081918196
:100CE0000E94A0042196CCCF891700F70280F381DF
:100CF000E02DE080F1808F5FF7CFDF91CF911F91E2
:100D00000F91FF90EF90DF90CF90BF900895DC019E
:100D1000ED91FC9143815481218132814217530727
:100D200029F470E060E006960C9430060895CF93A5
:100D3000DF93EC01A881B981EA89FB8911964D9175
:100D40005C9120813181241735073CF061E070E02F
:100D50000696DF91CF910C943006DF91CF910895E4
:100D6000DC01ED91FC911197218132815296ED9138
:100D7000FC9153974081518161E070E04217530725
:100D800054F45496ED91FC9140815181241735071C
:100D90002CF070E060E006960C94300608950F93F6
:100DA0001F93CF93DF93EC01A881B981E889F9897A
:100DB00013964D915C91149711962D913C91421789
:100DC0005307D9F02FB7F8944091C8025091C90247
:100DD0006091CA027091CB022FBF42835383648318
:100DE000758321E02183108261E070E00696DF9137
:100DF000CF911F910F910C94300621812223B1F1E4
:100E00002FB7F8944091C8025091C9026091CA026C
:100E10007091CB022FBF028113812481358140174D
:100E200051076207730720F44150510961097109A4
:100E3000401B510B620B730BA681B7810D90BC91C7
:100E4000A02D28EE33E0A29F8001A39F100DB29F3A
:100E5000100D112430E020E040175107620773079E
:100E6000B0F011821282138214821582E889F98906
:100E7000208121110CC08AEB91E00E945205E88983
:100E8000F98981E0808370E060E0CE01AFCFDF912F
:100E9000CF911F910F910895DC01ED91FC91438159
:100EA0005481218132814217530729F462E070E0B6
:100EB00006960C94300608950C944C070F931F93DC
:100EC000CF93DF93D0E0C0E08091B1039091B20363
:100ED000C817D9070CF59C2FE091B303F091B40328
:100EE0000081118180E0309771F462E471E08FEA53
:100EF00093E00E947605D8011E96ED91FC91C80101
:100F000009952196E1CF8917B0F70280F381E02D92
:100F1000008111818F5FF7CFDF91CF911F910F91EA
:100F20000895EF92FF920F931F93CF93DF93EC01FD
:100F30007B010E811F8184E090E00E94FF169F8359
:100F40008E83892B29F465E771E0CE010E94760536
:100F5000EE81FF8113821282F182E0828C819D8179
:100F6000892B71F4FD83EC838A819B8101969B839D
:100F70008A83DF91CF911F910F91FF90EF90089599
:100F8000D8011396FC93EE931297EECFEF92FF9257
:100F90000F931F93CF93DF93EC017B010E811F8191
:100FA00084E090E00E94FF169F838E83892B29F4B2
:100FB00065E771E0CE010E947605EE81FF81138224
:100FC0001282F182E0828C819D81892B71F4FD83F4
:100FD000EC838A819B8101969B838A83DF91CF91E9
:100FE0001F910F91FF90EF900895D8011396FC93F5
:100FF000EE931297EECF0F931F93CF93DF938C0155
:10100000C091AD03D091AE0384E090E00E94FF1642
:101010009093AE038093AD03892B31F465E771E0C3
:1010200087EA93E00E947605E091AD03F091AE036C
:1010300013821282118300838091AB039091AC03E1
:10104000892B91F4F093AC03E093AB038091A90357
:101050009091AA0301969093AA038093A903DF912C
:10106000CF911F910F910895FB83EA83EFCFCF9328
:10107000DF93EC012B813C8189819A812817390704
:10108000D1F44E855F856A857B8582ED92E00E9472
:10109000780366EA71E082ED92E00E94430588855C
:1010A0009985892BC9F481E090E09987888786E843
:1010B00091E00E9452058C899D89181619068CF4BE
:1010C00061E088859985892B09F460E0CE0142961C
:1010D000DF91CF910C9491051986188682E891E0F2
:1010E000E8CFDF91CF9108950F931F93CF93DF93B4
:1010F000EC018C819D81009769F0FC0102811381D4
:101100000E949B171D830C838A819B8101979B837F
:101110008A83EFCF81E0DF91CF911F910F910895E6
:10112000CF93DF93EC0144960E9474081B8A1A8ABD
:10113000CE018E960E9474081DA61CA6CE01885B67
:101140009F4F0E947408FE01EA5BFF4F11821082DC
:10115000CE018E599F4F0E947408FE01E05AFF4F46
:10116000118210827A9611821082CE0184589F4F8C
:101170000E947408FE01EC56FF4F11821082CE01CE
:101180008A569F4F0E947408FE01E255FF4F11825C
:101190001082CE0180559F4F0E947408FE01E853D3
:1011A000FF4F11821082CE0186539F4F0E94740818
:1011B000FE01EE51FF4F11821082CE018C519F4FE4
:1011C000DF91CF910C9474080F931F93CF93DF930B
:1011D000EC018C819D81009769F0FC0102811381F3
:1011E0000E949B171D830C838A819B8101979B839F
:1011F0008A83EFCF81E0DF91CF911F910F91089506
:10120000CF93DF93EC0188509F4F0E94E408FE01CA
:10121000F39511821082CE01825F9E4F0E94E408F6
:10122000FE01EA5EFE4F11821082CE018C5D9E4F60
:101230000E94E408FE01E45DFE4F11821082CE019F
:10124000865C9E4F0E94E408FE01EE5BFE4F118219
:101250001082769611821082CE01805B9E4F0E9492
:10126000E408FE01E259FE4F11821082CE018A5934
:101270009E4F0E94E408FE01EC57FE4F118210823F
:10128000CE0184589E4F0E94E408FE01E656FE4FB0
:1012900011821082CE018E569E4F0E94E408FE01FC
:1012A000E055FE4F11821082CE0188559E4FDF918E
:1012B000CF910C94E4080F931F93CF93DF93EC012D
:1012C0000C811D81012B51F08C819D81FC010281DB
:1012D00013810E949B171D830C83F4CFDF91CF9164
:1012E0001F910F910895CF93DF93EC0142960E94D6
:1012F0005B098A859B85009721F0DF91CF910C9443
:101300009B17DF91CF910895CF93DF93EC0181E19B
:1013100091E099838883CE018E529F4F0E9473097A
:10132000CE0188549F4F0E947309CE0182569F4F71
:101330000E947309CE018C579F4F0E947309CE0102
:1013400086599F4F0E947309CE01805B9F4F0E9478
:101350007309CE01C6960E947309CE014C960E9475
:101360007309CE010296DF91CF910C947309CF934C
:10137000DF93EC010E948409CE01DF91CF910C94A0
:101380009B17CF93DF93EC018DE291E099838883E3
:10139000CE0188559E4F0E945B09CE018E569E4F0E
:1013A0000E945B09CE0184589E4F0E945B09CE01CA
:1013B0008A599E4F0E945B09CE01805B9E4F0E941E
:1013C0005B09CE01865C9E4F0E945B09CE018C5D5D
:1013D0009E4F0E945B09CE01825F9E4F0E945B0977
:1013E000CE0188509F4F0E945B09CE01DF91CF91C3
:1013F0000C948409CF93DF93EC010E94C109CE01C4
:10140000DF91CF910C949B17CF93DF9387E795E003
:101410000E94900887EB93E00E9400098091B3033B
:101420009091B403009799F0FC01C281D3810E948E
:101430009B17D093B403C093B3038091B1039091F1
:10144000B20301979093B2038093B103E7CFDF918A
:10145000CF9108951F93CF93DF93EC01162F0E9435
:10146000FC15181739F0612FCE01DF91CF911F9134
:101470000C940416DF91CF911F9108950C94FC15E4
:10148000DF92EF92FF920F931F93CF93DF93CDB72D
:10149000DEB7C456D1090FB6F894DEBF0FBECDBF7C
:1014A00090E080E00E943E0A90E0009711F481E114
:1014B00090E090937A03809379039F938F9382E2D5
:1014C00092E09F938F93CE0101967C019F938F931F
:1014D0000E94FA18B70182ED92E00E94620581E055
:1014E00090E00E943E0A282F30E03093880320933A
:1014F00087031F928F938EE392E09F938F93FF92C7
:10150000EF920E94FA18B70182ED92E00E94620504
:1015100082E090E00E943E0A082F83E090E00E9463
:101520003E0A10E0102F0027080F111D10937C03B6
:1015300000937B0384E090E00E943E0AD82E85E071
:1015400090E00E943E0A2D2D30E0322F2227820F9C
:10155000932F911D90937E0380937D0386E090E00E
:101560000E943E0AD82E87E090E00E943E0A2D2D70
:1015700030E0322F2227820F932F911D909380030A
:1015800080937F0388E090E00E943E0AD82E89E095
:1015900090E00E943E0A2D2D30E0322F2227820F4C
:1015A000932F911D90938203809381031F930F9338
:1015B0008FE492E09F938F93FF92EF920E94FA182C
:1015C000B70182ED92E00E9462050FB6F894DEBF8B
:1015D0000FBECDBFCC59DF4F0FB6F894DEBF0FBEA4
:1015E000CDBFDF91CF911F910F91FF90EF90DF90D2
:1015F00008952F923F924F925F926F927F928F92B7
:101600009F92AF92BF92CF92DF92EF92FF920F9391
:101610001F93CF93DF93CDB7DEB7CC56D1090FB66A
:10162000F894DEBF0FBECDBF8091D0029091D10261
:10163000DC01ED91FC910084F185E02D09958C0190
:101640000E94330201151105F1F41092AD021092BF
:10165000AC02C459DF4F0FB6F894DEBF0FBECDBF4A
:10166000DF91CF911F910F91FF90EF90DF90CF907E
:10167000BF90AF909F908F907F906F905F904F90B2
:101680003F902F9008952091AC023091AD02021747
:101690001307C9F01093AD020093AC020091A303AD
:1016A0001091A4032091A5033091A603600F711F30
:1016B000821F931F6093A8027093A9028093AA02CD
:1016C0009093AB02C6CF0091A8021091A90220917D
:1016D000AA023091AB02601771078207930708F4E2
:1016E000B8CF1092AD021092AC02FE0131966F019C
:1016F0007F0110E000E08091D0029091D102DC01E6
:10170000ED91FC910084F185E02D0995892B09F478
:1017100072C08091D0029091D102DC01ED91FC91D8
:101720000284F385E02D0995F70181937F010F5F16
:101730001F4F00341105F9F610E000E061E00130C0
:10174000110509F46FC10230110509F475C18091CA
:10175000830390918403892B09F460E083E696E08B
:101760000E94A0040F5F1F4F0330110539F710E0EE
:1017700000E047E3E42E48E0F42E5CE4A52E57E0B9
:10178000B52E6CE5662E67E0762E70EB272E76E0A0
:10179000372EE1E84E2EE3E05E2E0230110509F40B
:1017A000AEC30CF05AC10130110509F49BC360911E
:1017B000790390E080E00E942A0A80917903909159
:1017C000BE02891791F08093BE02823409F453C29D
:1017D00008F081C1833109F41CC208F051C1813184
:1017E00009F4E3C1823109F4F5C10F5F1F4F0530E1
:1017F000110599F62ECF0115110509F42ACF3EEFF8
:10180000300FF6018FEF9FEF2E2F2C19231788F43E
:101810002191822728E0AC01417055279695879544
:10182000452B21F041E0842740EA9427215099F785
:10183000EBCFEFEFFFEFEC0FFD1FE00FF11F20816B
:10184000FE01E00FF11F308123273227232798273D
:10185000892798272817390709F06ECFE09191035F
:101860008981E81369CF9A81A6E0B1E02DE031E0EB
:101870008D91891709F459C32A173B07C9F781E0ED
:10188000A696EFAFA6979058A7969FAFA797A89652
:101890008FAFA89763E0CE018B599F4F0E948A02B9
:1018A0004BCF4D8150E0542F44276E81640F752F2C
:1018B000711D20919D0330919E03923031F0913043
:1018C00099F520919B0330919C0348E061157105C7
:1018D000E1F146171706C8F14B81A42FB0E0BA2FEB
:1018E000AA274C814A0F5B2F511D460F571F241703
:1018F000350708F42FC36B8170E0762F66279C8133
:10190000690F711D833009F45AC008F5813009F45C
:1019100049C0823009F010CF209195033091960391
:101920004E8182E090E045C020919F033091A0035A
:10193000933049F030E020E040E0943039F62091D7
:10194000A1033091A20349E1C1CF83E099CF853053
:1019500009F445C0E8F1863009F0EECE40919703D6
:10196000509198032D813E81322723273227A69656
:10197000EFAFA697A7968FAFA797A8967FAFA89728
:10198000A9966FAFA997AA963FAFAA97AB962FAF2C
:10199000AB97660F771FFA01E60FF71F318320839D
:1019A00066E079CF20919303309194034E8181E0DA
:1019B00090E00E94ED02892B09F0BECE4ACE209124
:1019C0009703309198034E8183E00E942F03F3CF59
:1019D0002091990330919A034E8184E0F6CF409193
:1019E0009303509194032D813E8132272327322780
:1019F000A696EFAFA697A7968FAFA797A8967FAFAB
:101A0000A897A9966FAFA997AA963FAFAA97AB964A
:101A10002FAFAB97660F771F640F751FDB012D93F8
:101A20003C93BECF8091850390918603892B09F466
:101A300060E085E696E094CE8091870390918803DC
:101A4000892B09F460E0E091EB04F091EC046583EC
:101A500081E090E00E942A0A85CE0330110509F446
:101A600059C20430110509F0A2CE6091820388E0CA
:101A700090E00E942A0A6091810389E090E03CC2D4
:101A8000823309F4CFC0813409F0AFCE66E772E04B
:101A900082ED92E00E9462050E94040A20E0822EFC
:101AA00026E0922E90928A058092890563E676E080
:101AB0008BE895E00E94C6079092A4058092A3054A
:101AC00065E676E085EA95E00E94C6079092BE053D
:101AD0008092BD058ACE823609F423C108F583348D
:101AE00009F4E8C0843509F080CE82EC90E00E94D1
:101AF00052050E94040AB092B804A092B7046FE69F
:101B000075E08FEA94E00E949107B092CE04A09213
:101B1000CD0463E775E085EC94E00E94910765CE03
:101B2000803709F41DC1803909F05FCE88E690E066
:101B30000E9452050E94040AEFE7F3E0F09340058B
:101B4000E0933F058DE793E0909342058093410534
:101B500030923C0520923B056FE675E083E395E00B
:101B60000E949107509256054092550587E996E0EC
:101B7000909352058093510563E775E089E495E001
:101B80000E94910787E8882E86E0982E9092B804EC
:101B90008092B70463E775E08FEA94E00E949107B2
:101BA0009092CE048092CD04B4CF87E691E00E945B
:101BB00052050E94040A80E096E090938A05809383
:101BC00089059093A4058093A3059093BE05809307
:101BD000BD050BCE8BE491E00E9452050E94040AE1
:101BE000F0928A05E0928905109282051092810593
:101BF000F092A405E092A30510929C0510929B051B
:101C0000F092BE05E092BD051092B6051092B505A2
:101C1000ECCD80E391E00E9452050E94040A85EC1D
:101C200095E0CBCF85E191E00E9452050E94040A25
:101C300035EC832E35E0932E90928A0580928905AB
:101C400063E676E08BE895E00E94C6079092A405D3
:101C50008092A30563E676E085EA95E00E94C607D8
:101C60009092BE058092BD0563E676E08FEB95E02D
:101C70000E94C607BACD89EF90E00E9452050E94EB
:101C8000040AF0928A05E092890563E676E08BE823
:101C900095E00E94C607F092A405E092A30565E6D0
:101CA00076E085EA95E00E94C607F092BE05E092D4
:101CB000BD059BCD8EED90E00E9452050E94040A66
:101CC00095EC892E95E0992E90928A05809289054F
:101CD00063E676E08BE895E00E94C60765E676E06D
:101CE0008BE895E00E94C6079092A4058092A30518
:101CF00063E676E085EA95E00E94C60765E676E051
:101D000085EA95E00E94C6079092BE058092BD05C7
:101D100063E676E08FEB95E00E94C60765E676E025
:101D2000A5CF86EA90E00E9452050E94040AB09274
:101D3000B804A092B70463E775E08FEA94E00E94CC
:101D40009107B092CE04A092CD046FE675E085ECC9
:101D500094E00E949107B092E404A092E30445CD80
:101D600089E790E00E9452058091B60281110DC072
:101D70001092AF021092B0021092B1021092B20211
:101D80001092B30281E08093B6020E94040AE091AF
:101D9000EB04F091EC04992493949582E1E0F0E057
:101DA000F0938803E093870380917C038F93809165
:101DB0007B038F9382E992E09F938F93DF92CF9280
:101DC0000E94FA18B60182ED92E00E946205EBE7EC
:101DD000F3E0F093B502E093B4022FB7F89480914A
:101DE000C8029091C902A091CA02B091CB022FBF44
:101DF0008093B0029093B102A093B202B093B30269
:101E00009092AF021092AE028EEA92E09093FC04A0
:101E10008093FB04AFECB6E0B093FA04A093F9040E
:101E200063E775E081EF94E00E9491077092B80437
:101E30006092B7046FE675E08FEA94E00E94910724
:101E40007092CE046092CD046FE675E085EC94E06C
:101E50000E9491077092E4046092E3046FE675E0DB
:101E60008BED94E00E9491078090B5039090B603AB
:101E700084E090E00E94FF169093B6038093B50330
:101E80000F900F900F900F900F900F90892B31F4BF
:101E900065E771E08FEA93E00E947605E091B50373
:101EA000F091B603138212828BEE94E091838083CB
:101EB0008091B3039091B403892B71F4F093B40330
:101EC000E093B3038091B1039091B2030196909394
:101ED000B2038093B10389CCD4011396FC93EE93A3
:101EE0001297F0CF60917C0382E090E00E942A0A72
:101EF00060917B0383E090E00E942A0A76CC609197
:101F00007E0384E090E00E942A0A60917D0385E0D0
:101F100090E0F2CF6091800386E090E00E942A0A70
:101F200060917F0387E090E0E7CF963009F4E3CC3F
:101F3000953009F0B6CC2B8130E0322F22274C812E
:101F4000240F311D40919B0350919C0324173507AA
:101F500008F4D1CC82E094CC1F920F920FB60F926E
:101F600011242F933F938F939F93AF93BF938091AF
:101F7000C8029091C902A091CA02B091CB023091DF
:101F8000C70223E0230F2D3758F50196A11DB11D7F
:101F90002093C7028093C8029093C902A093CA02FB
:101FA000B093CB028091CC029091CD02A091CE0251
:101FB000B091CF020196A11DB11D8093CC029093E8
:101FC000CD02A093CE02B093CF02BF91AF919F916B
:101FD0008F913F912F910F900FBE0F901F901895EA
:101FE00026E8230F0296A11DB11DD2CF1F920F929A
:101FF0000FB60F9211242F933F934F935F936F93DC
:102000007F938F939F93AF93BF93EF93FF9382ED53
:1020100092E00E94F603FF91EF91BF91AF919F91E3
:102020008F917F916F915F914F913F912F910F9081
:102030000FBE0F901F9018951F920F920FB60F9220
:1020400011242F938F939F93EF93FF93E091E202DC
:10205000F091E3028081E091E802F091E90282FDD3
:102060001BC090818091EB028F5F8F732091EC02F7
:10207000821741F0E091EB02F0E0EE52FD4F958FB8
:102080008093EB02FF91EF919F918F912F910F9091
:102090000FBE0F901F9018958081F4CF0F931F9360
:1020A000CF93DF93EC0188819981009759F02A81C1
:1020B0003B812617370730F081E0DF91CF911F91E8
:1020C0000F9108958B016F5F7F4F0E942418009736
:1020D00059F0998388831B830A832C813D81232BAC
:1020E00059F7FC011082E8CF80E0E7CFCF93DF9370
:1020F000EC011B861A861D861C861F861E8670E0D4
:1021000060E00A960E944E102A853B85811117C017
:102110002115310519F0C9010E949B171B861A86EB
:102120001F861E861D861C861D8A1C8A1F8A1E8A83
:10213000198E188E1B8A1A8ADF91CF9108951F86F7
:102140001E8661E471E0C9010E94F318EDCFEF92A1
:10215000FF920F931F93CF93DF93EC017B01FB0161
:1021600001900020E9F731978F01061B170BB8018A
:102170000E944E1028813981811113C0211531052B
:1021800019F0C9010E949B17198218821D821C82B6
:102190001B821A82DF91CF911F910F91FF90EF90D8
:1021A00008951D830C83B701C901DF91CF911F9161
:1021B0000F91FF90EF900C94F3183F924F925F9223
:1021C0006F927F928F929F92AF92BF92CF92DF9247
:1021D000EF92FF920F931F93CF93DF93EC0121E1D6
:1021E00031E0FC0121933193CF010E947610CE01A2
:1021F0004C960E947610CE01C6960E9476104E0133
:10220000F0E58F0E911CC4010E9476105E018AE6F3
:10221000A80EB11CC5010E9476106E01E4E8CE0E36
:10222000D11CC6010E9476107E01FEE9EF0EF11C62
:10223000C7010E9476103E0188EB680E711CC30135
:102240000E9476102E01E2ED4E0E511CC2010E943A
:10225000761060E083E00E94020260E08AE00E9463
:10226000020260E08BE00E94020261E084E00E94D2
:10227000020261E087E00E94020283E08A831C82FE
:102280001B821E821D82332433943F821986188656
:102290006AEB71E0CE010C960E94A7101B8A1A8A85
:1022A0008AE08C8F1E8E1D8E18A21F8E39A21BA253
:1022B0001AA262EC71E0CE0186960E94A7101DA6BC
:1022C0001CA68BE08EAB01E010E018AF0FAB1AAF8D
:1022D00009AF3BAE1DAE1CAE6AEC71E0CE01805C76
:1022E0009F4F0E94A710FE01EA5BFF4F11821082F0
:1022F0008DE0F40180833196118210823296118232
:102300001082329630823196118210826FED71E028
:10231000CE01865A9F4F0E94A710FE01E05AFF4F40
:102320001182108281E1F5018083359630823196E9
:10233000118300836AEF71E0CE018C589F4F0E9499
:10234000A71082E1F60180833596308231961183A1
:10235000008360E072E0CE0182579F4F0E94A71079
:102360008EE0F701808335963082319611830083A9
:1023700066E072E0CE0188559F4F0E94A71083E16E
:10238000F30180833596308231961183008363E1B7
:1023900072E0CE018E539F4F0E94A71080E1F201A0
:1023A00080833596308231961183008363E371E038
:1023B000CE0184529F4F0E94A710FE01E451FF4FAF
:1023C00084E0808331961082319687E08083C1510A
:1023D000DF4F1882DF91CF911F910F91FF90EF9007
:1023E000DF90CF90BF90AF909F908F907F906F9035
:1023F0005F904F903F900895E2EDF2E013821282D9
:1024000088EE93E0A0E0B0E084839583A683B78351
:102410008BE191E09183808385EC90E095878487C0
:1024200084EC90E09787868780EC90E0918B808B9E
:1024300081EC90E0938B828B82EC90E0958B848B87
:1024400086EC90E0978B868B118E128E138E148EF5
:1024500087E795E00E94DD1087EB93E00E94DD1096
:10246000A7EBB3E08DE291E011969C938E931092CE
:10247000A8041092A7041092B2041092B104109212
:10248000B4041092B3041092B6041092B5041092E2
:10249000B0041092AF041092C8041092C7041092B6
:1024A000CA041092C9041092CC041092CB0410926A
:1024B000C6041092C5041092DE041092DD0410923E
:1024C000E0041092DF041092E2041092E1041092F2
:1024D000DC041092DB041092F4041092F3041092C6
:1024E000F6041092F5041092F8041092F70410927A
:1024F000F2041092F10410920A051092090510924C
:102500000C0510920B0510920E0510920D051092FD
:102510000805109207051092200510921F051092D1
:102520002205109221051092240510922305109285
:102530001E0510921D051092360510923505109259
:1025400038051092370510923A051092390510920D
:1025500034051092330510924C0510924B051092E1
:102560004E0510924D051092500510924F05109295
:102570004A05109249051092620510926105109269
:10258000640510926305109266051092650510921D
:10259000600510925F0589EB93E09093AA04809305
:1025A000A904E9E8F3E0F093AE04E093AD041396D8
:1025B0008D919C9114979183808383ED93E0909308
:1025C000C0048093BF048BE893E09093C40480938D
:1025D000C3045D968D919C915E97938382838DEE6B
:1025E00093E09093D6048093D5048DE893E0909384
:1025F000DA048093D904D7968D919C919583848336
:1026000087E094E09093EC048093EB0410920C0428
:10261000A3E8B3E015961C921E9214978FE893E0FE
:102620009093F0048093EF04809108049091090442
:102630009783868383E090E090937C0380937B0371
:1026400081E294E090930205809301058FE693E088
:1026500090930605809305058BE394E0909318050D
:102660008093170581E793E090931C0580931B05E9
:1026700085E594E090932E0580932D0583E793E004
:1026800090933205809331058FE694E09093440552
:102690008093430585E793E0909348058093470531
:1026A00089E894E090935A058093590587E793E071
:1026B00090935E0580935D0583EA94E090937005A6
:1026C00080936F05B0937205A093710585EA94E03D
:1026D000909374058093730585E893E09093760555
:1026E00080937505EFEAF3E013821282158214825B
:1026F0001782168211821082E7EAF3E013821282B7
:10270000158214821782168211821082E1E9F3E0A9
:102710001382128215821482178216821186108605
:10272000138612861586148617861686118A108AD5
:1027300011821082128A138A148A158A0895789455
:1027400084B5826084BD84B5816084BD85B58260B6
:1027500085BD85B5816085BD80916E008160809367
:102760006E001092810080918100826080938100D0
:1027700080918100816080938100809180008160E0
:10278000809380008091B10084608093B10080913B
:10279000B00081608093B00080917A008460809363
:1027A0007A0080917A00826080937A0080917A002A
:1027B000816080937A0080917A00806880937A00AB
:1027C0001092C10082ED92E09093D1028093D002EA
:1027D00083E893E0909394038093930383E090E0E5
:1027E00090939C0380939B0389E893E090939603D6
:1027F0008093950384E090E090939E0380939D03E3
:1028000089E793E0909398038093970385E090E0A5
:102810009093A00380939F032FE633E030939A03B5
:10282000209399039093A2038093A10381E0809366
:1028300091038CE080939203E091E202F091E30235
:1028400082E08083E091DE02F091DF021082E0916D
:10285000E002F091E10280E180831092EA02E091CF
:10286000E602F091E70286E08083E091E402F091D5
:10287000E502808180618083E091E402F091E502CD
:10288000808188608083E091E402F091E50280819C
:1028900080688083E091E402F091E50280818F7D81
:1028A00080838091C20086608093C20061E08CE0EA
:1028B0000E94020260E08CE00E94D4018FE291E06D
:1028C000A0E0B0E08093A3039093A403A093A5039A
:1028D000B093A6030E94400A88E095E00E94FB079F
:1028E00089EF9AE00E94FB078EE597E00E94FB07C4
:1028F0008DEC91E00E94520582ED92E00E948004EE
:1029000004E610E080E0E82E80E0F82E2FB7F8947F
:102910008091C8029091C902A091CA02B091CB02E5
:102920002FBF4091C3025091C4026091C5027091C3
:10293000C602841B950BA60BB70B0A97A105B10520
:1029400008F443C02FB7F8948091C8029091C9024F
:10295000A091CA02B091CB022FBF8093C302909383
:10296000C402A093C502B093C6028091C1029091A7
:10297000C2020196B8010E94E5169093C2028093AC
:10298000C102C0E08091A9039091AA03C81719065B
:10299000E4F4E091AB03F091AC03C080D18080E01F
:1029A000309751F462E471E087EA93E00E94760583
:1029B000F6010995CF5FE6CFC817D1F30280F38106
:1029C000E02DC080D1808F5FF7CFE114F10409F4CE
:1029D0009DCF0E94E203882309F498CF0E94000053
:1029E00095CF87EA93E00E945B098FEA93E00E940B
:1029F0005B0987EB93E00E94C10987E795E00C949F
:102A00008409E89409C097FB3EF4909580957095F1
:102A100061957F4F8F4F9F4F9923A9F0F92F96E92A
:102A2000BB279395F695879577956795B795F1119F
:102A3000F8CFFAF4BB0F11F460FF1BC06F5F7F4F3C
:102A40008F4F9F4F16C0882311F096E911C077234E
:102A500021F09EE8872F762F05C0662371F096E857
:102A6000862F70E060E02AF09A95660F771F881F26
:102A7000DAF7880F9695879597F908950E94511572
:102A80000C94C2150E94B41538F00E94BB1520F0BA
:102A9000952311F00C94AB150C94B11511240C94E2
:102AA000F6150E94D31570F3959FC1F3950F50E072
:102AB000551F629FF001729FBB27F00DB11D639FF0
:102AC000AA27F00DB11DAA1F649F6627B00DA11D96
:102AD000661F829F2227B00DA11D621F739FB00D3C
:102AE000A11D621F839FA00D611D221F749F3327AC
:102AF000A00D611D231F849F600D211D822F762F45
:102B00006A2F11249F5750409AF0F1F088234AF021
:102B1000EE0FFF1FBB1F661F771F881F915050408D
:102B2000A9F79E3F510580F00C94AB150C94F61557
:102B30005F3FE4F3983ED4F3869577956795B79514
:102B4000F795E7959F5FC1F7FE2B880F911D96952E
:102B5000879597F9089597F99F6780E870E060E09E
:102B600008959FEF80EC089500240A941616170626
:102B700018060906089500240A941216130614066E
:102B800005060895092E0394000C11F4882352F0D1
:102B9000BB0F40F4BF2B11F460FF04C06F5F7F4F89
:102BA0008F4F9F4F089557FD9058440F551F59F070
:102BB0005F3F71F04795880F97FB991F61F09F3F2A
:102BC00079F087950895121613061406551FF2CF53
:102BD0004695F1DF08C0161617061806991FF1CFA3
:102BE00086957105610508940895E894BB276627CA
:102BF0007727CB0197F90895F999FECF92BD81BD52
:102C0000F89A992780B50895262FF999FECF1FBA13
:102C100092BD81BD20BD0FB6F894FA9AF99A0FBE05
:102C2000019608952F923F924F925F926F927F92FA
:102C30008F929F92AF92BF92CF92DF92EF92FF92CC
:102C40000F931F93CF93DF93CDB7DEB7CA1BDB0B78
:102C50000FB6F894DEBF0FBECDBF09942A8839881D
:102C600048885F846E847D848C849B84AA84B98424
:102C7000C884DF80EE80FD800C811B81AA81B98130
:102C8000CE0FD11D0FB6F894DEBF0FBECDBFED0144
:102C900008955058BB27AA270E9461160C94C215AC
:102CA0000E94B41538F00E94BB1520F039F49F3F04
:102CB00019F426F40C94B1150EF4E095E7FB0C948E
:102CC000AB15E92F0E94D31558F3BA1762077307A3
:102CD0008407950720F079F4A6F50C94F5150EF409
:102CE000E0950B2EBA2FA02D0B01B90190010C011C
:102CF000CA01A0011124FF27591B99F0593F50F434
:102D0000503E68F11A16F040A22F232F342F44278B
:102D1000585FF3CF469537952795A795F040539583
:102D2000C9F77EF41F16BA0B620B730B840BBAF053
:102D30009150A1F0FF0FBB1F661F771F881FC2F7BE
:102D40000EC0BA0F621F731F841F48F487957795D2
:102D50006795B795F7959E3F08F0B0CF9395880F8C
:102D600008F09927EE0F9795879508950E94DB1537
:102D700088F09F5798F0B92F9927B751B0F0E1F03C
:102D8000660F771F881F991F1AF0BA95C9F714C0EC
:102D9000B13091F00E94F515B1E008950C94F5154D
:102DA000672F782F8827B85F39F0B93FCCF3869525
:102DB00077956795B395D9F73EF490958095709582
:102DC00061957F4F8F4F9F4F0895AA1BBB1B51E109
:102DD00007C0AA1FBB1FA617B70710F0A61BB70B8B
:102DE000881F991F5A95A9F780959095BC01CD0130
:102DF0000895EE0FFF1F0590F491E02D09940F93B5
:102E00001F93CF93DF938230910510F482E090E01E
:102E1000E0916906F0916A0630E020E0B0E0A0E0C1
:102E2000309799F42115310509F44AC0281B390B54
:102E300024303105D8F58A819B816115710589F1AE
:102E4000FB0193838283FE0111C040815181028185
:102E5000138148175907E0F04817590799F410975C
:102E600061F012960C93129713961C933296CF0131
:102E7000DF91CF911F910F910895009369061093F0
:102E80006A06F4CF2115310551F04217530738F087
:102E9000A901DB019A01BD01DF01F801C1CFEF01FA
:102EA000F9CF90936A0680936906CDCFFE01E20FB9
:102EB000F31F819391932250310939832883D7CF0F
:102EC0002091670630916806232B41F4209102017E
:102ED000309103013093680620936706209100012A
:102EE000309101012115310541F42DB73EB74091D4
:102EF000040150910501241B350BE0916706F09108
:102F00006806E217F307A0F42E1B3F0B28173907BA
:102F100078F0AC014E5F5F4F2417350748F04E0F35
:102F20005F1F5093680640936706819391939FCFEC
:102F3000F0E0E0E09CCFCF93DF930097E9F0FC0155
:102F4000329713821282A0916906B0916A06ED0150
:102F500030E020E01097A1F420813181820F931F8F
:102F600020916706309168062817390709F061C07B
:102F7000F0936806E0936706DF91CF910895EA0128
:102F8000CE17DF07E8F54A815B819E0141155105A7
:102F9000B1F7E901FB83EA8349915991C40FD51F29
:102FA000EC17FD0761F4808191810296840F951FD3
:102FB000E90199838883828193819B838A83F0E0EE
:102FC000E0E012968D919C9113970097B9F52D91A1
:102FD0003C911197CD010296820F931F20916706B5
:102FE000309168062817390739F6309751F5109255
:102FF0006A0610926906B0936806A0936706BCCF74
:10300000D383C28340815181840F951FC817D9078C
:1030100061F44E5F5F4F88819981480F591F51833A
:1030200040838A819B81938382832115310509F036
:10303000B0CFF0936A06E09369069ECFFD01DC01F4
:10304000C0CF13821282D7CFB0E0A0E0EAE2F8E16D
:103050000C9414168C01009751F4CB010E94FF16BA
:103060008C01C801CDB7DEB7E0E10C943016FC014D
:10307000E60FF71F9C0122503109E217F30708F40D
:103080009DC0D901CD91DC911197C617D70798F053
:10309000C530D10530F3CE0104978617970708F3A2
:1030A000C61BD70B2297C193D1936D937C93CF010D
:1030B0000E949B17D6CF5B01AC1ABD0A4C018C0E47
:1030C0009D1EA0916906B0916A06512C412CF12CED
:1030D000E12C109731F5809167069091680688156C
:1030E000990509F05CC04616570608F058C0809153
:1030F000000190910101009741F48DB79EB7409176
:10310000040150910501841B950BE817F90708F09D
:1031100055C0F0936806E0936706F90171836083F8
:10312000A0CF8D919C91119712966C901297139647
:103130007C901397A815B90559F56C0142E0C40EAF
:10314000D11CCA14DB0420F1AC014A195B09DA0175
:103150001296159780F06282738251834083D90161
:103160006D937C93E114F10471F0D7011396FC93F5
:10317000EE93129776CF22968C0F9D1FF9019183C3
:103180008083F301EFCFF0936A06E093690669CF7D
:103190004816590608F42C017D01D3019ACFCB01C2
:1031A0000E94FF167C01009749F0AE01B8010E9411
:1031B000E118C8010E949B17870153CF10E000E07F
:1031C00050CFFB01DC0102C001900D9241505040F4
:1031D000D8F70895FB01DC018D9101908019011051
:1031E000D9F3990B0895FB01DC0101900D920020A9
:1031F000E1F70895AEE0B0E0E0E0F9E10C942016CC
:103200000D891E8986E08C831A8309838FEF9FE7DF
:103210009E838D83AE01475E5F4F6F89788DCE01AF
:1032200001960E941D192F813885020F131FF80186
:1032300010822E96E4E00C943C16ABE0B0E0E3E2A2
:10324000F9E10C9412167C013B018A01FC01178202
:103250001682838181FFC8C1CE0101965C01F7010E
:103260009381F30193FD859193FF81913F01882321
:1032700009F453C1853239F493FD859193FF81910F
:103280003F01853229F4B70190E00E940D1BE7CF82
:10329000912C212C312CFFE1F31538F08B3211F1F8
:1032A00090F4803209F1833229F137FC3CC020EDE3
:1032B000280F2A3050F536FE20C08AE0989E200D57
:1032C0001124922E06C08D3291F0803371F76894EC
:1032D00030F8F30193FD859193FF81913F018111B6
:1032E000DACF21C0689431F8689432F8F2CF68944C
:1032F00033F8EFCF689434F8ECCFEAE02E9E200D3F
:103300001124222E689435F8E4CF8E3229F436FC4D
:1033100004C1689436F8DDCF8C3619F4689437F818
:10332000D8CF8836B1F2982F9F7D95549330E0F036
:103330008336A1F18337C1F1833509F063C02801D9
:10334000F2E04F0E511CF801C080D180692D70E071
:1033500036FC02C06FEF7FEFC6010E94F71A4C01E6
:10336000689437F882010AC00C5F1F4FFFE3F983AE
:1033700088248394912C6501E89437F833FE2DC09E
:10338000522C8114910471F5552009F468CFB701CE
:1033900080E290E00E940D1B5A94F6CFF8018081E4
:1033A00089830E5F1F4FE4CF2801F2E04F0E511CBE
:1033B000F801C080D180692D70E036FC02C06FEF4B
:1033C0007FEFC6010E94021B4C018201D5CFB701DD
:1033D00080E290E00E940D1B2A942814190409F041
:1033E000B0F7CECFF60137FC859137FE81916F01A2
:1033F000B70190E00E940D1B51105A94F1E08F1A12
:103400009108BFCF843619F0893609F077C0F801EA
:1034100037FE6BC060817181828193810C5F1F4F89
:10342000F32DFF763F2E97FF09C0909580957095FC
:1034300061957F4F8F4F9F4F689437F82AE030E0B7
:10344000A5010E943D1BC82ECA188C2C432C36FEA9
:103450000CC0E89440F8C91440F434FE05C032FCB6
:1034600003C0F32DFE7E4F2E892C44FE95C0FE0135
:10347000EC0DF11D8081803309F087C0242D297E59
:10348000422E842D8870582E43FC95C040FE8FC07C
:103490009C2C821418F42C0C922C981844FE91C089
:1034A000B70180E390E00E940D1B42FE09C088E74F
:1034B00090E041FE02C088E590E0B7010E940D1B3C
:1034C000C91408F48AC0CA94D12C9FEFC91AD90A2A
:1034D000CA0CDB1CF60182916F01B70190E00E94DB
:1034E0000D1BAC14BD04B1F74FCF60817181072E65
:1034F000000C880B990B0E5F1F4F92CFD32CE894D2
:10350000D4F82AE030E0853739F1232D297FD22EF7
:103510008F3601F148F48835A9F0F701868197814B
:103520002B96E2E10C942E16803749F08837A9F7E4
:10353000D4FE02C06894D2F820E130E00DC0689457
:10354000D4F8F6CF34FE03C0822F8660D82E20E157
:1035500032E002C028E030E0F801D7FE0FC0608101
:103560007181828193810C5F1F4FA5010E943D1BD9
:10357000C82ECA183D2CE89437F867CF6081718156
:1035800090E080E00E5F1F4FF0CF42FC02C08394BA
:1035900078CF8394839475CF842D867809F471CF86
:1035A000F6CFB70180E290E00E940D1B8394821455
:1035B000C0F3512C73CF522C5818821408F46ECFDC
:1035C000F8CF842D867809F47BCF8BE241FE80E230
:1035D00047FC8DE2B70190E071CFB70180E390E046
:1035E0000E940D1B9A946CCF8FEF9FEF99CFFC0137
:1035F0000590615070400110D8F7809590958E0F1E
:103600009F1F0895FC016150704001900110D8F790
:10361000809590958E0F9F1F08950F931F93CF93C2
:10362000DF93182F092FEB018B8181FD09C01FEF5C
:103630000FEF812F902FDF91CF911F910F91089560
:1036400082FF14C02E813F818C819D81281739070C
:103650003CF4E881F981CF01019699838883108336
:103660008E819F8101969F838E83E3CFE885F985C4
:10367000812F0995892BA1F3DACFFA01AA272830E7
:1036800051F1203181F1E8946F936E7F6E5F7F4F2F
:103690008F4F9F4FAF4FB1E03ED0B4E03CD0670FAB
:1036A000781F891F9A1FA11D680F791F8A1F911DFE
:1036B000A11D6A0F711D811D911DA11D20D009F44E
:1036C00068943F912AE0269F11243019305D319390
:1036D000DEF6CF010895462F4770405D4193B3E079
:1036E0000FD0C9F7F6CF462F4F70405D4A3318F020
:1036F000495D31FD4052419302D0A9F7EACFB4E0D1
:10370000A6959795879577956795BA95C9F7009788
:103710006105710508959B01AC010A2E0694579529
:10372000479537952795BA95C9F7620F731F841F80
:10373000951FA01D089511E0CDE1D1E004C0FE0168
:103740000E94F9162196CE31D107C9F7F894FFCF20
:1037500000006B0680000102030405061000000053
:10376000008409B70990080000000018047803A538
:10377000038004D603B403C80300000000C109FAA3
:1037800009000954454D5045524154555241000DD0
:103790000A0051554555453A2063616E27742070E3
:1037A00065656B206974656D2066726F6D2071753B
:1037B0006575653A20717565756520697320656D5D
:1037C0007074792E0051554555453A20696E7375D0
:1037D0006666696369656E74206D656D6F727920C8
:1037E000746F206372656174652061206E65772057
:1037F0006E6F64652E00203A20496E746572727592
:1038000070746F72202D2D3E2000424F54D34E20F5
:103810003100424F54D34E20320050756C736164B6
:103820006F72204F70746F636F706C61646F0050C3
:103830004952202853656E736F72206465204D6F66
:1038400076696D69656E746F2900504F54203100A0
:10385000504F54203200464F544F52455349535411
:103860004F5200464F544F5452414E534953544FB8
:1038700052005072E163746963612053656C656343
:1038800063696F6E6164613A203078255800504951
:103890005220616374697661646F3A202564005434
:1038A00069656D706F204163746976616369F36E59
:1038B0002064656C205049523A2025642053656786
:1038C000756E646F730050342050554C5341444F13
:1038D0005245532053656C656363696F6E61646F15
:1038E000200056616C6F72204D425F544D505F5006
:0838F00049523A202564000052
:00000001FF
