:100000000C9477000C949F000C949F000C949F001C
:100010000C949F000C949F000C949F000C949F00E4
:100020000C949F000C949F000C949F000C949F00D4
:100030000C949F000C949F000C949F000C949F00C4
:100040000C9469070C949F000C94D9070C94B30787
:100050000C949F000C949F000C949F000C949F00A4
:100060000C949F000C949F0050303520436F6D75A9
:100070006E69636163696F6E6573204D6F6442756D
:1000800073202D20536F6C756369EFBFBD6E000048
:10009000000000240027002A00000000002500289E
:1000A000002B0000000000230026002900040404A7
:1000B0000404040404020202020202030303030311
:1000C00003010204081020408001020408102001EE
:1000D00002040810200000000800020100000304D0
:1000E000070000000000000000002F09420B11244F
:1000F0001FBECFEFD8E0DEBFCDBF23E0ACEDB1E057
:1001000001C01D92A639B207E1F711E0A0E0B1E00D
:10011000EEE7F0E202C005900D92AC3DB107D9F7D1
:1001200010E0C6E7D0E004C02197FE010E94990BC1
:10013000C537D107C9F70E94E2090C9432100C941C
:100140000000833081F028F4813099F08230A9F0EA
:1001500008958730A9F08830C9F08430B1F48091D7
:1001600080008F7D03C0809180008F778093800016
:10017000089584B58F7784BD089584B58F7DFBCFB6
:100180008091B0008F778093B00008958091B00087
:100190008F7DF9CFEF92FF920F931F93CF93DF9351
:1001A0008C01DC01CD91DC918D81882309F43AC06A
:1001B0008E819F81009731F0019709F455C090E03E
:1001C00080E023C0288130E0F901EB52FF4F849199
:1001D000F901EF53FF4FE490F901E355FF4FF4901D
:1001E000FF2069F381110E94A100EF2DF0E0EE0FD6
:1001F000FF1FED55FF4FA591B491EC91EE2231E038
:1002000020E009F430E0832F922F29813A812817CA
:10021000390741F09A838983E889F989309711F089
:10022000CE010995D801ED91FC91119781819281C0
:1002300012962D913C9113972817390759F113966F
:100240009C938E9312971D969C938E931C971E964B
:10025000ED91FC913097F1F0C801DF91CF911F91A2
:100260000F91FF90EF90099488818E3008F08E50A6
:100270008770806480937C0080917A008064809392
:100280007A0080917A0086FDFCCF80917800909171
:100290007900BBCFDF91CF911F910F91FF90EF902D
:1002A00008951F93CF93DF93282F30E0F901EB528D
:1002B000FF4F8491F901EF53FF4FD491F901E355BA
:1002C000FF4FC491CC23A9F0162F81110E94A100E9
:1002D000EC2FF0E0EE0FFF1FE756FF4FA591B49112
:1002E0008FB7F894EC91111108C0D095DE23DC9300
:1002F0008FBFDF91CF911F910895DE2BF8CFCF9361
:10030000DF9390E0FC01EF53FF4F249183559F4F03
:10031000FC0184918823D1F090E0880F991FFC01A3
:10032000E157FF4FA591B491FC01E756FF4FC591EE
:10033000D49161110EC09FB7F8948C91E22FE09593
:100340008E238C932881E223E8839FBFDF91CF9196
:1003500008958FB7F894EC91E22BEC938FBFF6CF12
:100360003FB7F8948091ED019091EE01A091EF01DB
:10037000B091F00126B5A89B05C02F3F19F001965A
:10038000A11DB11D3FBFBA2FA92F982F8827BC01EF
:10039000CD01620F711D811D911D42E0660F771F17
:1003A000881F991F4A95D1F708958F929F92AF9217
:1003B000BF92CF92DF92EF92FF924B015C010E94BD
:1003C000B0016B017C010E94B0016C197D098E099E
:1003D0009F09683E734081059105A8F321E0821AC8
:1003E0009108A108B10888EEC80E83E0D81EE11C70
:1003F000F11C81149104A104B10429F7FF90EF903E
:10040000DF90CF90BF90AF909F908F9008950F9303
:100410001F93CF93DF938C01C62F80919B02823074
:1004200074F09091C00090649093C00061E00E94CD
:10043000510161E070E080E090E00E94D501902FD2
:10044000F8012FEF3FEF8191282788E0A901417043
:10045000552736952795452B21F041E0242740EA82
:100460003427815099F78E2F891B8C1760F3322720
:1004700023273227F801EC0FF11D3083E1E0EC0F68
:10048000E00FF12FF11D2083CE5F8091F10190915B
:10049000F201D0E0DC01ED91FC910280F381E02DCE
:1004A000AE01B80109956AE070E080E090E00E943A
:1004B000D50180919B0282303CF09091C00096FF64
:1004C000FCCF60E00E945101CE01DF91CF911F91DE
:1004D0000F9108950F931F93CF93DF93CDB7DEB79E
:1004E000C054D1090FB6F894DEBF0FBECDBF9091B6
:1004F0009A0299838A8381E08B83DB01AA0FBB1F59
:10050000A20FB31FCB0120E0460F572F511D382FEC
:10051000361B8417950770F40D911D91E1E0F0E012
:10052000012B09F4E0E001C0EE0F3A95EAF72E2B1B
:100530000196EDCF2C8364E0CE0101960E94070264
:10054000C05CDF4F0FB6F894DEBF0FBECDBFDF91AA
:10055000CF911F910F910895AF92BF92CF92DF92EA
:10056000EF92FF920F931F93CF93DF936C017B0168
:100570008B01040F151FEB015E01AE18BF08C017F9
:10058000D10759F06991D601ED91FC910190F0816C
:10059000E02DC6010995892B79F7C501DF91CF912F
:1005A0001F910F91FF90EF90DF90CF90BF90AF9091
:1005B0000895FC01538D448D252F30E0842F90E069
:1005C000821B930B541710F0CF960895019708954E
:1005D000FC01918D828D981761F0A28DAE0FBF2F17
:1005E000B11D5D968C91928D9F5F9F73928F90E06D
:1005F00008958FEF9FEF0895FC01918D828D9817DC
:1006000031F0828DE80FF11D858D90E008958FEF18
:100610009FEF0895FC01918D228D892F90E0805CE1
:100620009F4F821B91098F739927089583EF91E063
:100630000E940A0321E0892B09F420E0822F08950B
:1006400080E090E0892B29F00E94160381110C9420
:1006500000000895FC01A48DA80FB92FB11DA35A65
:10066000BF4F2C91848D90E001968F739927848FD2
:10067000A689B7892C93A089B1898C9183708064F5
:100680008C93938D848D981306C00288F389E02D96
:1006900080818F7D80830895EF92FF920F931F9347
:1006A000CF93DF93EC0181E0888F9B8D8C8D981325
:1006B0001AC0E889F989808185FF15C09FB7F89431
:1006C000EE89FF896083E889F9898081837080647D
:1006D00080839FBF81E090E0DF91CF911F910F91C8
:1006E000FF90EF900895F62E0B8D10E00F5F1F4FD7
:1006F0000F731127E02E8C8D8E110CC00FB607FCE6
:10070000FACFE889F989808185FFF5CFCE010E9473
:100710002A03F1CFEB8DEC0FFD2FF11DE35AFF4FB4
:10072000F0829FB7F8940B8FEA89FB898081806201
:10073000CFCFCF93DF93EC01888D8823B9F0AA89BE
:10074000BB89E889F9898C9185FD03C0808186FD8C
:100750000DC00FB607FCF7CF8C9185FFF2CF8081DB
:1007600085FFEDCFCE010E942A03E9CFDF91CF9123
:10077000089586E093E00E94CA0086E193E00E941B
:10078000CA0086E293E00C94CA00FB0101900020AD
:10079000E9F73197AF01461B570BDC01ED91FC9156
:1007A0000280F381E02D09940F931F93CF93DF9381
:1007B000EC010E94C5038C016CE271E0CE010E9445
:1007C000C503800F911FDF91CF911F910F91089565
:1007D0000F931F93CF93DF938C01EB0183EF91E095
:1007E0000E94D403F80180819181009739F0BE0105
:1007F000DF91CF911F910F910C94D403DF91CF9192
:100800001F910F910895AF92BF92CF92DF92FF9206
:100810000F931F93CF93DF93DC01ED91FC91438104
:100820005481218132814217530709F042C0EC0103
:100830005C01B4E0AB0EB11C10E000E08E819F8142
:1008400008171907B4F5902FE885F985C080D18085
:1008500080E0309729F56FE271E0C5010E94E8035E
:10086000D6011296ED91FC9120813181FF24F39401
:100870002115310509F0F12C8F2D90E0281739074B
:1008800061F091838083F601C080D1806F2DD60105
:100890008C910E945101F601F1820F5F1F4FCECF64
:1008A0008917F0F60280F381E02DC080D1808F5F40
:1008B000F7CFDF91CF911F910F91FF90DF90CF90F5
:1008C000BF90AF900895EF92FF920F931F93CF9335
:1008D000DF93EC017B010E811F8184E090E00E9498
:1008E0009F0B9F838E83892B29F462E671E0CE01F2
:1008F0000E94E803EE81FF8113821282F182E0827E
:100900008C819D81892B71F4FD83EC838A819B818D
:1009100001969B838A83DF91CF911F910F91FF9066
:10092000EF900895D8011396FC93EE931297EECFB3
:100930000F931F93CF93DF938C01C091AE02D091A0
:10094000AF0284E090E00E949F0B9093AF028093EF
:10095000AE02892B31F462E671E088EA92E00E94EF
:10096000E803E091AE02F091AF021382128211838C
:1009700000838091AC029091AD02892B91F4F093A9
:10098000AD02E093AC028091AA029091AB02019675
:100990009093AB028093AA02DF91CF911F910F91A8
:1009A0000895FB83EA83EFCFFC018081918100975A
:1009B00011F00C943B0C08950F931F93CF93DF938A
:1009C000EC018C819D81009769F0FC01028113810B
:1009D0000E943B0C1D830C838A819B8101979B8322
:1009E0008A83EFCF81E0DF91CF911F910F9108951E
:1009F0000F931F93CF93DF93EC010C811D81012B8B
:100A000051F08C819D81FC01028113810E943B0C7D
:100A10001D830C83F4CFDF91CF911F910F91089527
:100A20000F931F93CF93DF93EC018AE091E09983BA
:100A300088838E010A5C1F4FC80142960E94F80409
:100A4000C8010A960E94D404CE018E960E94F80432
:100A5000CE0186960E94D404CE0144960E94F804EA
:100A6000CE010C96DF91CF911F910F910C94D4047D
:100A7000CF93DF93EC0186E291E099838883CE01E6
:100A800086589F4F0E94F804CE0186599F4F0E94BE
:100A9000F804CE01865A9F4F0E94F804CE01DF91E0
:100AA000CF910C941005CF93DF93EC010E94380591
:100AB000CE01DF91CF910C943B0CCF93DF93EC01EF
:100AC0000E941005CE01DF91CF910C943B0C0F9347
:100AD0001F93CF93DF93EC018C819D81009769F088
:100AE000FC01028113810E943B0C1D830C838A81CF
:100AF0009B8101979B838A83EFCF81E0DF91CF9128
:100B00001F910F910895CF93DF93EC0144960E94BB
:100B100067051B8A1A8ACE018E960E9467051DA65C
:100B20001CA6CE01885B9F4F0E946705CA5BDF4F02
:100B300019821882DF91CF910895CF93DF93EC0152
:100B40000E948305CE01865A9F4F0E94DC04FE015D
:100B5000EC59FF4F11821082CE0186599F4F0E949F
:100B6000DC04FE01EC58FF4F11821082CE01865842
:100B70009F4F0E94DC04CC57DF4F19821882DF910F
:100B8000CF910895CF92DF92EF92FF920F931F9330
:100B9000CF93DF93CDB7DEB7C257D1090FB6F89424
:100BA000DEBF0FBECDBF8091F1019091F201DC015B
:100BB000ED91FC910084F185E02D09958C010E9456
:100BC000B00101151105A1F41092E1011092E001AC
:100BD000CE58DF4F0FB6F894DEBF0FBECDBFDF910A
:100BE000CF911F910F91FF90EF90DF90CF900895DC
:100BF0002091E0013091E10102171307C9F0109331
:100C0000E1010093E0010091A4021091A50220915E
:100C1000A6023091A702600F711F821F931F60937D
:100C2000DC017093DD018093DE019093DF01D0CF72
:100C30000091DC011091DD012091DE013091DF0196
:100C4000601771078207930718F21092E101109262
:100C5000E001FE0131967F016F0110E000E080911C
:100C6000F1019091F201DC01ED91FC910084F1859C
:100C7000E02D0995892B91F18091F1019091F2017C
:100C8000DC01ED91FC910284F385E02D0995F601DC
:100C900081936F010F5F1F4F0034110501F711E0C1
:100CA0008091900290919102892B09F410E0612FBC
:100CB00080918E030E94510110938F0311E0809167
:100CC000920290919302892B09F410E0612F809198
:100CD00090030E945101109391037ACF01151105E1
:100CE00009F476CF3EEF300FF7018FEF9FEF2E2FF5
:100CF0002E19231788F42191822728E0AC01417036
:100D0000552796958795452B21F041E0842740EAA9
:100D10009427215099F7EBCFEFEFFFEFEC0FFD1F7A
:100D2000E00FF11F2081FE01E00FF11F308123272A
:100D3000322723279827892798272817390709F06A
:100D4000AECFE0919A028981E813A9CF1A811130C0
:100D500069F0123059F0133049F0153009F44DC0E4
:100D6000163061F181E0103109F072C02D8130E060
:100D7000322F22278E81280F311D6091A0027091A1
:100D8000A10288E0113019F070E060E080E02115E8
:100D9000310509F470C08217130608F46CC08B810A
:100DA000482F50E0542F44278C81840F952F911D9C
:100DB000820F931F6817790708F449C06B81862F4B
:100DC00090E0982F88276C81680F792F711D123061
:100DD00009F453C0153009F458C0113009F05FCF41
:100DE00020919C0230919D024E8181E090E00E9412
:100DF0006A02892B09F053CFEBCE8B81282F30E08C
:100E0000322F22278C81820F932F911D2091A002D7
:100E10003091A1028217930788F23F932F939F93FB
:100E20008F938CEB91E09F938F937E0181E4E80E8A
:100E3000F11CFF92EF920E94910DB70183EF91E0B8
:100E40000E94D4030FB6F894DEBF0FBECDBF82E080
:100E500090919A0222969FAF2297105823961FAF27
:100E6000239724968FAF249763E0CE018F5B9F4F2B
:100E70000E94070214CF83E0EBCF20919E023091B5
:100E80009F024E8182E090E0B2CF20919C0230918F
:100E90009D028D819E819827892798272296EFAF02
:100EA000229723961FAF239724967FAF24972596EA
:100EB0006FAF259726969FAF269727968FAF2797D8
:100EC000660F771F620F731FFB019183808366E0BB
:100ED000CCCF1F920F920FB60F9211242F933F93F6
:100EE0008F939F93AF93BF938091E9019091EA0113
:100EF000A091EB01B091EC013091E80123E0230FC8
:100F00002D3758F50196A11DB11D2093E80180935E
:100F1000E9019093EA01A093EB01B093EC01809179
:100F2000ED019091EE01A091EF01B091F0010196D9
:100F3000A11DB11D8093ED019093EE01A093EF01EF
:100F4000B093F001BF91AF919F918F913F912F91FD
:100F50000F900FBE0F901F90189526E8230F029652
:100F6000A11DB11DD2CF1F920F920FB60F92112467
:100F70002F933F934F935F936F937F938F939F93A1
:100F8000AF93BF93EF93FF9383EF91E00E942A0307
:100F9000FF91EF91BF91AF919F918F917F916F9151
:100FA0005F914F913F912F910F900FBE0F901F9027
:100FB00018951F920F920FB60F9211242F938F93B3
:100FC0009F93EF93FF93E0910302F09104028081DD
:100FD000E0910902F0910A0282FD1BC0908180918C
:100FE0000C028F5F8F7320910D02821741F0E09108
:100FF0000C02F0E0ED50FE4F958F80930C02FF91B4
:10100000EF919F918F912F910F900FBE0F901F9096
:1010100018958081F4CF0F931F93CF93DF93EC014A
:1010200088819981009759F02A813B8126173707DB
:1010300030F081E0DF91CF911F910F9108958B01E6
:101040006F5F7F4F0E94C40C009759F0998388838B
:101050001B830A832C813D81232B59F7FC011082CD
:10106000E8CF80E0E7CFCF93DF93EC0119821882BD
:101070001B821A821D821C8270E060E00E940B08B5
:101080002881398181110FC02115310519F0C9015D
:101090000E943B0C198218821D821C821B821A82BC
:1010A000DF91CF9108951D821C826EE271E0C9012B
:1010B000DF91CF910C948A0DEF92FF920F931F93C3
:1010C000CF93DF93EC017B01FB0101900020E9F756
:1010D00031978F01061B170BB8010E940B0828815E
:1010E0003981811113C02115310519F0C9010E9400
:1010F0003B0C198218821D821C821B821A82DF918E
:10110000CF911F910F91FF90EF9008951D830C8355
:10111000B701C901DF91CF911F910F91FF90EF901F
:101120000C948A0DAF92BF92CF92DF92EF92FF9212
:101130001F93CF93DF93EC018AE091E0998388833A
:101140005E018CE0A80EB11CC5010E9433081F8A05
:101150001E8A198E188E1B8E1A8E1D8A1C8A6E018D
:1011600086E2C80ED11CC6010E94330819AA18AA2B
:101170001BAA1AAA1DAA1CAA1FA61EA67E0180E4ED
:10118000E80EF11CC7010E943308FE01E85BFF4F27
:1011900013821282158214821782168211821082A3
:1011A00060E083E00E947F0160E08AE00E947F01AE
:1011B00060E08BE00E947F0161E084E00E947F019B
:1011C00061E087E00E947F0183E08A831C821B82AA
:1011D0001E821D8211E01F831986188663E971E063
:1011E000C5010E945C081B8A1A8A8AE08C8F1E8EB9
:1011F0001D8E18A21F8E19A31BA21AA26DE971E001
:10120000C6010E945C081DA61CA68BE08EAB81E087
:1012100090E098AF8FAB9AAF89AF1BAF1DAE1CAEFD
:1012200067EA71E0C7010E945C08FE01EA5BFF4FBC
:10123000118210823A9684E0808331961082319632
:1012400087E08083CD5ADF4F1882DF91CF911F91C5
:10125000FF90EF90DF90CF90BF90AF900895E3EFB5
:10126000F1E01382128288EE93E0A0E0B0E0848384
:101270009583A683B78384E191E09183808385EC95
:1012800090E09587848784EC90E09787868780EC50
:1012900090E0918B808B81EC90E0938B828B82EC41
:1012A00090E0958B848B86EC90E0978B868B118EEB
:1012B000128E138E148E8EE393E00E94920880EBC0
:1012C00092E00E94920886E291E09093B1028093AE
:1012D000B002109205031092040310920D031092B5
:1012E0000C0310920F0310920E0310921103109230
:1012F000100310920B0310920A0310921D03109218
:101300001C0310921F0310921E03109221031092CF
:10131000200310921B0310921A0310922D031092B7
:101320002C0310922F0310922E031092310310926F
:10133000300310922B0310922A0382EB92E09093D9
:101340000703809306038CEC92E09093170380933D
:10135000160386E992E0909313038093120380E0D2
:1013600093E0909337038093360380E992E0909363
:1013700039038093380382E093E090933B0380939A
:101380003A0382E992E090933D0380933C03E8EABC
:10139000F2E0138212821582148217821682118261
:1013A0001082EAE9F2E01382128215821482178217
:1013B0001682118610861182108212861386148678
:1013C00015860895789484B5826084BD84B5816063
:1013D00084BD85B5826085BD85B5816085BD809100
:1013E0006E00816080936E00109281008091810078
:1013F0008260809381008091810081608093810070
:10140000809180008160809380008091B100846031
:101410008093B1008091B00081608093B000809192
:101420007A00846080937A0080917A008260809351
:101430007A0080917A00816080937A0080917A00AE
:10144000806880937A001092C10083EF91E09093BE
:10145000F2018093F10180E992E090939D028093E4
:101460009C0284E992E090939F0280939E0282E026
:1014700090E09093A1028093A00283E090E090938B
:10148000A3028093A20281E080939A028CE0809371
:101490009B02E0910302F091040282E08083E091DC
:1014A000FF01F09100021082E0910102F09102022E
:1014B00080E1808310920B02E0910702F091080214
:1014C00086E08083E0910502F091060280818061D0
:1014D0008083E0910502F09106028081886080831C
:1014E000E0910502F0910602808180688083E0919E
:1014F0000502F091060280818F7D80838091C20079
:1015000086608093C20061E08CE00E947F0160E011
:101510008CE00E9451018FE291E0A0E0B0E0809366
:10152000A4029093A502A093A602B093A70280EB19
:1015300092E00E949D0503E014E0109315030093D0
:10154000140366E373E08AE093E00E94630410935F
:101550002503009324036AE373E08AE193E00E9489
:101560006304109335030093340389EB93E00E94E6
:10157000980482EC95E00E94980408E610E0F801D7
:101580006491662341F083EF91E00E944C030F5F6A
:101590001F4F892BA1F76CE271E083EF91E00E946D
:1015A000C50304E610E080E0E82E80E0F82E2FB7B7
:1015B000F8948091E9019091EA01A091EB01B0913A
:1015C000EC012FBF4091E4015091E5016091E601EB
:1015D0007091E701841B950BA60BB70B0A97A10529
:1015E000B10508F443C02FB7F8948091E9019091B8
:1015F000EA01A091EB01B091EC012FBF8093E401CF
:101600009093E501A093E601B093E7018091E20198
:101610009091E3010196B8010E94850B9093E3013C
:101620008093E201C0E08091AA029091AB02C817BA
:101630001906E4F4E091AC02F091AD02C080D180D3
:1016400080E0309751F46FE271E088EA92E00E9406
:10165000E803F6010995CF5FE6CFC817D1F3028002
:10166000F381E02DC080D1808F5FF7CFE114F104CA
:1016700009F49DCF0E941603882309F498CF0E9495
:10168000000095CF88EA92E00E94F80480EB92E097
:101690000E9438058EE393E00C9410052F923F9240
:1016A0004F925F926F927F928F929F92AF92BF9272
:1016B000CF92DF92EF92FF920F931F93CF93DF931E
:1016C000CDB7DEB7CA1BDB0B0FB6F894DEBF0FBE7B
:1016D000CDBF09942A88398848885F846E847D84C8
:1016E0008C849B84AA84B984C884DF80EE80FD80CA
:1016F0000C811B81AA81B981CE0FD11D0FB6F89440
:10170000DEBF0FBECDBFED010895AA1BBB1B51E18B
:1017100007C0AA1FBB1FA617B70710F0A61BB70B61
:10172000881F991F5A95A9F780959095BC01CD0106
:101730000895EE0FFF1F0590F491E02D09940F938B
:101740001F93CF93DF938230910510F482E090E0F5
:10175000E0919403F091950330E020E0B0E0A0E048
:10176000309799F42115310509F44AC0281B390B2B
:1017700024303105D8F58A819B816115710589F185
:10178000FB0193838283FE0111C04081518102815C
:10179000138148175907E0F04817590799F4109733
:1017A00061F012960C93129713961C933296CF0108
:1017B000DF91CF911F910F9108950093940310939F
:1017C0009503F4CF2115310551F04217530738F036
:1017D000A901DB019A01BD01DF01F801C1CFEF01D1
:1017E000F9CF9093950380939403CDCFFE01E20F40
:1017F000F31F819391932250310939832883D7CFE6
:101800002091920330919303232B41F42091020104
:1018100030910301309393032093920320910001B0
:10182000309101012115310541F42DB73EB74091AA
:10183000040150910501241B350BE0919203F091B6
:101840009303E217F307A0F42E1B3F0B2817390769
:1018500078F0AC014E5F5F4F2417350748F04E0F0C
:101860005F1F5093930340939203819391939FCF73
:10187000F0E0E0E09CCFCF93DF930097E9F0FC012C
:10188000329713821282A0919403B0919503ED01D7
:1018900030E020E01097A1F420813181820F931F66
:1018A00020919203309193032817390709F061C002
:1018B000F0939303E0939203DF91CF910895EA01AF
:1018C000CE17DF07E8F54A815B819E01411551057E
:1018D000B1F7E901FB83EA8349915991C40FD51F00
:1018E000EC17FD0761F4808191810296840F951FAA
:1018F000E90199838883828193819B838A83F0E0C5
:10190000E0E012968D919C9113970097B9F52D9177
:101910003C911197CD010296820F931F2091920363
:10192000309193032817390739F6309751F5109203
:10193000950310929403B0939303A0939203BCCFAA
:10194000D383C28340815181840F951FC817D90763
:1019500061F44E5F5F4F88819981480F591F518311
:1019600040838A819B81938382832115310509F00D
:10197000B0CFF0939503E09394039ECFFD01DC017B
:10198000C0CF13821282D7CFB0E0A0E0EAECFCE037
:101990000C94500B8C01009751F4CB010E949F0BCB
:1019A0008C01C801CDB7DEB7E0E10C946C0BFC01F3
:1019B000E60FF71F9C0122503109E217F30708F4E4
:1019C0009DC0D901CD91DC911197C617D70798F02A
:1019D000C530D10530F3CE0104978617970708F379
:1019E000C61BD70B2297C193D1936D937C93CF01E4
:1019F0000E943B0CD6CF5B01AC1ABD0A4C018C0E89
:101A00009D1EA0919403B0919503512C412CF12C73
:101A1000E12C109731F580919203909193038815F2
:101A2000990509F05CC04616570608F058C0809129
:101A3000000190910101009741F48DB79EB740914C
:101A4000040150910501841B950BE817F90708F074
:101A500055C0F0939303E0939203F901718360837F
:101A6000A0CF8D919C91119712966C90129713961E
:101A70007C901397A815B90559F56C0142E0C40E86
:101A8000D11CCA14DB0420F1AC014A195B09DA014C
:101A90001296159780F06282738251834083D90138
:101AA0006D937C93E114F10471F0D7011396FC93CC
:101AB000EE93129776CF22968C0F9D1FF90191839A
:101AC0008083F301EFCFF0939503E093940369CF04
:101AD0004816590608F42C017D01D3019ACFCB0199
:101AE0000E949F0B7C01009749F0AE01B8010E9453
:101AF000810DC8010E943B0C870153CF10E000E02C
:101B000050CFFB01DC0102C001900D9241505040CA
:101B1000D8F70895FB01DC0101900D920020E1F758
:101B20000895AEE0B0E0E7E9FDE00C945C0B0D89B0
:101B30001E8986E08C831A8309838FEF9FE79E833B
:101B40008D83AE01475E5F4F6F89788DCE01019620
:101B50000E94B40D2F813885020F131FF8011082E7
:101B60002E96E4E00C94780BABE0B0E0EAEBFDE0FD
:101B70000C944E0B7C013B018A01FC0117821682FA
:101B8000838181FFC8C1CE0101965C01F701938179
:101B9000F30193FD859193FF81913F01882309F41F
:101BA00053C1853239F493FD859193FF81913F01B3
:101BB000853229F4B70190E00E94A40FE7CF912C61
:101BC000212C312CFFE1F31538F08B3211F190F418
:101BD000803209F1833229F137FC3CC020ED280F17
:101BE0002A3050F536FE20C08AE0989E200D112440
:101BF000922E06C08D3291F0803371F7689430F8E0
:101C0000F30193FD859193FF81913F018111DACF1B
:101C100021C0689431F8689432F8F2CF689433F8B0
:101C2000EFCF689434F8ECCFEAE02E9E200D11241B
:101C3000222E689435F8E4CF8E3229F436FC04C1A4
:101C4000689436F8DDCF8C3619F4689437F8D8CF1D
:101C50008836B1F2982F9F7D95549330E0F083360B
:101C6000A1F18337C1F1833509F063C02801F2E0A7
:101C70004F0E511CF801C080D180692D70E036FCF8
:101C800002C06FEF7FEFC6010E948E0F4C01689477
:101C900037F882010AC00C5F1F4FFFE3F9838824E5
:101CA0008394912C6501E89437F833FE2DC0522CB3
:101CB0008114910471F5552009F468CFB70180E2D1
:101CC00090E00E94A40F5A94F6CFF8018081898396
:101CD0000E5F1F4FE4CF2801F2E04F0E511CF801B8
:101CE000C080D180692D70E036FC02C06FEF7FEFBD
:101CF000C6010E94990F4C018201D5CFB70180E245
:101D000090E00E94A40F2A942814190409F0B0F757
:101D1000CECFF60137FC859137FE81916F01B70177
:101D200090E00E94A40F51105A94F1E08F1A91088C
:101D3000BFCF843619F0893609F077C0F80137FE35
:101D40006BC060817181828193810C5F1F4FF32D85
:101D5000FF763F2E97FF09C090958095709561950D
:101D60007F4F8F4F9F4F689437F82AE030E0A501EE
:101D70000E94D40FC82ECA188C2C432C36FE0CC0DF
:101D8000E89440F8C91440F434FE05C032FC03C0A6
:101D9000F32DFE7E4F2E892C44FE95C0FE01EC0DE6
:101DA000F11D8081803309F087C0242D297E422EC9
:101DB000842D8870582E43FC95C040FE8FC09C2C0B
:101DC000821418F42C0C922C981844FE91C0B70180
:101DD00080E390E00E94A40F42FE09C088E790E0F3
:101DE00041FE02C088E590E0B7010E94A40FC9142B
:101DF00008F48AC0CA94D12C9FEFC91AD90ACA0C18
:101E0000DB1CF60182916F01B70190E00E94A40FE4
:101E1000AC14BD04B1F74FCF60817181072E000C67
:101E2000880B990B0E5F1F4F92CFD32CE894D4F8F8
:101E30002AE030E0853739F1232D297FD22E8F36E5
:101E400001F148F48835A9F0F701868197812B9636
:101E5000E2E10C946A0B803749F08837A9F7D4FE89
:101E600002C06894D2F820E130E00DC06894D4F844
:101E7000F6CF34FE03C0822F8660D82E20E132E0F8
:101E800002C028E030E0F801D7FE0FC06081718108
:101E9000828193810C5F1F4FA5010E94D40FC82E31
:101EA000CA183D2CE89437F867CF6081718190E0C3
:101EB00080E00E5F1F4FF0CF42FC02C0839478CFCA
:101EC0008394839475CF842D867809F471CFF6CFEF
:101ED000B70180E290E00E94A40F83948214C0F3C3
:101EE000512C73CF522C5818821408F46ECFF8CFAF
:101EF000842D867809F47BCF8BE241FE80E247FC9B
:101F00008DE2B70190E071CFB70180E390E00E94CD
:101F1000A40F9A946CCF8FEF9FEF99CFFC0105909F
:101F2000615070400110D8F7809590958E0F9F1FDB
:101F30000895FC016150704001900110D8F7809520
:101F400090958E0F9F1F08950F931F93CF93DF934C
:101F5000182F092FEB018B8181FD09C01FEF0FEFB7
:101F6000812F902FDF91CF911F910F91089582FFC4
:101F700014C02E813F818C819D81281739073CF444
:101F8000E881F981CF0101969983888310838E813E
:101F90009F8101969F838E83E3CFE885F985812F0A
:101FA0000995892BA1F3DACFFA01AA27283051F13C
:101FB000203181F1E8946F936E7F6E5F7F4F8F4F7A
:101FC0009F4FAF4FB1E03ED0B4E03CD0670F781FD9
:101FD000891F9A1FA11D680F791F8A1F911DA11DBE
:101FE0006A0F711D811D911DA11D20D009F46894F7
:101FF0003F912AE0269F11243019305D3193DEF69F
:10200000CF010895462F4770405D4193B3E00FD054
:10201000C9F7F6CF462F4F70405D4A3318F0495D3F
:1020200031FD4052419302D0A9F7EACFB4E0A69522
:102030009795879577956795BA95C9F70097610544
:10204000710508959B01AC010A2E0694579547959A
:1020500037952795BA95C9F7620F731F841F951F8F
:10206000A01D089510E0C6E7D0E004C0FE010E9464
:0E207000990B2196C737D107C9F7F894FFCF17
:10207E000000960380000000000010055D0583053A
:10208E00000000004C03AC02D90299030A03E802D7
:10209E00FC0200000000380553059D050D0A005195
:1020AE00554555453A2063616E2774207065656B02
:1020BE00206974656D2066726F6D2071756575652A
:1020CE003A20717565756520697320656D70747938
:1020DE002E0051554555453A20696E7375666669F1
:1020EE006369656E74206D656D6F727920746F20F3
:1020FE006372656174652061206E6577206E6F6412
:10210E00652E00424F54EFBFBD4E203100424F545A
:10211E00EFBFBD4E20320050756C7361646F72203C
:10212E004F70746F636F706C61646F00726567736C
:10213E005F6E756D203A202564202D2D3E204E5F5A
:0C214E004152656773203A2025640000B0
:00000001FF
