:100000000C9402010C942A010C942A010C942A01EC
:100010000C942A010C942A010C942A010C942A01B4
:100020000C942A010C942A010C942A010C942A01A4
:100030000C942A010C942A010C942A010C942A0194
:100040000C94610B0C942A010C94D10B0C94AB0B07
:100050000C942A010C942A010C942A010C942A0174
:100060000C942A010C942A01503720494E544552D1
:10007000525550544F522054454D504F52495A41B9
:10008000444F2053656C656363696F6E61646F00F4
:10009000503520494E544552525550544F522053DA
:1000A000656C656363696F6E61646F0050342043F3
:1000B0004F4E4D555441444F522053656C65636318
:1000C000696F6E61646F00503420494E544552523E
:1000D0005550544F522053656C656363696F6E6170
:1000E000646F00503320434F4E4D555441444F529E
:1000F0002053656C656363696F6E61646F00503196
:1001000020434F4E4D555441444F522053656C652A
:100110006363696F6E61646F00503120494E5445CE
:1001200052525550544F522053656C656363696F4A
:100130006E61646F0050312050554C5341444F5212
:1001400045532053656C656363696F6E61646F002E
:100150004F4646004F4E00202D2D3E2050756C73AB
:1001600061646F00202D2D3E20536F6C7461646FAD
:10017000004F4646004F4E00436F6E6D75746164CC
:100180006F72202D2D3E20005030364132204F75A9
:100190007470757420486F6C64696E67205265676F
:1001A00069737465720000000000240027002A00B3
:1001B00000000000250028002B00000000002300A4
:1001C00026002900040404040404040402020202B8
:1001D000020203030303030301020408102040800A
:1001E0000102040810200102040810200000000889
:1001F00000020100000304070000000000000000EE
:100200002C0D670F11241FBECFEFD8E0DEBFCDBF8E
:1002100024E0A2E0B2E001C01D92A931B207E1F7EB
:1002200012E0A0E0B1E0E6E8F3E202C005900D9232
:10023000A230B107D9F711E0C1E0D1E004C02197A5
:10024000FE010E94BE0FC030D107C9F70E94230EE5
:100250000C94B6110C940000833081F028F48130A6
:1002600099F08230A9F008958730A9F08830C9F05C
:100270008430B1F4809180008F7D03C08091800034
:100280008F7780938000089584B58F7784BD08951B
:1002900084B58F7DFBCF8091B0008F778093B000C5
:1002A00008958091B0008F7DF9CF0F931F93CF9366
:1002B000DF93FC012581222309F455C0EC018681DE
:1002C0009781009731F0019709F437C090E080E002
:1002D00023C0208130E0F901E451FE4F8491F901FF
:1002E000E852FE4F0491F901EC53FE4F1491112393
:1002F00069F381110E942C01E12FF0E0EE0FFF1F46
:10030000E654FE4FA591B491EC910E2331E020E02C
:1003100009F430E0832F922F29813A812817390779
:1003200011F19A838983E889F9893097E1F0CE0148
:10033000DF91CF911F910F91099480818E3008F049
:100340008E508770806480937C0080917A008064F6
:1003500080937A0080917A0086FDFCCF80917800AE
:1003600090917900D9CFDF91CF911F910F9108958E
:10037000CF93DF93EC01888199810E945501EE8132
:10038000FF81A881B98111968D919C912081318145
:100390002817390751F091838083E889F9893097CC
:1003A00021F0CE01DF91CF910994DF91CF91089593
:1003B0001F93CF93DF93282F30E0F901E451FE4FD4
:1003C0008491F901E852FE4FD491F901EC53FE4FAC
:1003D000C491CC23A9F0162F81110E942C01EC2F7F
:1003E000F0E0EE0FFF1FE055FE4FA591B4918FB7DF
:1003F000F894EC91111108C0D095DE23DC938FBFE7
:10040000DF91CF911F910895DE2BF8CFCF93DF932B
:1004100090E0FC01E852FE4F24918C539E4FFC016A
:1004200084918823D1F090E0880F991FFC01EA5550
:10043000FE4FA591B491FC01E055FE4FC591D491BA
:1004400061110EC09FB7F8948C91E22FE0958E2336
:100450008C932881E223E8839FBFDF91CF91089599
:100460008FB7F894EC91E22BEC938FBFF6CF3FB7A8
:10047000F89480911A0290911B02A0911C02B091F5
:100480001D0226B5A89B05C02F3F19F00196A11D9E
:10049000B11D3FBFBA2FA92F982F8827BC01CD01CE
:1004A000620F711D811D911D42E0660F771F881F2D
:1004B000991F4A95D1F708958F929F92AF92BF925C
:1004C000CF92DF92EF92FF924B015C010E943702C4
:1004D0006B017C010E9437026C197D098E099F090E
:1004E000683E734081059105A8F321E0821A9108C6
:1004F000A108B10888EEC80E83E0D81EE11CF11CEB
:1005000081149104A104B10429F7FF90EF90DF90CA
:10051000CF90BF90AF909F908F9008950F931F93AF
:10052000CF93DF938C01C62F8091CE02823074F07E
:100530009091C00090649093C00061E00E94D80147
:1005400061E070E080E090E00E945C02902FF80192
:100550002FEF3FEF8191282788E0A90141705527AF
:1005600036952795452B21F041E0242740EA342792
:10057000815099F78E2F891B8C1760F33227232720
:100580003227F801EC0FF11D3083E1E0EC0FE00FB2
:10059000F12FF11D2083CE5F80911E0290911F02EA
:1005A000D0E0DC01ED91FC910280F381E02DAE0101
:1005B000B80109956AE070E080E090E00E945C027A
:1005C0008091CE0282303CF09091C00096FFFCCF2B
:1005D00060E00E94D801CE01DF91CF911F910F9171
:1005E00008950F931F93CF93DF93CDB7DEB7C05419
:1005F000D1090FB6F894DEBF0FBECDBF9091CD02EA
:1006000099838A8381E08B83DB01AA0FBB1FA20F32
:10061000B31FCB0120E0460F572F511D382F361B3B
:100620008417950770F40D911D91E1E0F0E0012B26
:1006300009F4E0E001C0EE0F3A95EAF72E2B01969F
:10064000EDCF2C8364E0CE0101960E948E02C05C47
:10065000DF4F0FB6F894DEBF0FBECDBFDF91CF9155
:100660001F910F910895AF92BF92CF92DF92EF92B8
:10067000FF920F931F93CF93DF936C017B018B014C
:10068000040F151FEB015E01AE18BF08C017D1079C
:1006900059F06991D601ED91FC910190F081E02D26
:1006A000C6010995892B79F7C501DF91CF911F917B
:1006B0000F91FF90EF90DF90CF90BF90AF90089593
:1006C000FC01538D448D252F30E0842F90E0821B58
:1006D000930B541710F0CF96089501970895FC01DD
:1006E000918D828D981761F0A28DAE0FBF2FB11D35
:1006F0005D968C91928D9F5F9F73928F90E008958D
:100700008FEF9FEF0895FC01918D828D981731F046
:10071000828DE80FF11D858D90E008958FEF9FEF9A
:100720000895FC01918D228D892F90E0805C9F4F70
:10073000821B91098F739927089580E292E00E94AD
:10074000910321E0892B09F420E0822F089580E0B5
:1007500090E0892B29F00E949D0381110C940000E8
:100760000895FC01A48DA80FB92FB11DA35ABF4F46
:100770002C91848D90E001968F739927848FA689A0
:10078000B7892C93A089B1898C91837080648C93F4
:10079000938D848D981306C00288F389E02D8081A3
:1007A0008F7D80830895EF92FF920F931F93CF93D5
:1007B000DF93EC0181E0888F9B8D8C8D98131AC09C
:1007C000E889F989808185FF15C09FB7F894EE8983
:1007D000FF896083E889F9898081837080648083E0
:1007E0009FBF81E090E0DF91CF911F910F91FF902B
:1007F000EF900895F62E0B8D10E00F5F1F4F0F73D3
:100800001127E02E8C8D8E110CC00FB607FCFACF8D
:10081000E889F989808185FFF5CFCE010E94B10377
:10082000F1CFEB8DEC0FFD2FF11DE35AFF4FF0825E
:100830009FB7F8940B8FEA89FB8980818062CFCFC4
:100840000F931F93CF93DF938C01D0E0C0E0F801AA
:10085000EC0FFD1F6491662341F080E292E00E945C
:10086000D303892B11F02196F2CFCE01DF91CF91E6
:100870001F910F910895CF93DF93EC01888D88230A
:10088000B9F0AA89BB89E889F9898C9185FD03C0F3
:10089000808186FD0DC00FB607FCF7CF8C9185FFD8
:1008A000F2CF808185FFEDCFCE010E94B103E9CF69
:1008B000DF91CF9108951F93CF93DF93FC012181A6
:1008C000261731F0162FEC0180810E94D801198380
:1008D000DF91CF911F9108958091BD029091BE024A
:1008E0008035910580F489EA93E00E94550183ECFC
:1008F00093E00E9455018DED93E00E94550187EF32
:1009000093E00C94550187E593E00E94B80189E6D5
:1009100093E00E94B8018BE793E00E94B8018DE854
:1009200093E00C94B801FB0101900020E9F73197A6
:10093000AF01461B570BDC01ED91FC910280F38166
:10094000E02D0994CF93DF930E942004EC016CE228
:1009500071E080E292E00E9493048C0F9D1FDF9172
:10096000CF9108950F931F93CF93DF93EC010E94D3
:1009700093048C016CE271E0CE010E949304800F1D
:10098000911FDF91CF911F910F9108950F931F93A6
:10099000CF93DF938C01EB0180E292E00E94B204DE
:1009A000F80180819181009739F0BE01DF91CF91EC
:1009B0001F910F910C94B204DF91CF911F910F9171
:1009C0000895EF92FF920F931F93CF93DF938C01C3
:1009D000D62FC0E0D80112968D919C911397C8171D
:1009E0001906E4F41496ED91FC91E080F18080E02A
:1009F000309759F46FE271E0C8010E94C6046D2F70
:100A0000C7010E945B04CF5FE5CFC817C1F3028026
:100A1000F381E02DE080F1808F5FF7CFDF91CF9100
:100A20001F910F91FF90EF900895CF93DF93EC010A
:100A30004B815C8129813A814217530771F588E720
:100A400091E00E9420048091090290910A02892B72
:100A5000E9F481E090E090930A028093090285E72F
:100A600091E00E94A2048C899D8918161906ACF4A5
:100A700061E08091090290910A02892B09F460E0FB
:100A8000CE014296DF91CF910C94E10410920A02BC
:100A90001092090281E791E0E4CFDF91CF910895B0
:100AA000CF93DF93EC014E855F856A857B8580E27D
:100AB00092E00E9433032B813C8189819A8128171F
:100AC0003907C1F484E691E00E94A2048C899D89D3
:100AD0001816190694F461E02B813C8189819A8172
:100AE0002817390709F460E0CE014296DF91CF91D3
:100AF0000C94E10487E591E0E7CFDF91CF91089571
:100B0000BF92CF92DF92EF92FF920F931F93CF93FA
:100B1000DF938C016B01D0E0C0E0862F8170B82E8E
:100B2000D80112968D919C911397C817D907ACF5EF
:100B30009C2F1496ED91FC91E080F18080E030973D
:100B400019F56FE271E0C8010E94C604D701129640
:100B5000ED91FC91208131816B2DB2E0CB16D10457
:100B600029F461E02115310509F060E0862F90E05D
:100B70008217930739F091838083F70180819181F7
:100B80000E945B042196CCCF891700F70280F38185
:100B9000E02DE080F1808F5FF7CFDF91CF911F9143
:100BA0000F91FF90EF90DF90CF90BF900895CF937B
:100BB000DF93EC018FB7F894409116025091170221
:100BC00060911802709119028FBF80910B02909171
:100BD0000C02092E000CAA0BBB0B481B590B6A0B0D
:100BE0007B0BE0910D02F0910E0220813181EAE051
:100BF000E29FC001E39F900D1124092E000CAA0B67
:100C0000BB0B84179507A607B70730F470E060E0C8
:100C1000CE0108960E948005E881F9812381348104
:100C20008181928128173907B9F02FB7F894809104
:100C3000160290911702A0911802B09119022FBFCD
:100C400090930C0280930B0261E070E0CE01089655
:100C5000DF91CF910C948005DF91CF910895DC0155
:100C6000ED91FC91438154812181328142175307D8
:100C700029F462E070E008960C9480050895EF92E4
:100C8000FF920F931F93CF93DF93EC017B010E81B3
:100C90001F8184E090E00E94C40F9F838E83892B84
:100CA00029F462E671E0CE010E94C604EE81FF8164
:100CB00013821282F182E0828C819D81892B71F4F2
:100CC000FD83EC838A819B8101969B838A83DF91DC
:100CD000CF911F910F91FF90EF900895D801139637
:100CE000FC93EE931297EECFEF92FF920F931F9328
:100CF000CF93DF93EC017B010E811F8184E090E0B4
:100D00000E94C40F9F838E83892B29F462E671E0D1
:100D1000CE010E94C604EE81FF8113821282F1820D
:100D2000E0828C819D81892B71F4FD83EC838A8123
:100D30009B8101969B838A83DF91CF911F910F91B5
:100D4000FF90EF900895D8011396FC93EE931297BD
:100D5000EECF0F931F93CF93DF938C01C091E502E9
:100D6000D091E60284E090E00E94C40F9093E602E6
:100D70008093E502892B31F462E671E08FED92E019
:100D80000E94C604E091E502F091E602138212820D
:100D9000118300838091E3029091E402892B91F406
:100DA000F093E402E093E3028091E1029091E20289
:100DB00001969093E2028093E102DF91CF911F911F
:100DC0000F910895FB83EA83EFCFCF93DF93EC017C
:100DD0002B813C8189819A8128173907D1F44E856E
:100DE0005F856A857B8580E292E00E94330363E938
:100DF00071E080E292E00E94930488859985892BB6
:100E0000C9F481E090E09987888784E591E00E94A9
:100E1000A2048C899D89181619068CF461E08885D6
:100E20009985892B09F460E0CE014296DF91CF913C
:100E30000C94E1041986188680E591E0E8CFDF91F3
:100E4000CF9108950F931F93CF93DF93EC018C8183
:100E50009D81009769F0FC01028113810E9460105E
:100E60001D830C838A819B8101979B838A83EFCFAB
:100E700081E0DF91CF911F910F910895CF93DF9380
:100E8000EC0188589F4F0E942207FE01E058FF4F57
:100E900011821082CE0186579F4F0E942207FE01C9
:100EA000EE56FF4F11821082CE0184569F4F0E9452
:100EB0002207CC55DF4F19821882DF91CF91089518
:100EC0000F931F93CF93DF93EC018C819D8100974B
:100ED00069F0FC01028113810E9460101D830C8364
:100EE0008A819B8101979B838A83EFCF81E0DF9189
:100EF000CF911F910F910895CF93DF93EC0144960A
:100F00000E9460071B8A1A8ACE018E960E94600793
:100F10001DA61CA6CE01885B9F4F0E946007FE01A4
:100F2000EA5BFF4F11821082CE018E599F4F0E94C3
:100F30006007C05ADF4F19821882DF91CF91089560
:100F400087EA93E00E947C0787EE92E00C943E07CC
:100F50008F929F92AF92BF92CF92DF92EF92FF92C9
:100F60000F931F93CF93DF93B12CA12C00E515E0D5
:100F7000C5E1D5E095EEE92E96E0F92E2FE2C22EDE
:100F800026E0D22E37ED832E35E0932EA114B10446
:100F9000A1F48091BD0290910202891771F08093B3
:100FA0000202813409F4BAC008F045C0823109F464
:100FB00083C0B8F4813109F46CC0AA94AB2869F4F9
:100FC000DF91CF911F910F91FF90EF90DF90CF9025
:100FD000BF90AF909F908F900895AA24A394B12CB6
:100FE000D5CF833109F487C0823339F783EE90E09F
:100FF0000E94A2040E94A007D093BA03C093B90331
:1010000061E174E08BEB93E00E947406D093D4030B
:10101000C093D30361E174E085ED93E00E94740610
:10102000D093EE03C093ED0361E174E08FEE93E0A3
:101030000E947406C2CF833409F4ACC008F48BC09C
:10104000843509F4DAC0823609F0B7CF88E690E03B
:101050000E94A2040E94A007D0926803C092670376
:101060006FE973E08FE593E00E943F06D0927A0328
:10107000C09279036FE973E081E793E00E943F0635
:1010800090929E0380929D0363EA73E085E993E06A
:10109000CCC085E391E00E94A2040E94A0071093B7
:1010A000BA030093B9031093D4030093D3031093AE
:1010B000EE030093ED0381CF89E191E00E94A20449
:1010C0000E94A007F092BA03E092B9031092B20313
:1010D0001092B103F092D403E092D3031092CC03A8
:1010E0001092CB03F092EE03E092ED031092E60330
:1010F0001092E50362CF8EEF90E00E94A2040E945E
:10110000A007D093BA03C093B903D093D403C0937C
:10111000D303D093EE03C093ED034FCF67EA71E0A2
:1011200080E292E00E94B2040E94A0071093BA03EA
:101130000093B90361E174E08BEB93E00E947406C5
:101140001093D4030093D30363E174E085ED93E03F
:101150000E947406ACCF87EC90E00E94A2040E942B
:10116000A007F092BA03E092B90361E174E08BEB5F
:1011700093E00E947406F092D403E092D30363E1FB
:1011800074E085ED93E00E947406F092EE03E09225
:10119000ED0313CF8CEA90E00E94A2040E94A00706
:1011A000D093BA03C093B90361E174E08BEB93E091
:1011B0000E94740663E174E08BEB93E00E94740676
:1011C000D093D403C093D30361E174E085ED93E041
:1011D0000E94740663E174E085ED93E00E9474065A
:1011E000D093EE03C093ED0361E174E08FEE93E0E2
:1011F0000E94740663E174E019CF80E990E00E94D8
:10120000A2040E94A007D0926803C09267036FE90E
:1012100073E08FE593E00E943F06D0927A03C0927C
:10122000790363EA73E081E793E00E943F06C5CE4D
:10123000CF92DF92EF92FF920F931F93CF93DF93A2
:10124000CDB7DEB7C058D1090FB6F894DEBF0FBED8
:10125000CDBF80911E0290911F02DC01ED91FC91A7
:101260000084F185E02D09958C010E94370201155B
:101270001105A1F41092080210920702C058DF4F26
:101280000FB6F894DEBF0FBECDBFDF91CF911F9197
:101290000F91FF90EF90DF90CF900895209107027B
:1012A0003091080202171307C9F010930802009347
:1012B00007020091DB021091DC022091DD023091E7
:1012C000DE02600F711F821F931F609303027093F1
:1012D00004028093050290930602D0CF009103028E
:1012E00010910402209105023091060260177107E7
:1012F0008207930718F210920802109207028E01DB
:101300000F5B1F4F6801F12CE12C80911E02909120
:101310001F02DC01ED91FC910084F185E02D09951F
:10132000892B81F180911E0290911F02DC01ED91C9
:10133000FC910284F385E02D0995F60181936F01FC
:10134000FFEFEF1AFF0A40E4E416F104F1F661E062
:101350008091C1029091C202892B09F460E081E181
:1013600094E00E945B0461E08091C3029091C4020A
:10137000892B09F460E083E194E00E945B040E9401
:10138000A8077CCFE114F10409F478CF3EEF3E0DBD
:10139000F8018FEF9FEF2E2F201B231788F4219148
:1013A000822728E0AC014170552796958795452BFB
:1013B00021F0A1E08A27A0EA9A27215099F7EBCFE4
:1013C000FE01EE0DFF1D27ADE0E4F0E0EC0FFD1F88
:1013D000EE0DFF1D308123273227232798278927E9
:1013E00098272817390709F0B2CF9091CD02F8015C
:1013F00080819813ACCF8181813069F0823059F0BF
:10140000833049F0853009F450C08630A1F121E0E5
:10141000803109F059C0F801448150E0542F44272D
:101420002581420F511DE091D702F091D802823000
:1014300039F0813009F052C0E091D502F091D60226
:1014400028E04115510509F455C02417150608F484
:1014500051C0D80112962C911297622F70E0762F0E
:10146000662713962C91260F372F311D240F351F19
:10147000E217F30740F1F801628170E0762F6627EA
:101480002381620F711D833009F462C0A8F5813099
:1014900009F451C0823009F05ACF2091D102309125
:1014A000D202458182E090E04DC0228130E0322FAF
:1014B00022274381240F311D4091D5025091D6023D
:1014C00024173507C0F222E0998380588A832B8342
:1014D00063E0CE0101960E948E0239CFE091D902DD
:1014E000F091DA0229E1833009F4ABCFF0E0E0E0DB
:1014F00020E0A7CF23E0E8CF853009F454C0863040
:1015000009F025CFE091D302F091D402D8011496CE
:101510002D913C9132272327322799838A837B831D
:101520006C833D832E83660F771FE60FF71F318391
:10153000208366E0CECF2091CF023091D00245814A
:1015400081E090E00E94F102892B09F000CF96CE55
:10155000A091D302B091D402258199838A83822FEE
:10156000880F8B83CB01880F991FA80FB91FFE012D
:10157000319643E050E0CF01260F372F311D3296D0
:101580006217730760F41C9111960C9111971296D3
:10159000018312834E5F5F4F6F5F7F4FF0CF642FE9
:1015A0000E948E02D1CF4091CF025091D00224816F
:1015B000358132272327322799838A837B836C8363
:1015C0003D832E83660F771F640F751FDB012D93FC
:1015D0003C93AFCF0F931F93CF93DF93EC010C811C
:1015E0001D81012B51F08C819D81FC0102811381B1
:1015F0000E9460101D830C83F4CFDF91CF911F9167
:101600000F910895CF93DF93EC0142960E94EA0A6E
:101610008A859B85009721F0DF91CF910C94601013
:10162000DF91CF910895CF93DF93EC018AE091E0B1
:1016300099838883CE01805B9F4F0E94020BCE016D
:10164000C6960E94020BCE014C960E94020BCE0160
:101650000296DF91CF910C94020BCF93DF93EC01B4
:101660000E94130BCE01DF91CF910C946010CF93A9
:10167000DF93EC0186E291E099838883CE01825565
:101680009F4F0E94EA0ACE0184569F4F0E94EA0AA9
:10169000CE0186579F4F0E94EA0ACE0188589F4F7D
:1016A0000E94EA0ACE01DF91CF910C94130BCF93E5
:1016B000DF93EC010E94370BCE01DF91CF910C94A8
:1016C00060101F920F920FB60F9211242F933F9329
:1016D0008F939F93AF93BF938091160290911702BF
:1016E000A0911802B09119023091150223E0230F46
:1016F0002D3758F50196A11DB11D20931502809339
:10170000160290931702A0931802B09319028091C9
:101710001A0290911B02A0911C02B0911D02019629
:10172000A11DB11D80931A0290931B02A0931C026D
:10173000B0931D02BF91AF919F918F913F912F91D7
:101740000F900FBE0F901F90189526E8230F02965A
:10175000A11DB11DD2CF1F920F920FB60F9211246F
:101760002F933F934F935F936F937F938F939F93A9
:10177000AF93BF93EF93FF9380E292E00E94B10397
:10178000FF91EF91BF91AF919F918F917F916F9159
:101790005F914F913F912F910F900FBE0F901F902F
:1017A00018951F920F920FB60F9211242F938F93BB
:1017B0009F93EF93FF93E0913002F091310280818B
:1017C000E0913602F091370282FD1BC0908180913A
:1017D00039028F5F8F7320913A02821741F0E091B6
:1017E0003902F0E0E05EFD4F958F80933902FF9162
:1017F000EF919F918F912F910F900FBE0F901F909F
:1018000018958081F4CF0F931F93CF93DF93EC0152
:1018100088819981009759F02A813B8126173707E3
:1018200030F081E0DF91CF911F910F9108958B01EE
:101830006F5F7F4F0E94E910009759F0998388836A
:101840001B830A832C813D81232B59F7FC011082D5
:10185000E8CF80E0E7CFCF93DF93EC011B861A86B9
:101860001D861C861F861E8670E060E00A960E9418
:10187000030C2A853B85811117C02115310519F00C
:10188000C9010E9460101B861A861F861E861D864F
:101890001C861D8A1C8A1F8A1E8A198E188E1B8A16
:1018A0001A8ADF91CF9108951F861E866EE271E03D
:1018B000C9010E94AF11EDCFEF92FF920F931F93DA
:1018C000CF93DF93EC017B01FB0101900020E9F74E
:1018D00031978F01061B170BB8010E94030C28815A
:1018E0003981811113C02115310519F0C9010E94F8
:1018F0006010198218821D821C821B821A82DF915D
:10190000CF911F910F91FF90EF9008951D830C834D
:10191000B701C901DF91CF911F910F91FF90EF9017
:101920000C94AF11EF92FF921F93CF93DF93EC01D2
:101930002AE031E0FC0121933193CF010E942B0C6E
:10194000CE014C960E942B0CCE01C6960E942B0C09
:101950007E01F0E5EF0EF11CC7010E942B0C60E048
:1019600083E00E94060260E08AE00E94060260E0D6
:101970008BE00E94060260E08DE00E94060261E0BA
:1019800084E00E94060261E087E00E94060283E094
:101990008A831C821B821E821D8211E01F8319868E
:1019A000188663EC71E0CE010C960E945C0C1B8AD9
:1019B0001A8A8AE08C8F1E8E1D8E18A21F8E19A384
:1019C0001BA21AA26DEC71E0CE0186960E945C0CFF
:1019D0001DA61CA68BE08EAB81E090E098AF8FAB8C
:1019E0009AAF89AF1BAF1DAE1CAE67ED71E0CE01A3
:1019F000805C9F4F0E945C0CFE01EA5BFF4F1182EE
:101A000010828DE0F7018083319611821082329628
:101A100011821082329610833196118210826CEE00
:101A200071E0CE01865A9F4F0E945C0CFE01E05A85
:101A3000FF4F118210823A9684E0808331961082A3
:101A4000319687E08083C359DF4F1882DF91CF91B1
:101A50001F91FF90EF900895E0E2F2E0138212826E
:101A600088EE93E0A0E0B0E084839583A683B783FB
:101A700084E191E09183808385EC90E09587848771
:101A800084EC90E09787868780EC90E0918B808B48
:101A900081EC90E0938B828B82EC90E0958B848B31
:101AA00086EC90E0978B868B118E128E138E148E9F
:101AB00087EA93E00E94920C87EE92E00E94920CDB
:101AC00086E291E09093E8028093E7021092560339
:101AD00010925503109262031092610310926403F6
:101AE00010926303109266031092650310926003D4
:101AF00010925F0310927403109273031092760396
:101B0000109275031092780310927703109272036B
:101B1000109271031092860310928503109288032D
:101B20001092870310928A03109289031092840303
:101B300010928303109298031092970310929A03C5
:101B40001092990310929C0310929B03109296039B
:101B50001092950389EE92E0909358038093570377
:101B600085EC92E090935E0380935D0310925A039C
:101B70001092590383E093E090936A038093690382
:101B800087EC92E09093700380936F0310926C0344
:101B900010926B038DE193E090937C0380937B0321
:101BA00089EC92E0909382038093810387E393E032
:101BB00090938E0380938D038BEC92E0909394032B
:101BC000809393031092900310928F0381E593E02A
:101BD0009093A00380939F0381EC92E09093A203E3
:101BE0008093A10383E593E09093A4038093A303E0
:101BF00083EC92E09093A6038093A50383E090E0AA
:101C00009093C0028093BF02EFEDF2E01382128244
:101C1000158214821782168211821082EDECF2E096
:101C20001382128215821482178216821186108600
:101C300013861286158614861182108216861786E0
:101C4000108A118A0895789484B5826084BD84B521
:101C5000816084BD85B5826085BD85B5816085BDA7
:101C600080916E00816080936E001092810080915F
:101C700081008260809381008091810081608093E7
:101C80008100809180008160809380008091B1000C
:101C900084608093B1008091B00081608093B00037
:101CA00080917A00846080937A0080917A008260CB
:101CB00080937A0080917A00816080937A0080918D
:101CC0007A00806880937A001092C10080E292E0EE
:101CD00090931F0280931E0281EC92E09093D002B9
:101CE0008093CF0282E090E09093D6028093D50259
:101CF00025EC32E03093D2022093D10224E030E090
:101D00003093D8022093D7022DEB32E03093D402E7
:101D10002093D3029093DA028093D90281E08093DA
:101D2000CD028CE08093CE02E0913002F09131023E
:101D300082E08083E0912C02F0912D021082E091EC
:101D40002E02F0912F0280E1808310923802E09100
:101D50003402F091350286E08083E0913202F09106
:101D60003302808180618083E0913202F0913302FE
:101D7000808188608083E0913202F091330280811B
:101D800080688083E0913202F091330280818F7D00
:101D900080838091C20086608093C20061E08CE005
:101DA0000E94060260E08CE00E94D8018FE291E080
:101DB000A0E0B0E08093DB029093DC02A093DD0210
:101DC000B093DE0281E190E09093BE028093BD0269
:101DD0000E94A8078CE694E00E94A90688E199E099
:101DE0000E94A90688E891E00E94A20404E610E09F
:101DF00080E0E82E80E0F82E2FB7F894809116024C
:101E000090911702A0911802B09119022FBF409132
:101E10001102509112026091130270911402841BFE
:101E2000950BA60BB70B0A97A105B10508F443C0A3
:101E30002FB7F8948091160290911702A091180282
:101E4000B09119022FBF8093110290931202A093B8
:101E50001302B093140280910F0290911002019628
:101E6000B8010E94AA0F9093100280930F02C0E065
:101E70008091E1029091E202C8171906E4F4E09122
:101E8000E302F091E402C080D18080E0309751F409
:101E90006FE271E08FED92E00E94C604F6010995B1
:101EA000CF5FE6CFC817D1F30280F381E02DC08069
:101EB000D1808F5FF7CFE114F10409F49DCF0E9428
:101EC0009D03882309F498CF0E94000095CF8FEDE1
:101ED00092E00E94EA0A87EE92E00E94370B87EABE
:101EE00093E00C94130B2F923F924F925F926F925C
:101EF0007F928F929F92AF92BF92CF92DF92EF929A
:101F0000FF920F931F93CF93DF93CDB7DEB7CA1B1A
:101F1000DB0B0FB6F894DEBF0FBECDBF09942A8845
:101F2000398848885F846E847D848C849B84AA84ED
:101F3000B984C884DF80EE80FD800C811B81AA817A
:101F4000B981CE0FD11D0FB6F894DEBF0FBECDBF45
:101F5000ED010895AA1BBB1B51E107C0AA1FBB1FBF
:101F6000A617B70710F0A61BB70B881F991F5A9525
:101F7000A9F780959095BC01CD010895EE0FFF1F44
:101F80000590F491E02D09940F931F93CF93DF9365
:101F90008230910510F482E090E0E0911704F09116
:101FA000180430E020E0B0E0A0E0309799F421156B
:101FB000310509F44AC0281B390B24303105D8F506
:101FC0008A819B816115710589F1FB01938382836D
:101FD000FE0111C0408151810281138148175907C8
:101FE000E0F04817590799F4109761F012960C9396
:101FF000129713961C933296CF01DF91CF911F91C8
:102000000F9108950093170410931804F4CF21152D
:10201000310551F04217530738F0A901DB019A014D
:10202000BD01DF01F801C1CFEF01F9CF9093180492
:1020300080931704CDCFFE01E20FF31F819391939C
:102040002250310939832883D7CF2091150430914C
:102050001604232B41F420910201309103013093A7
:1020600016042093150420910001309101012115DF
:10207000310541F42DB73EB740910401509105015F
:10208000241B350BE0911504F0911604E217F307B9
:10209000A0F42E1B3F0B2817390778F0AC014E5FD8
:1020A0005F4F2417350748F04E0F5F1F50931604FB
:1020B00040931504819391939FCFF0E0E0E09CCF93
:1020C000CF93DF930097E9F0FC01329713821282DD
:1020D000A0911704B0911804ED0130E020E01097B2
:1020E000A1F420813181820F931F2091150430913A
:1020F00016042817390709F061C0F0931604E0931D
:102100001504DF91CF910895EA01CE17DF07E8F5B6
:102110004A815B819E0141155105B1F7E901FB83BD
:10212000EA8349915991C40FD51FEC17FD0761F45B
:10213000808191810296840F951FE901998388839C
:10214000828193819B838A83F0E0E0E012968D91F7
:102150009C9113970097B9F52D913C911197CD0162
:102160000296820F931F20911504309116042817B0
:10217000390739F6309751F5109218041092170468
:10218000B0931604A0931504BCCFD383C2834081BF
:102190005181840F951FC817D90761F44E5F5F4FB7
:1021A00088819981480F591F518340838A819B817F
:1021B000938382832115310509F0B0CFF093180481
:1021C000E09317049ECFFD01DC01C0CF1382128281
:1021D000D7CFB0E0A0E0EFEEF0E10C94750F8C01EA
:1021E000009751F4CB010E94C40F8C01C801CDB7F8
:1021F000DEB7E0E10C94910FFC01E60FF71F9C01A4
:1022000022503109E217F30708F49DC0D901CD919E
:10221000DC911197C617D70798F0C530D10530F378
:10222000CE0104978617970708F3C61BD70B229792
:10223000C193D1936D937C93CF010E946010D6CF50
:102240005B01AC1ABD0A4C018C0E9D1EA0911704B7
:10225000B0911804512C412CF12CE12C109731F540
:1022600080911504909116048815990509F05CC0B9
:102270004616570608F058C0809100019091010160
:10228000009741F48DB79EB740910401509105012C
:10229000841B950BE817F90708F055C0F093160456
:1022A000E0931504F90171836083A0CF8D919C9117
:1022B000119712966C90129713967C901397A8150D
:1022C000B90559F56C0142E0C40ED11CCA14DB04F7
:1022D00020F1AC014A195B09DA011296159780F0DA
:1022E0006282738251834083D9016D937C93E114A0
:1022F000F10471F0D7011396FC93EE93129776CF09
:1023000022968C0F9D1FF90191838083F301EFCFFB
:10231000F0931804E093170469CF4816590608F49F
:102320002C017D01D3019ACFCB010E94C40F7C0107
:10233000009749F0AE01B8010E94A611C8010E94A1
:102340006010870153CF10E000E050CFFB01DC01AB
:1023500002C001900D9241505040D8F70895FB0102
:10236000DC0101900D920020E1F7089511E0C1E039
:10237000D1E004C0FE010E94BE0F2196C230D107F9
:06238000C9F7F894FFCF3D
:1023860000001904800000000000130B2D0B7C07D1
:1023960000000000D303330360033B0491036F0383
:1023A600830300000000370B570B3E070D0A005150
:1023B600554555453A2063616E2774207065656BF7
:1023C600206974656D2066726F6D2071756575651F
:1023D6003A20717565756520697320656D7074792D
:1023E6002E0051554555453A20696E7375666669E6
:1023F6006369656E74206D656D6F727920746F20E8
:102406006372656174652061206E6577206E6F6406
:10241600652E00203A20496E746572727570746F6D
:1024260072202D2D3E200050342050554C534144EF
:102436004F5245532053656C656363696F6E6164E3
:102446006F2000424F54EFBFBD4E203100424F5423
:10245600EFBFBD4E20320050756C7361646F722001
:102466004F70746F636F706C61646F0053656E7349
:102476006F72206465206D6F76696D69656E746F25
:02248600000054
:00000001FF
