:100000000C9470000C9498000C9498000C94980038
:100010000C9498000C9498000C9498000C94980000
:100020000C9498000C9498000C9498000C949800F0
:100030000C9498000C9498000C9498000C949800E0
:100040000C940F060C9498000C947F060C9459069F
:100050000C9498000C9498000C9498000C949800C0
:100060000C9498000C9498000000000023002600D7
:10007000290050303520436F6D756E696361636987
:100080006F6E6573204D6F64427573000000000051
:10009000240027002A0000000000250028002B0073
:1000A000040404040404040402020202020203031E
:1000B0000303030301020408102040800102040826
:1000C00010200102040810200000000800020100B6
:1000D00000030407000000000000000069076E092B
:1000E00011241FBECFEFD8E0DEBFCDBF22E0A8EBCA
:1000F000B1E001C01D92AC3DB207E1F711E0A0E014
:10010000B1E0E8EFF7E102C005900D92A83BB1071E
:10011000D9F710E0CFE6D0E004C02197FE010E949D
:10012000F709CE36D107C9F70E9432080C94EF0BBD
:100130000C940000CF92DF92EF92FF92CF93DF9367
:10014000EC016A017B01E889F98982E08083C114AE
:1001500081EED806E104F104A1F060E079E08DE3DE
:1001600090E0A70196010E94D5092150310941096B
:1001700051095695479537952795211580E1380700
:1001800098F0E889F989108260E874E88EE190E0DF
:10019000A70196010E94D509215031094109510951
:1001A0005695479537952795EC85FD853083EE85E7
:1001B000FF852083188EEC89FD8986E08083EA899B
:1001C000FB89808180618083EA89FB8980818860E6
:1001D0008083EA89FB89808180688083EA89FB8942
:1001E00080818F7D8083DF91CF91FF90EF90DF90B2
:1001F000CF900895833081F028F4813099F08230D7
:10020000A9F008958730A9F08830C9F08430B1F49E
:10021000809180008F7D03C0809180008F778093D4
:100220008000089584B58F7784BD089584B58F7D4F
:10023000FBCF8091B0008F778093B00008958091BC
:10024000B0008F7DF9CF1F93CF93DF93282F30E03D
:10025000F901E853FF4F8491F901EC54FF4FD49119
:10026000F901E056FF4FC491CC23A9F0162F81115C
:100270000E94FA00EC2FF0E0EE0FFF1FEA56FF4F4E
:10028000A591B4918FB7F894EC91111108C0D09555
:10029000DE23DC938FBFDF91CF911F910895DE2B7A
:1002A000F8CF3FB7F8948091CD019091CE01A09105
:1002B000CF01B091D00126B5A89B05C02F3F19F002
:1002C0000196A11DB11D3FBFBA2FA92F982F8827D6
:1002D000BC01CD01620F711D811D911D42E0660FB1
:1002E000771F881F991F4A95D1F708958F929F9283
:1002F000AF92BF92CF92DF92EF92FF924B015C01DF
:100300000E9451016B017C010E9451016C197D0911
:100310008E099F09683E734081059105A8F321E08D
:10032000821A9108A108B10888EEC80E83E0D81E91
:10033000E11CF11C81149104A104B10429F7FF9080
:10034000EF90DF90CF90BF90AF909F908F900895E7
:100350000F931F93CF93DF938C01C62F809171026F
:10036000823074F09091C00090649093C00061E07E
:100370000E94230161E070E080E090E00E9476013D
:10038000902FF8012FEF3FEF8191282788E0A901F6
:100390004170552736952795452B21F041E02427BC
:1003A00040EA3427815099F78E2F891B8C1760F310
:1003B000322723273227F801EC0FF11D3083E1E0CB
:1003C000EC0FE00FF12FF11D2083CE5F8091D10162
:1003D0009091D201D0E0DC01ED91FC910280F3819B
:1003E000E02DAE01B80109956AE070E080E090E090
:1003F0000E9476018091710282303CF09091C000A1
:1004000096FFFCCF60E00E942301CE01DF91CF91E7
:100410001F910F910895E6E8F2E08AE995E0918B4B
:10042000808B93A782A71092CB021092CA020895E4
:10043000AF92BF92CF92DF92EF92FF920F931F93F2
:10044000CF93DF936C017B018B01040F151FEB0130
:100450005E01AE18BF08C017D10759F06991D601E7
:10046000ED91FC910190F081E02DC6010995892B59
:1004700079F7C501DF91CF911F910F91FF90EF9018
:10048000DF90CF90BF90AF900895FC01538D448DC5
:10049000252F30E0842F90E0821B930B541710F02F
:1004A000CF96089501970895FC01918D828D98173C
:1004B00061F0A28DAE0FBF2FB11D5D968C91928D14
:1004C0009F5F9F73928F90E008958FEF9FEF089545
:1004D000FC01918D828D981731F0828DE80FF11D0E
:1004E000858D90E008958FEF9FEF0895FC01918D29
:1004F000228D892F90E0805C9F4F821B91098F7322
:100500009927089583ED91E00E94760221E0892BDE
:1005100009F420E0822F089580E090E0892B29F0F3
:100520000E94820281110C9400000895FC01A48DA8
:10053000A80FB92FB11DA35ABF4F2C91848D90E005
:1005400001968F739927848FA689B7892C93A089E8
:10055000B1898C91837080648C93938D848D981372
:1005600006C00288F389E02D80818F7D8083089505
:10057000EF92FF920F931F93CF93DF93EC0181E0F3
:10058000888F9B8D8C8D98131AC0E889F98980819A
:1005900085FF15C09FB7F894EE89FF896083E889CD
:1005A000F98980818370806480839FBF81E090E0BF
:1005B000DF91CF911F910F91FF90EF900895F62E4C
:1005C0000B8D10E00F5F1F4F0F731127E02E8C8DE6
:1005D0008E110CC00FB607FCFACFE889F98980812B
:1005E00085FFF5CFCE010E949602F1CFEB8DEC0F87
:1005F000FD2FF11DE35AFF4FF0829FB7F8940B8F48
:10060000EA89FB8980818062CFCFCF93DF93EC01B1
:10061000888D8823B9F0AA89BB89E889F9898C91EA
:1006200085FD03C0808186FD0DC00FB607FCF7CFA6
:100630008C9185FFF2CF808185FFEDCFCE010E94A6
:100640009602E9CFDF91CF9108950F931F93CF9337
:10065000DF93EC018E819F81009731F0019709F4BF
:1006600037C090E080E023C0288130E0F901E853F2
:10067000FF4F8491F901EC54FF4F0491F901E056CA
:10068000FF4F1491112369F381110E94FA00E12FA9
:10069000F0E0EE0FFF1FE859FF4FA591B491EC91E8
:1006A0000E2331E020E009F430E0832F922F2981DE
:1006B0003A812817390711F19A838983E889F989E2
:1006C0003097E1F0CE01DF91CF911F910F91099406
:1006D00088818E3008F08E508770806480937C0013
:1006E00080917A00806480937A0080917A0086FD00
:1006F000FCCF8091780090917900D9CFDF91CF9194
:100700001F910F91089580918B02882321F086E834
:1007100092E00E9425038091A502882321F080EABF
:1007200092E00E9425038091BF02882321F08AEB8A
:1007300092E00C9425030895CF92DF92EF92FF92FE
:100740000F931F93CF93DF93CDB7DEB7C854D10972
:100750000FB6F894DEBF0FBECDBF8091D10190914E
:10076000D201DC01ED91FC910084F185E02D099529
:100770008C010E94510101151105A1F41092BD01D7
:100780001092BC01C85BDF4F0FB6F894DEBF0FBEFE
:10079000CDBFDF91CF911F910F91FF90EF90DF9030
:1007A000CF9008952091BC013091BD01021713072D
:1007B000C9F01093BD010093BC0100917602109125
:1007C00077022091780230917902600F711F821FA9
:1007D000931F6093B8017093B9018093BA0190930D
:1007E000BB01D0CF0091B8011091B9012091BA019D
:1007F0003091BB01601771078207930718F21092BE
:10080000BD011092BC01FE0131967F016F0110E025
:1008100000E08091D1019091D201DC01ED91FC9139
:100820000084F185E02D0995892BA1F08091D101FB
:100830009091D201DC01ED91FC910284F385E02DD1
:100840000995F60181936F010F5F1F4F0034110569
:1008500001F798CF0115110509F494CF3EEF300F41
:10086000F7018FEF9FEF2E2F2E19231788F4219178
:10087000822728E0AC014170552796958795452B36
:1008800021F041E0842740EA9427215099F7EBCFEB
:10089000EFEFFFEFEC0FFD1FE00FF11F2081FE01D6
:1008A000E00FF11F3081232732272327982789273C
:1008B00098272817390709F065CF40917002898180
:1008C000481360CF9A81913061F0923051F09330AB
:1008D00041F09530C1F0963009F454CF81E0903169
:1008E00009F483E022964FAF2297905823969FAF4A
:1008F000239724968FAF249763E0CE018F5B9F4FA1
:100900000E94A8013FCF0B8110E0102F00278C819F
:10091000080F111D209174023091750282E00217B8
:10092000130700F7E0917202F09173022D813E816E
:1009300032272327322722964FAF229723969FAF45
:10094000239724961FAF249725960FAF25972696B9
:100950003FAF269727962FAF2797C801880F991F7B
:10096000E80FF91F3183208366E0CE018F5B9F4F34
:100970000E94A801E0917C02F0917D02309709F479
:1009800001CFC8010995FECECF93009721F00197C2
:1009900091F0CF910895C1E08091BE019091BF0187
:1009A000892B09F4C0E06C2F8091D4020E942301AE
:1009B000C093D502EECFC1E08091C0019091C101FA
:1009C000892B09F4C0E06C2F8091D6020E9423018C
:1009D000C093D702DECFFB0101900020E9F73197E9
:1009E000AF01461B570BDC01ED91FC910280F381B6
:1009F000E02D09948F929F92AF92BF920F931F9315
:100A0000CF93DF93CDB7DEB7A1970FB6F894DEBFD3
:100A10000FBECDBF19A2423008F44AE08E010F5D2F
:100A20001F4F842E912CB12CA12CA50194010E9462
:100A3000D509E62FB901CA01EA3004F5E05DD80115
:100A4000EE938D01232B242B252B79F790E080E06A
:100A5000109729F0BD0183ED91E00E94EB04A1966F
:100A60000FB6F894DEBF0FBECDBFDF91CF911F91BF
:100A70000F91BF90AF909F908F900895E95CDFCF6A
:100A80000F931F93CF93DF93EC010E94EB048C0133
:100A900068E171E0CE010E94EB04800F911FDF91AD
:100AA000CF911F910F9108950F931F93CF93DF93D1
:100AB0008C01C0918402D091850284E090E00E9474
:100AC000FD099093850280938402892B81F46BE168
:100AD00071E083ED91E00E94400580917E0290914B
:100AE0007F02009721F06BE171E00E944005E091E8
:100AF0008402F09185021382128211830083809117
:100B0000820290918302892B91F4F0938302E09307
:100B100082028091800290918102019690938102DD
:100B200080938002DF91CF911F910F910895FB83F5
:100B3000EA83EFCFCF93DF93EC012B813C81898156
:100B40009A812817390709F067C04E855F856A8545
:100B50007B8583ED91E00E9418026CE471E083EDE7
:100B600091E00E94EB04888190918602891329C04C
:100B70006091BE017091BF0190E080E04AE00E9468
:100B8000FA0468E171E083ED91E00E94EB0480914A
:100B9000BE019091BF01892B79F48FEF90E0909383
:100BA000BF018093BE01E0917C02F0917D0290E054
:100BB00080E0DF91CF9109941092BF011092BE01A5
:100BC000F2CF9091A002891327C06091C00170916B
:100BD000C10190E080E04AE00E94FA0468E171E01F
:100BE00083ED91E00E94EB048091C0019091C101DE
:100BF000892B69F48FEF90E09093C1018093C0013D
:100C0000E0917C02F0917D0281E090E0D2CF1092E1
:100C1000C1011092C001F4CFDF91CF9108951F92CE
:100C20000F920FB60F9211242F933F938F939F93A0
:100C3000AF93BF938091C9019091CA01A091CB015C
:100C4000B091CC013091C80123E0230F2D3758F526
:100C50000196A11DB11D2093C8018093C9019093F5
:100C6000CA01A093CB01B093CC018091CD019091AA
:100C7000CE01A091CF01B091D0010196A11DB11D6F
:100C80008093CD019093CE01A093CF01B093D0017A
:100C9000BF91AF919F918F913F912F910F900FBE78
:100CA0000F901F90189526E8230F0296A11DB11DE5
:100CB000D2CF1F920F920FB60F9211242F933F9312
:100CC0004F935F936F937F938F939F93AF93BF9354
:100CD000EF93FF9383ED91E00E949602FF91EF91D5
:100CE000BF91AF919F918F917F916F915F914F9144
:100CF0003F912F910F900FBE0F901F9018951F924C
:100D00000F920FB60F9211242F938F939F93EF930F
:100D1000FF93E091E301F091E4018081E091E9012A
:100D2000F091EA0182FD1BC090818091EC018F5F00
:100D30008F732091ED01821741F0E091EC01F0E01A
:100D4000ED52FE4F958F8093EC01FF91EF919F91B3
:100D50008F912F910F900FBE0F901F90189580814B
:100D6000F4CFCF93DF9390E0FC01EC54FF4F24913C
:100D700080569F4FFC0184918823D1F090E0880F2A
:100D8000991FFC01E457FF4FA591B491FC01EA566D
:100D9000FF4FC591D49161110EC09FB7F8948C910B
:100DA000E22FE0958E238C932881E223E8839FBF76
:100DB000DF91CF9108958FB7F894EC91E22BEC93EB
:100DC0008FBFF6CF0F931F93CF93DF93EC018881F2
:100DD0009981009759F02A813B812617370730F017
:100DE00081E0DF91CF911F910F9108958B016F5F8B
:100DF0007F4F0E94220B009759F0998388831B83B1
:100E00000A832C813D81232B59F7FC011082E8CF06
:100E100080E0E7CFCF93DF93EC01198218821B8229
:100E20001A821D821C8270E060E00E94E206288126
:100E3000398181110FC02115310519F0C9010E94B6
:100E4000990A198218821D821C821B821A82DF91E4
:100E5000CF9108951D821C826AE171E0C901DF9182
:100E6000CF910C94E80BEF92FF920F931F93CF93C7
:100E7000DF93EC017B01FB0101900020E9F7319742
:100E80008F01061B170BB8010E94E20628813981E9
:100E9000811113C02115310519F0C9010E94990A69
:100EA000198218821D821C821B821A82DF91CF91C7
:100EB0001F910F91FF90EF9008951D830C83B70150
:100EC000C901DF91CF911F910F91FF90EF900C948A
:100ED000E80B1F93CF93DF93E3EDF1E013821282CF
:100EE00088EE93E0A0E0B0E084839583A683B78387
:100EF0008AE091E09183808385EC90E095878487F8
:100F000084EC90E09787868780EC90E0918B808BD3
:100F100081EC90E0938B828B82EC90E0958B848BBC
:100F200086EC90E0978B868B118E128E138E148E2A
:100F300080E992E00E940A07C6E8D2E01D8A1C8A76
:100F40001F8A1E8A198E188E1B8A1A8A8AEA92E0D4
:100F50000E940A071FA61EA619AA18AA1BAA1AAA47
:100F60001DA61CA684EC92E00E940A071092CF02F4
:100F70001092CE021092D1021092D0021092D3029F
:100F80001092D2021092CD021092CC0260E083E067
:100F90000E94B10660E08AE00E94B10660E08BE04A
:100FA0000E94B10661E084E00E94B10661E087E042
:100FB0000E94B10683E088831A8219821C821B82F8
:100FC00011E01D831F821E8260E671E080E992E0DD
:100FD0000E9433078AE08A8F1C8E1B8E1E8E1D8E08
:100FE0001F8F19A218A268E671E08AEA92E00E94B7
:100FF00033078BE08CAB81E090E09EAB8DAB98AF7C
:101000008FAB19AF1BAE1AAE60E771E084EC92E0D3
:101010000E94330784E08093D4021092D50287E0C7
:101020008093D6021092D702EEE7F2E0138212828A
:10103000158214821782168211821082E0E7F2E094
:1010400013821282158214821182108216821782F4
:10105000108611861386128615861486DF91CF912D
:101060001F910895789484B5826084BD84B58160B1
:1010700084BD85B5826085BD85B5816085BD809163
:101080006E00816080936E001092810080918100DB
:1010900082608093810080918100816080938100D3
:1010A000809180008160809380008091B100846095
:1010B0008093B1008091B00081608093B0008091F6
:1010C0007A00846080937A0080917A0082608093B5
:1010D0007A0080917A00816080937A0080917A0012
:1010E000806880937A001092C10083ED91E0909324
:1010F000D2018093D1018EEB91E0909373028093A3
:10110000720282E090E0909375028093740281E015
:10111000809370021092710240E052EC61E070E046
:1011200083ED91E00E949A008091C20086608093D6
:10113000C2008FE291E0A0E0B0E08093760290934D
:101140007702A0937802B093790284EC94E09093B4
:101150007D0280937C0240E052EC61E070E083ED20
:1011600091E00E949A0083E893E00E9454058CE984
:1011700093E00E9454058BE092E00E94540502E740
:1011800010E0F8016491662341F083ED91E00E9444
:10119000B8020F5F1F4F892BA1F768E171E083ED63
:1011A00091E00E94EB0404E610E080E0E82E80E08D
:1011B000F82E2FB7F8948091C9019091CA01A0919F
:1011C000CB01B091CC012FBF4091C4015091C5011A
:1011D0006091C6017091C701841B950BA60BB70BDC
:1011E0000A97A105B10508F44DC02FB7F894809176
:1011F000C9019091CA01A091CB01B091CC012FBF40
:101200008093C4019093C501A093C601B093C70118
:101210008091C2019091C3010196B8010E94C10959
:101220009093C3018093C201C0E0809180029091AD
:101230008102C817190634F5E0918202F091830209
:10124000C080D18080E03097A1F465E871E083ED43
:1012500091E00E94400580917E0290917F0200976C
:1012600021F065E871E00E944005F6010995CF5F25
:10127000DCCFC817D1F30280F381E02DC080D1808C
:101280008F5FF7CFE114F10409F493CF0E9482023B
:10129000882309F48ECF0E9400008BCFFC0180814F
:1012A0009181009711F00C94990A08950F931F9360
:1012B000CF93DF93EC010C811D81012B51F08C81C8
:1012C0009D81FC01028113810E94990A1D830C8378
:1012D000F4CFDF91CF911F910F9108958EE792E0A7
:1012E0000E9456098CEC92E00E94560984EC92E030
:1012F0000E944E0982EB92E00E9456098AEA92E02F
:101300000E944E0988E992E00E94560980E992E025
:101310000C944E092F923F924F925F926F927F9260
:101320008F929F92AF92BF92CF92DF92EF92FF92F5
:101330000F931F93CF93DF93CDB7DEB7CA1BDB0BA1
:101340000FB6F894DEBF0FBECDBF09942A88398846
:1013500048885F846E847D848C849B84AA84B9844D
:10136000C884DF80EE80FD800C811B81AA81B98159
:10137000CE0FD11D0FB6F894DEBF0FBECDBFED016D
:101380000895AA1BBB1B51E107C0AA1FBB1FA617CC
:10139000B70710F0A61BB70B881F991F5A95A9F71E
:1013A00080959095BC01CD010895A1E21A2EAA1B4B
:1013B000BB1BFD010DC0AA1FBB1FEE1FFF1FA21705
:1013C000B307E407F50720F0A21BB30BE40BF50B02
:1013D000661F771F881F991F1A9469F7609570958B
:1013E000809590959B01AC01BD01CF010895EE0F52
:1013F000FF1F0590F491E02D09940F931F93CF9355
:10140000DF938230910510F482E090E0E091DA02FF
:10141000F091DB0230E020E0B0E0A0E0309799F4FA
:101420002115310509F44AC0281B390B2430310538
:10143000D8F58A819B816115710589F1FB01938340
:101440008283FE0111C040815181028113814817BE
:101450005907E0F04817590799F4109761F0129670
:101460000C93129713961C933296CF01DF91CF9174
:101470001F910F9108950093DA021093DB02F4CFCD
:101480002115310551F04217530738F0A901DB014E
:101490009A01BD01DF01F801C1CFEF01F9CF9093AF
:1014A000DB028093DA02CDCFFE01E20FF31F8193BE
:1014B00091932250310939832883D7CF2091D802C4
:1014C0003091D902232B41F4209102013091030184
:1014D0003093D9022093D80220910001309101016C
:1014E0002115310541F42DB73EB7409104015091CB
:1014F0000501241B350BE091D802F091D902E217C7
:10150000F307A0F42E1B3F0B2817390778F0AC0126
:101510004E5F5F4F2417350748F04E0F5F1F509303
:10152000D9024093D802819391939FCFF0E0E0E0FD
:101530009CCFCF93DF930097E9F0FC0132971382A1
:101540001282A091DA02B091DB02ED0130E020E0DE
:101550001097A1F420813181820F931F2091D8022E
:101560003091D9022817390709F061C0F093D902E8
:10157000E093D802DF91CF910895EA01CE17DF07FB
:10158000E8F54A815B819E0141155105B1F7E901FA
:10159000FB83EA8349915991C40FD51FEC17FD07CE
:1015A00061F4808191810296840F951FE9019983EE
:1015B0008883828193819B838A83F0E0E0E01296A6
:1015C0008D919C9113970097B9F52D913C911197AE
:1015D000CD010296820F931F2091D8023091D9023B
:1015E0002817390739F6309751F51092DB0210921F
:1015F000DA02B093D902A093D802BCCFD383C283BE
:1016000040815181840F951FC817D90761F44E5F3F
:101610005F4F88819981480F591F518340838A8188
:101620009B81938382832115310509F0B0CFF0931C
:10163000DB02E093DA029ECFFD01DC01C0CF138212
:101640001282D7CFB0E0A0E0E8E2FBE00C948C0976
:101650008C01009751F4CB010E94FD098C01C80157
:10166000CDB7DEB7E0E10C94A809FC01E60FF71F47
:101670009C0122503109E217F30708F49DC0D901FB
:10168000CD91DC911197C617D70798F0C530D105D9
:1016900030F3CE0104978617970708F3C61BD70BC4
:1016A0002297C193D1936D937C93CF010E94990AA5
:1016B000D6CF5B01AC1ABD0A4C018C0E9D1EA091C9
:1016C000DA02B091DB02512C412CF12CE12C109765
:1016D00031F58091D8029091D9028815990509F0C9
:1016E0005CC04616570608F058C0809100019091E2
:1016F0000101009741F48DB79EB7409104015091CC
:101700000501841B950BE817F90708F055C0F09305
:10171000D902E093D802F90171836083A0CF8D9143
:101720009C91119712966C90129713967C90139738
:10173000A815B90559F56C0142E0C40ED11CCA14B4
:10174000DB0420F1AC014A195B09DA011296159706
:1017500080F06282738251834083D9016D937C93C0
:10176000E114F10471F0D7011396FC93EE931297F4
:1017700076CF22968C0F9D1FF90191838083F30110
:10178000EFCFF093DB02E093DA0269CF48165906F7
:1017900008F42C017D01D3019ACFCB010E94FD09F1
:1017A0007C01009749F0AE01B8010E94DF0BC8012F
:1017B0000E94990A870153CF10E000E050CFFB014F
:1017C000DC0102C001900D9241505040D8F70895BD
:1017D000FB01DC0101900D920020E1F7089510E07B
:1017E000CFE6D0E004C0FE010E94F7092196C03781
:0817F000D107C9F7F894FFCFFF
:1017F8000000DC02800000000000B8021802450268
:1018080005037602540268020D0A005155455545F4
:101818003A20696E73756666696369656E74206DD2
:10182800656D6F727920746F2063726561746520CD
:1018380061206E6577206E6F64652E00203A20491E
:101848006E746572727570746F72202D2D3E200053
:10185800424F54D34E203100424F54D34E203200D1
:1018680050756C7361646F72204F70746F636F7022
:101878006C61646F0051554555453A2063616E2788
:1018880074207065656B206974656D2066726F6D74
:101898002071756575653A20717565756520697380
:0818A80020656D7074792E00BB
:00000001FF
