:100000000C9467000C948F000C948F000C948F005C
:100010000C948F000C948F000C948F000C948F0024
:100020000C948F000C948F000C948F000C948F0014
:100030000C948F000C948F000C948F000C948F0004
:100040000C94BB030C948F000C942B040C940504AB
:100050000C948F000C948F000C948F000C948F00E4
:100060000C948F000C948F000000000023002600E9
:10007000290000000008000201000003040700003E
:1000800000000000000050332052656C6500000045
:100090000000250028002B0000000000240027009D
:1000A0002A000404040404040404020202020202FA
:1000B000030303030303010204081020408001022C
:1000C000040810200102040810201505EF06112471
:1000D0001FBECFEFD8E0DEBFCDBF23E0A6E3B2E086
:1000E00001C01D92AA32B207E1F712E0A0E0B1E030
:1000F000E6ECF2E102C005900D92A633B107D9F704
:1001000010E0C6E6D0E004C02197FE010E945E0721
:10011000C536D107C9F70E94AA050C9456090C945C
:100120000000833081F028F4813099F08230A9F00A
:1001300008958730A9F08830C9F08430B1F48091F7
:1001400080008F7D03C0809180008F778093800036
:10015000089584B58F7784BD089584B58F7DFBCFD6
:100160008091B0008F778093B00008958091B000A7
:100170008F7DF9CFECEEF2E08EEF92E0918B808BE9
:1001800093A382A315AA14AA0895ECEEF2E086E3E5
:1001900093E0918B808B93A382A315AA14AA089550
:1001A000ECEEF2E08EE793E0918B808B93A382A339
:1001B00095AB84AB0895AF92BF92CF92DF92EF924E
:1001C000FF920F931F93CF93DF936C017B018B0101
:1001D000040F151FEB015E01AE18BF08C017D10751
:1001E00059F06991D601ED91FC910190F081E02DDB
:1001F000C6010995892B79F7C501DF91CF911F9130
:100200000F91FF90EF90DF90CF90BF90AF90089547
:10021000FC01538D448D252F30E0842F90E0821B0C
:10022000930B541710F0CF96089501970895FC0191
:10023000918D828D981761F0A28DAE0FBF2FB11DE9
:100240005D968C91928D9F5F9F73928F90E0089541
:100250008FEF9FEF0895FC01918D828D981731F0FB
:10026000828DE80FF11D858D90E008958FEF9FEF4F
:100270000895FC01918D228D892F90E0805C9F4F25
:10028000821B91098F739927089587E492E00E9459
:10029000390121E0892B09F420E0822F089580E0C4
:1002A00090E0892B29F00E94450181110C940000F7
:1002B0000895FC01A48DA80FB92FB11DA35ABF4FFB
:1002C0002C91848D90E001968F739927848FA68955
:1002D000B7892C93A089B1898C91837080648C93A9
:1002E000938D848D981306C00288F389E02D808158
:1002F0008F7D80830895EF92FF920F931F93CF938A
:10030000DF93EC0181E0888F9B8D8C8D98131AC050
:10031000E889F989808185FF15C09FB7F894EE8937
:10032000FF896083E889F989808183708064808394
:100330009FBF81E090E0DF91CF911F910F91FF90DF
:10034000EF900895F62E0B8D10E00F5F1F4F0F7387
:100350001127E02E8C8D8E110CC00FB607FCFACF42
:10036000E889F989808185FFF5CFCE010E94590186
:10037000F1CFEB8DEC0FFD2FF11DE35AFF4FF08213
:100380009FB7F8940B8FEA89FB8980818062CFCF79
:10039000CF93DF93EC01888D8823B9F0AA89BB89BC
:1003A000E889F9898C9185FD03C0808186FD0DC0A7
:1003B0000FB607FCF7CF8C9185FFF2CF808185FFC8
:1003C000EDCFCE010E945901E9CFDF91CF91089581
:1003D0000F931F93CF93DF93EC018E819F81009742
:1003E00031F0019709F437C090E080E023C0288104
:1003F00030E0F901EE58FF4F8491F901EA54FF4FC4
:100400000491F901EE55FF4F1491112369F3811105
:100410000E949100E12FF0E0EE0FFF1FE859FF4F1F
:10042000A591B491EC910E2331E020E009F430E085
:10043000832F922F29813A812817390711F19A8346
:100440008983E889F9893097E1F0CE01DF91CF9176
:100450001F910F91099488818E3008F08E5087701B
:10046000806480937C0080917A00806480937A001D
:1004700080917A0086FDFCCF809178009091790080
:10048000D9CFDF91CF911F910F9108958091F10203
:10049000882321F08CEE92E00E94E8018091030312
:1004A000882321F08EEF92E00E94E80180911503ED
:1004B000882321F080E193E00C94E80108950C94E6
:1004C0004602FF920F931F93CF93DF93EC01F62E1A
:1004D000288130E0F901EE58FF4F8491F901EA5488
:1004E000FF4F0491F901EE55FF4F14911123A1F034
:1004F00081110E949100E12FF0E0EE0FFF1FE25703
:10050000FF4FA591B4918FB7F894EC91F1100BC007
:1005100000950E230C938FBFF982DF91CF911F912D
:100520000F91FF9008950E2BF5CFFB010190002055
:10053000E9F73197AF01461B570BDC01ED91FC91B8
:100540000280F381E02D09940F931F93CF93DF93E3
:10055000EC010E9495028C0168E171E0CE010E94DD
:100560009502800F911FDF91CF911F910F910895F8
:100570000F931F93CF93DF938C01C091EA02D09128
:10058000EB0284E090E00E9464079093EB0280937A
:10059000EA02892B81F46BE171E087E492E00E942A
:1005A000A4028091E4029091E502009721F06BE1B2
:1005B00071E00E94A402E091EA02F091EB02138242
:1005C0001282118300838091E8029091E902892BC5
:1005D00091F4F093E902E093E8028091E6029091B1
:1005E000E70201969093E7028093E602DF91CF91B4
:1005F0001F910F910895FB83EA83EFCFCF93DF9391
:10060000EC014E855F856A857B8587E492E00E94D8
:10061000DB002B813C8189819A812817390781F47D
:100620006CE471E087E492E00E94A402888160E0BB
:10063000833081F060E08A30B1F0DF91CF9108958E
:1006400069E571E087E492E00E94A402888183302A
:1006500039F461E082E293E0DF91CF910C94610282
:100660008A3059F761E084E293E0F6CFCF93DF93CD
:10067000EC012B813C8189819A812817390719F572
:100680004E855F856A857B8587E492E00E94DB006A
:1006900066E671E087E492E00E949502888599857C
:1006A000892BA1F481E090E0998788876AE771E05F
:1006B00087E492E00E94A402888161E0833091F097
:1006C00061E08A30C1F0DF91CF91089519861886D4
:1006D0006DE771E087E492E00E94A4028881833094
:1006E00039F460E082E293E0DF91CF910C946102F3
:1006F0008A3049F760E084E293E0F6CFCF93FC01C3
:1007000023813481818192812817390791F561E82D
:1007100071E087E492E00E94950280913602909108
:100720003702892BF9F481E090E0909337028093AF
:1007300036026AE771E087E492E00E94A402C1E019
:100740008091360290913702892B09F4C0E06C2F1A
:1007500082E293E00E9461026C2F84E293E0CF91E9
:100760000C94610210923702109236026DE771E02C
:10077000E2CFCF9108951F920F920FB60F921124DE
:100780002F933F938F939F93AF93BF938091430297
:1007900090914402A0914502B091460230914202EC
:1007A00023E0230F2D3758F50196A11DB11D20938D
:1007B00042028093430290934402A0934502B09377
:1007C000460280913E0290913F02A0914002B0917A
:1007D00041020196A11DB11D80933E0290933F02FC
:1007E000A0934002B0934102BF91AF919F918F912E
:1007F0003F912F910F900FBE0F901F90189526E8F4
:10080000230F0296A11DB11DD2CF1F920F920FB6DA
:100810000F9211242F933F934F935F936F937F9386
:100820008F939F93AF93BF93EF93FF9387E492E0EF
:100830000E945901FF91EF91BF91AF919F918F91CC
:100840007F916F915F914F913F912F910F900FBECC
:100850000F901F9018951F920F920FB60F921124B0
:100860002F938F939F93EF93FF93E0915702F09113
:1008700058028081E0915D02F0915E0282FD1BC012
:100880009081809160028F5F8F7320916102821747
:1008900041F0E0916002F0E0E95BFD4F958F8093BD
:1008A0006002FF91EF919F918F912F910F900FBE5A
:1008B0000F901F9018958081F4CFCF93DF9390E035
:1008C000FC01EA54FF4F24918E559F4FFC01849107
:1008D0008823D1F090E0880F991FFC01E856FF4F64
:1008E000A591B491FC01E257FF4FC591D4916111DC
:1008F0000EC09FB7F8948C91E22FE0958E238C93D5
:100900002881E223E8839FBFDF91CF9108958FB7BD
:10091000F894EC91E22BEC938FBFF6CF0F931F93DB
:10092000CF93DF93EC0188819981009759F02A8158
:100930003B812617370730F081E0DF91CF911F917F
:100940000F9108958B016F5F7F4F0E948908009778
:1009500059F0998388831B830A832C813D81232B43
:1009600059F7FC011082E8CF80E0E7CFCF93DF9307
:10097000EC01198218821B821A821D821C8270E08F
:1009800060E00E948E042881398181110FC02115F9
:10099000310519F0C9010E940008198218821D82D0
:1009A0001C821B821A82DF91CF9108951D821C82C6
:1009B0006AE171E0C901DF91CF910C944F09EF9288
:1009C000FF920F931F93CF93DF93EC017B01FB0109
:1009D00001900020E9F731978F01061B170BB80132
:1009E0000E948E0428813981811113C0211531059F
:1009F00019F0C9010E940008198218821D821C8208
:100A00001B821A82DF91CF911F910F91FF90EF907F
:100A100008951D830C83B701C901DF91CF911F9108
:100A20000F91FF90EF900C944F091F93CF93DF939A
:100A3000E7E4F2E01382128288EE93E0A0E0B0E0F7
:100A400084839583A683B7838AE091E09183808332
:100A500085EC90E09587848784EC90E09787868783
:100A600080EC90E0918B808B81EC90E0938B828B7B
:100A700082EC90E0958B848B86EC90E0978B868B54
:100A8000118E128E138E148E86EF92E00E94B604A1
:100A900088E093E00E94B6048AE193E00E94B604E5
:100AA00060E083E00E945D0460E08AE00E945D04F3
:100AB00060E08BE00E945D0461E084E00E945D04E0
:100AC00061E087E00E945D04CCEED2E083E08883A1
:100AD0001A8219821C821B8211E01D831F821E82D2
:100AE00061E971E086EF92E00E94DF048AE08A8B80
:100AF0001C8A1B8A1E8A1D8A1F8B198E188E6BE911
:100B000071E088E093E00E94DF048BE08CA381E039
:100B100090E09EA38DA398A78FA319A71BA61AA642
:100B200065EA71E08AE193E00E94DF0484E08EAB25
:100B30001FAA87E088AF19AEE4EEF2E013821282BA
:100B4000158214821782168211821082DF91CF9152
:100B50001F910895789484B5826084BD84B58160C6
:100B600084BD85B5826085BD85B5816085BD809178
:100B70006E00816080936E001092810080918100F0
:100B800082608093810080918100816080938100E8
:100B9000809180008160809380008091B1008460AA
:100BA0008093B1008091B00081608093B00080910B
:100BB0007A00846080937A0080917A0082608093CA
:100BC0007A0080917A00816080937A0080917A0027
:100BD000806880937A001092C1000E94BA00E09170
:100BE0005702F091580282E08083E0915302F09125
:100BF00054021082E0915502F091560280E1808308
:100C000010925F02E0915B02F0915C0286E08083CB
:100C1000E0915902F0915A02808180618083E091D5
:100C20005902F0915A02808188608083E0915902D4
:100C3000F0915A02808180688083E0915902F0919E
:100C40005A0280818F7D808306E810E0F80164916C
:100C5000662341F087E492E00E947B010F5F1F4F03
:100C6000892BA1F768E171E087E492E00E94950288
:100C70008FE592E00E94B80204E610E080E0E82EE2
:100C800080E0F82E2FB7F8948091430290914402AF
:100C9000A0914502B09146022FBF40913A02509177
:100CA0003B0260913C0270913D02841B950BA60BA8
:100CB000B70B0A97A105B10508F46FC02FB7F894D8
:100CC0008091430290914402A0914502B091460266
:100CD0002FBF80933A0290933B02A0933C02B093C3
:100CE0003D0280913802909139020196B8010E942C
:100CF0004A079093390280933802C0E08091E6025F
:100D00009091E702C817190634F5E091E802F091D6
:100D1000E902C080D18080E03097A1F46AEB71E0F5
:100D200087E492E00E94A4028091E4029091E5029F
:100D3000009721F06AEB71E00E94A402F601099588
:100D4000CF5FDCCFC817D1F30280F381E02DC080E4
:100D5000D1808F5FF7CF0E94460287E492E00E9425
:100D600039010297D4F087E492E00E94170183973B
:100D7000A1F487E492E00E9417018233D1F083331B
:100D8000F9F0813351F48AEB90E00E94B8026DEEE5
:100D900071E087E492E00E94A402E114F10409F4F6
:100DA00071CF0E944501882309F46CCF0E94000096
:100DB00069CF85EC90E00E94B80265E072E0E9CF6F
:100DC00080ED90E00E94B8026DE172E0E2CFFC019C
:100DD00080819181009711F00C9400080895CF93C1
:100DE000DF93C091E802D091E902CD2B71F08091A0
:100DF000E8029091E902FC01C281D3810E940008BF
:100E0000D093E902C093E802F0CF8AE193E00E9418
:100E1000E70688E093E00E94E70686EF92E0DF9124
:100E2000CF910C94E7062F923F924F925F926F9270
:100E30007F928F929F92AF92BF92CF92DF92EF926A
:100E4000FF920F931F93CF93DF93CDB7DEB7CA1BEB
:100E5000DB0B0FB6F894DEBF0FBECDBF09942A8816
:100E6000398848885F846E847D848C849B84AA84BE
:100E7000B984C884DF80EE80FD800C811B81AA814B
:100E8000B981CE0FD11D0FB6F894DEBF0FBECDBF16
:100E9000ED010895AA1BBB1B51E107C0AA1FBB1F90
:100EA000A617B70710F0A61BB70B881F991F5A95F6
:100EB000A9F780959095BC01CD010895EE0FFF1F15
:100EC0000590F491E02D09940F931F93CF93DF9336
:100ED0008230910510F482E090E0E0912803F091D7
:100EE000290330E020E0B0E0A0E0309799F421152C
:100EF000310509F44AC0281B390B24303105D8F5D7
:100F00008A819B816115710589F1FB01938382833D
:100F1000FE0111C040815181028113814817590798
:100F2000E0F04817590799F4109761F012960C9366
:100F3000129713961C933296CF01DF91CF911F9198
:100F40000F9108950093280310932903F4CF2115DE
:100F5000310551F04217530738F0A901DB019A011E
:100F6000BD01DF01F801C1CFEF01F9CF9093290353
:100F700080932803CDCFFE01E20FF31F819391935D
:100F80002250310939832883D7CF2091260330910D
:100F90002703232B41F42091020130910301309368
:100FA0002703209326032091000130910101211590
:100FB000310541F42DB73EB7409104015091050130
:100FC000241B350BE0912603F0912703E217F3076A
:100FD000A0F42E1B3F0B2817390778F0AC014E5FA9
:100FE0005F4F2417350748F04E0F5F1F50932703BC
:100FF00040932603819391939FCFF0E0E0E09CCF54
:10100000CF93DF930097E9F0FC01329713821282AD
:10101000A0912803B0912903ED0130E020E0109762
:10102000A1F420813181820F931F209126033091FA
:1010300027032817390709F061C0F0932703E093CD
:101040002603DF91CF910895EA01CE17DF07E8F577
:101050004A815B819E0141155105B1F7E901FB838E
:10106000EA8349915991C40FD51FEC17FD0761F42C
:10107000808191810296840F951FE901998388836D
:10108000828193819B838A83F0E0E0E012968D91C8
:101090009C9113970097B9F52D913C911197CD0133
:1010A0000296820F931F2091260330912703281761
:1010B000390739F6309751F5109229031092280319
:1010C000B0932703A0932603BCCFD383C283408170
:1010D0005181840F951FC817D90761F44E5F5F4F88
:1010E00088819981480F591F518340838A819B8150
:1010F000938382832115310509F0B0CFF093290342
:10110000E09328039ECFFD01DC01C0CF1382128241
:10111000D7CFB0E0A0E0EFE8F8E00C9415078C0121
:10112000009751F4CB010E9464078C01C801CDB730
:10113000DEB7E0E10C943107FC01E60FF71F9C01DC
:1011400022503109E217F30708F49DC0D901CD916F
:10115000DC911197C617D70798F0C530D10530F349
:10116000CE0104978617970708F3C61BD70B229763
:10117000C193D1936D937C93CF010E940008D6CF89
:101180005B01AC1ABD0A4C018C0E9D1EA091280378
:10119000B0912903512C412CF12CE12C109731F501
:1011A00080912603909127038815990509F05CC06A
:1011B0004616570608F058C0809100019091010131
:1011C000009741F48DB79EB74091040150910501FD
:1011D000841B950BE817F90708F055C0F093270317
:1011E000E0932603F90171836083A0CF8D919C91D8
:1011F000119712966C90129713967C901397A815DE
:10120000B90559F56C0142E0C40ED11CCA14DB04C7
:1012100020F1AC014A195B09DA011296159780F0AA
:101220006282738251834083D9016D937C93E11470
:10123000F10471F0D7011396FC93EE93129776CFD9
:1012400022968C0F9D1FF90191838083F301EFCFCC
:10125000F0932903E093280369CF4816590608F450
:101260002C017D01D3019ACFCB010E9464077C0140
:10127000009749F0AE01B8010E944609C8010E94DA
:101280000008870153CF10E000E050CFFB01DC01E4
:1012900002C001900D9241505040D8F70895FB01D3
:1012A000DC0101900D920020E1F7089510E0C6E600
:1012B000D0E004C0FE010E945E072196C736D10728
:0612C000C9F7F894FFCF0E
:1012C60000002A038000000000007B01DB0008010B
:1012D600C801390117012B010D0A00515545554525
:1012E6003A20696E73756666696369656E74206D0A
:1012F600656D6F727920746F206372656174652005
:1013060061206E6577206E6F64652E00202D2D3E60
:1013160020536F6C7461646F00202D2D3E20507534
:101326006C7361646F00203A20496E746572727541
:1013360070746F72202D2D3E20004F4E004F464692
:1013460000436F6E6D757461646F72202D2D3E20A3
:1013560000424F54EFBFBD4E203100424F54EFBF05
:10136600BD4E20320050756C7361646F72204F70F1
:10137600746F636F706C61646F0051554555453AE3
:101386002063616E2774207065656B206974656DD6
:101396002066726F6D2071756575653A2071756589
:1013A600756520697320656D7074792E00417061D2
:1013B600727461646F20322053656C656363696F74
:1013C6006E61646F00417061727461646F203320D6
:1013D60053656C656363696F6E61646F004170612C
:1013E600727461646F20342053656C656363696F42
:0613F6006E61646F00004F
:00000001FF
