:100000000C9426010C944E010C944E010C944E015C
:100010000C944E010C944E010C944E010C944E0124
:100020000C944E010C944E010C944E010C944E0114
:100030000C944E010C944E010C944E010C944E0104
:100040000C94310E0C944E010C94A10E0C947B0E6A
:100050000C944E010C944E010C944E010C944E01E4
:100060000C944E010C944E015030372053656C6552
:100070006363696F6E616461202D2D3E2053656E50
:10008000736F72204D6F76696D69656E746F20288D
:100090005049522900503620494E5445525255502D
:1000A000544F522053656C656363696F6E61646F72
:1000B00000503520494E544552525550544F52200D
:1000C00053656C656363696F6E61646F00503420C3
:1000D000434F4E4D555441444F522053656C656318
:1000E00063696F6E61646F00503420494E5445520D
:1000F000525550544F522053656C656363696F6E5F
:1001000061646F00503320434F4E4D555441444F6E
:10011000522053656C656363696F6E61646F005054
:100120003120434F4E4D555441444F522053656C3E
:10013000656363696F6E61646F00503120494E548E
:100140004552525550544F522053656C6563636954
:100150006F6E61646F0050312050554C5341444FD5
:100160005245532053656C656363696F6E61646FBC
:10017000004F4646004F4E00202D2D3E2050756CFE
:100180007361646F00202D2D3E20536F6C74616489
:100190006F004F4646004F4E00436F6E6D757461A1
:1001A000646F72202D2D3E20004153594E57414916
:1001B00054205445524D494E41444F005030372051
:1001C000416E65786F2033202D20454550524F4DAC
:1001D0002028416C6D6163656E617220436F6E66AD
:1001E000696775726163696F6E657329000000004D
:1001F00000240027002A0000000000250028002B12
:100200000000000000230026002900040404040468
:1002100004040402020202020203030303030301B3
:10022000020408102040800102040810200102048A
:10023000081020000000080002010000030407006D
:1002400000000000000000003310D41211241FBE73
:10025000CFEFD8E0DEBFCDBF25E0A0E8B2E001C01F
:100260001D92A134B207E1F712E0A0E0B1E0E6EDA3
:10027000FFE202C005900D92A038B107D9F711E056
:10028000C5E2D1E004C02197FE010E944513C432AB
:10029000D107C9F70E9482110C94DE170C9400005C
:1002A000833081F028F4813099F08230A9F00895EC
:1002B0008730A9F08830C9F08430B1F48091800093
:1002C0008F7D03C0809180008F7780938000089598
:1002D00084B58F7784BD089584B58F7DFBCF8091E1
:1002E000B0008F778093B00008958091B0008F7D2B
:1002F000F9CF0F931F93CF93DF93FC012581222326
:1003000009F455C0EC0186819781009731F001977F
:1003100009F437C090E080E023C0208130E0F9018B
:10032000ED5CFD4F8491F901E15EFD4F0491F9010F
:10033000E55FFD4F1491112369F381110E94500173
:10034000E12FF0E0EE0FFF1FEF5FFD4FA591B4919D
:10035000EC910E2331E020E009F430E0832F922F5E
:1003600029813A812817390711F19A838983E8890D
:10037000F9893097E1F0CE01DF91CF911F910F9174
:10038000099480818E3008F08E508770806480934D
:100390007C0080917A00806480937A0080917A005A
:1003A00086FDFCCF8091780090917900D9CFDF91C4
:1003B000CF911F910F910895CF93DF93EC01888126
:1003C00099810E947901EC81FD81A881B981119602
:1003D0008D919C91208131812817390751F09183AB
:1003E0008083EE85FF85309721F0CE01DF91CF919C
:1003F0000994DF91CF9108951F93CF93DF93282F16
:1004000030E0F901ED5CFD4F8491F901E15EFD4FB3
:10041000D491F901E55FFD4FC491CC23A9F0162FCB
:1004200081110E945001EC2FF0E0EE0FFF1FE95008
:10043000FE4FA591B4918FB7F894EC91111108C0BB
:10044000D095DE23DC938FBFDF91CF911F9108956C
:10045000DE2BF8CFCF93DF9390E0FC01E15EFD4F00
:100460002491855F9D4FFC0184918823D1F090E019
:10047000880F991FFC01E351FE4FA591B491FC0137
:10048000E950FE4FC591D49161110EC09FB7F89409
:100490008C91E22FE0958E238C932881E223E883D0
:1004A0009FBFDF91CF9108958FB7F894EC91E22B25
:1004B000EC938FBFF6CF3FB7F8948091A402909150
:1004C000A502A091A602B091A70226B5A89B05C0DF
:1004D0002F3F19F00196A11DB11D3FBFBA2FA92FC3
:1004E000982F8827BC01CD01620F711D811D911DC0
:1004F00042E0660F771F881F991F4A95D1F708952C
:100500008F929F92AF92BF92CF92DF92EF92FF9223
:100510004B015C010E945B026B017C010E945B024B
:100520006C197D098E099F09683E7340810591050C
:10053000A8F321E0821A9108A108B10888EEC80E3C
:1005400083E0D81EE11CF11C81149104A104B104C4
:1005500029F7FF90EF90DF90CF90BF90AF909F90E2
:100560008F9008950F931F93CF93DF938C01C62F25
:1005700080915E03823074F09091C00090649093FB
:10058000C00061E00E94FC0161E070E080E090E06A
:100590000E948002902FF8012FEF3FEF81912827D2
:1005A00088E0A9014170552736952795452B21F004
:1005B00041E0242740EA3427815099F78E2F891B88
:1005C0008C1760F3322723273227F801EC0FF11D37
:1005D0003083E1E0EC0FE00FF12FF11D2083CE5FBF
:1005E0008091A8029091A902D0E0DC01ED91FC91EC
:1005F0000280F381E02DAE01B80109956AE070E058
:1006000080E090E00E94800280915E0382303CF0A6
:100610009091C00096FFFCCF60E00E94FC01CE01EB
:10062000DF91CF911F910F9108950F931F93CF9357
:10063000DF93CDB7DEB7C054D1090FB6F894DEBF53
:100640000FBECDBF90915D0399838A8381E08B8338
:10065000DB01AA0FBB1FA20FB31FCB0120E0460F87
:10066000572F511D382F361B8417950770F40D91A5
:100670001D91E1E0F0E0012B09F4E0E001C0EE0F94
:100680003A95EAF72E2B0196EDCF2C8364E0CE014C
:1006900001960E94B202C05CDF4F0FB6F894DEBF35
:1006A0000FBECDBFDF91CF911F910F910895EF92B3
:1006B000FF920F931F93CF93DF93CDB7DEB7C05454
:1006C000D1090FB6F894DEBF0FBECDBF90915D0388
:1006D00099838A83842F880F8B83CB01880F991F7E
:1006E000280F391FDE0111967B0163E070E0CD0118
:1006F0004E0D5F2D511D1296E416F50688F4F90192
:10070000108101812E5F3F4F11960C931197129625
:100710001C9312976E5F7F4FFFEFEF1AFF0AEBCF2C
:100720000E94B202C05CDF4F0FB6F894DEBF0FBE6E
:10073000CDBFDF91CF911F910F91FF90EF90089562
:10074000AF92BF92CF92DF92EF92FF920F931F93DF
:10075000CF93DF936C017B018B01040F151FEB011D
:100760005E01AE18BF08C017D10759F06991D601D4
:10077000ED91FC910190F081E02DC6010995892B46
:1007800079F7C501DF91CF911F910F91FF90EF9005
:10079000DF90CF90BF90AF900895FC01538D448DB2
:1007A000252F30E0842F90E0821B930B541710F01C
:1007B000CF96089501970895FC01918D828D981729
:1007C00061F0A28DAE0FBF2FB11D5D968C91928D01
:1007D0009F5F9F73928F90E008958FEF9FEF089532
:1007E000FC01918D828D981731F0828DE80FF11DFB
:1007F000858D90E008958FEF9FEF0895FC01918D16
:10080000228D892F90E0805C9F4F821B91098F730E
:10081000992708958AEA92E00E94FE0321E0892B3D
:1008200009F420E0822F089580E090E0892B29F0E0
:100830000E940A0481110C9400000895FC01A48D0B
:10084000A80FB92FB11DA35ABF4F2C91848D90E0F2
:1008500001968F739927848FA689B7892C93A089D5
:10086000B1898C91837080648C93938D848D98135F
:1008700006C00288F389E02D80818F7D80830895F2
:10088000EF92FF920F931F93CF93DF93EC0181E0E0
:10089000888F9B8D8C8D98131AC0E889F989808187
:1008A00085FF15C09FB7F894EE89FF896083E889BA
:1008B000F98980818370806480839FBF81E090E0AC
:1008C000DF91CF911F910F91FF90EF900895F62E39
:1008D0000B8D10E00F5F1F4F0F731127E02E8C8DD3
:1008E0008E110CC00FB607FCFACFE889F989808118
:1008F00085FFF5CFCE010E941E04F1CFEB8DEC0FEA
:10090000FD2FF11DE35AFF4FF0829FB7F8940B8F34
:10091000EA89FB8980818062CFCF0F931F93CF93A9
:10092000DF938C01D0E0C0E0F801EC0FFD1F649173
:10093000662341F08AEA92E00E944004892B11F07C
:100940002196F2CFCE01DF91CF911F910F910895A3
:10095000CF93DF93EC01888D8823B9F0AA89BB89F6
:10096000E889F9898C9185FD03C0808186FD0DC0E1
:100970000FB607FCF7CF8C9185FFF2CF808185FF02
:10098000EDCFCE010E941E04E9CFDF91CF910895F3
:100990001F93CF93DF93FC012181261731F0162F8F
:1009A000EC0180810E94FC011983DF91CF911F919E
:1009B000089580914B0390914C038035910580F40C
:1009C0008DE994E00E94790187EB94E00E9479011F
:1009D00081ED94E00E9479018BEE94E00C94790112
:1009E00087E294E00E94DC0189E394E00E94DC014C
:1009F0008BE494E00E94DC018DE594E00E94DC0130
:100A00008FE694E00E94DC0181E894E00C94DC0124
:100A1000FB0101900020E9F73197AF01461B570B0E
:100A2000DC01ED91FC910280F381E02D0994CF93DC
:100A3000DF930E948D04EC0163E371E08AEA92E0A7
:100A40000E9408058C0F9D1FDF91CF9108950F9391
:100A50001F93CF93DF93EC010E9408058C0163E3A1
:100A600071E0CE010E940805800F911FDF91CF91A8
:100A70001F910F9108950F931F93CF93DF938C01D4
:100A8000EB018AEA92E00E942705F80180819181BA
:100A9000009739F0BE01DF91CF911F910F910C9417
:100AA0002705DF91CF911F910F910895EF92FF924B
:100AB0000F931F93CF93DF938C01D62FC0E0D80103
:100AC00012968D919C911397C8171906E4F4149609
:100AD000ED91FC91E080F18080E0309759F466E37D
:100AE00071E0C8010E943B056D2FC7010E94C80438
:100AF000CF5FE5CFC817C1F30280F381E02DE0801E
:100B0000F1808F5FF7CFDF91CF911F910F91FF9011
:100B1000EF900895CF93DF93EC014B815C812981A5
:100B20003A814217530771F589E991E00E948D04DB
:100B30008091970290919802892BE9F481E090E0EE
:100B4000909398028093970286E991E00E9417059E
:100B50008C899D8918161906ACF461E08091970282
:100B600090919802892B09F460E0CE014296DF91C2
:100B7000CF910C945605109298021092970282E938
:100B800091E0E4CFDF91CF910895CF93DF93EC0113
:100B90004E855F856A857B858AEA92E00E94A00384
:100BA0002B813C8189819A8128173907C1F485E816
:100BB00091E00E9417058C899D891816190694F4F6
:100BC00061E02B813C8189819A812817390709F4DA
:100BD00060E0CE014296DF91CF910C94560588E7F4
:100BE00091E0E7CFDF91CF910895BF92CF92DF924E
:100BF000EF92FF920F931F93CF93DF938C016B01C2
:100C0000D0E0C0E0862F8170B82ED80112968D9169
:100C10009C911397C817D907ACF59C2F1496ED91AA
:100C2000FC91E080F18080E0309719F566E371E097
:100C3000C8010E943B05D7011296ED91FC912081DD
:100C400031816B2DB2E0CB16D10429F461E021157E
:100C5000310509F060E0862F90E08217930739F0A4
:100C600091838083F701808191810E94C80421963D
:100C7000CCCF891700F70280F381E02DE080F1806E
:100C80008F5FF7CFDF91CF911F910F91FF90EF9082
:100C9000DF90CF90BF9008950F931F93CF93DF9372
:100CA000EC01A881B981E889F98913964D915C918D
:100CB000149711962D913C9142175307D9F02FB7F5
:100CC000F8944091A0025091A1026091A20270910B
:100CD000A3022FBF428353836483758321E0218362
:100CE000108261E070E00696DF91CF911F910F9125
:100CF0000C94F50521812223B1F12FB7F89440918E
:100D0000A0025091A1026091A2027091A3022FBF94
:100D100002811381248135814017510762077307CF
:100D200020F44150510961097109401B510B620BBC
:100D3000730BA681B7810D90BC91A02D28EE33E0F6
:100D4000A29F8001A39F100DB29F100D112430E0CF
:100D500020E04017510762077307B0F0118212823A
:100D6000138214821582E889F989208121110CC02F
:100D700089EA91E00E941705E889F98981E080837A
:100D800070E060E0CE01AFCFDF91CF911F910F9166
:100D90000895DC01ED91FC914381548121813281E0
:100DA0004217530729F462E070E006960C94F505AB
:100DB00008950C94C9060F931F93CF93DF93D0E04F
:100DC000C0E080917D0390917E03C817D9070CF590
:100DD0009C2FE0917F03F09180030081118180E0DE
:100DE000309771F466E371E08BE793E00E943B0576
:100DF000D8011E96ED91FC91C80109952196E1CF8D
:100E00008917B0F70280F381E02D008111818F5F97
:100E1000F7CFDF91CF911F910F910895EF92FF923D
:100E20000F931F93CF93DF93EC017B010E811F8102
:100E300084E090E00E944B139F838E83892B29F4DA
:100E400069E671E0CE010E943B05EE81FF811382CD
:100E50001282F182E0828C819D81892B71F4FD8365
:100E6000EC838A819B8101969B838A83DF91CF915A
:100E70001F910F91FF90EF900895D8011396FC9366
:100E8000EE931297EECFEF92FF920F931F93CF93B3
:100E9000DF93EC017B010E811F8184E090E00E94D2
:100EA0004B139F838E83892B29F469E671E0CE0171
:100EB0000E943B05EE81FF8113821282F182E08263
:100EC0008C819D81892B71F4FD83EC838A819B81C8
:100ED00001969B838A83DF91CF911F910F91FF90A1
:100EE000EF900895D8011396FC93EE931297EECFEE
:100EF0000F931F93CF93DF938C01C0917903D0910F
:100F00007A0384E090E00E944B1390937A038093DD
:100F10007903892B31F469E671E083E793E00E945D
:100F20003B05E0917903F0917A03138212821183D9
:100F300000838091770390917803892B91F4F0934B
:100F40007803E0937703809175039091760301967F
:100F50009093760380937503DF91CF911F910F914A
:100F60000895FB83EA83EFCFCF93DF93EC012B81CE
:100F70003C8189819A8128173907D1F44E855F8594
:100F80006A857B858AEA92E00E94A0036AE971E0A3
:100F90008AEA92E00E94080588859985892BC9F420
:100FA00081E090E09987888785E791E00E941705A6
:100FB0008C899D89181619068CF461E088859985BD
:100FC000892B09F460E0CE014296DF91CF910C9419
:100FD00056051986188681E791E0E8CFDF91CF9119
:100FE00008950F931F93CF93DF93EC018C819D8124
:100FF000009769F0FC01028113810E94E7131D83B1
:101000000C838A819B8101979B838A83EFCF81E048
:10101000DF91CF911F910F910895CF93DF93EC0152
:1010200044960E94F1071B8A1A8ACE018E960E946E
:10103000F1071DA61CA6CE01885B9F4F0E94F107F9
:10104000FE01EA5BFF4F11821082CE018E599F4F45
:101050000E94F107FE01E05AFF4F118210827A963A
:1010600011821082CE0184589F4F0E94F107FE0129
:10107000EC56FF4F11821082CE018A569F4FDF91AE
:10108000CF910C94F1070F931F93CF93DF93EC0153
:101090008C819D81009769F0FC01028113810E947F
:1010A000E7131D830C838A819B8101979B838A832D
:1010B000EFCF81E0DF91CF911F910F910895CF93F2
:1010C000DF93EC0186559F4F0E944308FE01EE54CA
:1010D000FF4F11821082CE0184549F4F0E9443081B
:1010E000FE01EC53FF4F11821082CE0182539F4FBD
:1010F0000E944308FE01EA52FF4F11821082CE0186
:1011000080529F4F0E944308FE01E851FF4F118219
:101110001082729611821082CE018E509F4F0E94D3
:101120004308FE01E45FFE4F11821082CE018C5F06
:101130009E4FDF91CF910C9443080F931F93CF9351
:10114000DF93EC010C811D81012B51F08C819D817D
:10115000FC01028113810E94E7131D830C83F4CFED
:10116000DF91CF911F910F910895CF93DF93EC0101
:1011700042960E949D088A859B85009721F0DF9109
:10118000CF910C94E713DF91CF910895CF93DF9324
:10119000EC0181E191E099838883CE018C579F4FC8
:1011A0000E94B508CE0186599F4F0E94B508CE0116
:1011B000805B9F4F0E94B508CE01C6960E94B5087D
:1011C000CE014C960E94B508CE010296DF91CF91D8
:1011D0000C94B508CF93DF93EC010E94C608CE01B2
:1011E000DF91CF910C94E713CF93DF93EC018DE265
:1011F00091E099838883CE018C5F9E4F0E949D0869
:10120000CE018E509F4F0E949D08CE0180529F4F6D
:101210000E949D08CE0182539F4F0E949D08CE01DF
:1012200084549F4F0E949D08CE0186559F4F0E9477
:101230009D08CE01DF91CF910C94C608CF93DF9328
:10124000EC010E94F408CE01DF91CF910C94E713DA
:10125000CF93DF938BE994E00E940D0883E893E03D
:101260000E945F0880917F0390918003009799F01E
:10127000FC01C281D3810E94E713D0938003C09305
:101280007F0380917D0390917E03019790937E036D
:1012900080937D03E7CFDF91CF910895EF92FF9286
:1012A0001F93CF93DF93CDB7DEB7C456D1090FB6E6
:1012B000F894DEBF0FBECDBF90E080E00E94E41244
:1012C00090E0009711F481E190E090934C038093BB
:1012D0004B039F938F938AEF91E09F938F93CE015F
:1012E00001967C019F938F930E943D15B7018AEA76
:1012F00092E00E94270581E090E00E94E412282FEE
:1013000030E030935403209353031F928F9386E170
:1013100092E09F938F93FF92EF920E943D15B70149
:101320008AEA92E00E94270582E090E00E94E4129F
:10133000182F83E090E00E94E412212F30E0322F3A
:101340002227820F932F911D90934E0380934D037C
:101350009F938F9387E292E09F938F93FF92EF92F8
:101360000E943D15B7018AEA92E00E9427050FB658
:10137000F894DEBF0FBECDBFCC59DF4F0FB6F89447
:10138000DEBF0FBECDBFDF91CF911F91FF90EF90D9
:101390000895FF920F931F93CF93DF93EC01F62EE6
:1013A00008811981C8010E94E412F81621F06F2DFE
:1013B000C8010E94EC12CE01DF91CF911F910F91D5
:1013C000FF9008952F923F924F925F926F927F927B
:1013D0008F929F92AF92BF92CF92DF92EF92FF9245
:1013E0000F931F93CF93DF93CDB7DEB7CC56D109C0
:1013F0000FB6F894DEBF0FBECDBF8091A8029091CA
:10140000A902DC01ED91FC910084F185E02D0995A4
:101410008C010E945B0201151105F1F41092850206
:1014200010928402C459DF4F0FB6F894DEBF0FBE8E
:10143000CDBFDF91CF911F910F91FF90EF90DF9083
:10144000CF90BF90AF909F908F907F906F905F9064
:101450004F903F902F900895209184023091850203
:1014600002171307C9F010938502009384020091BC
:101470006F03109170032091710330917203600F1C
:10148000711F821F931F609380027093810280936B
:10149000820290938302C6CF009180021091810254
:1014A00020918202309183026017710782079307AF
:1014B00008F4B8CF10928502109284028E010F5F5B
:1014C0001F4F6801F12CE12C8091A8029091A90294
:1014D000DC01ED91FC910084F185E02D0995892BCB
:1014E00009F476C08091A8029091A902DC01ED91E7
:1014F000FC910284F385E02D0995F60181936F013B
:10150000FFEFEF1AFF0A20E4E216F104E9F6F12CEE
:10151000E12CCC24C394D12C61E0B1E0EB16F104B2
:1015200009F46DC1E2E0EE16F10409F472C1809194
:101530004F0390915003892B09F460E089E395E013
:101540000E94C804FFEFEF1AFF0A23E0E216F1043D
:1015500019F7312C212C95ECC92E95E0D92E29ECC8
:10156000622E26E0722E39ED432E36E0532E44EBE8
:10157000A42E47E0B42E5AE8E52E55E0F52E41E0C2
:101580002416310409F443C360914B031A82198273
:10159000C8010E94C90980914B0390919602891756
:1015A00079F080939602813409F4B5C208F06EC1D7
:1015B000823109F47EC208F03EC1813109F466C26D
:1015C0002A94232809F42ECF22242394312CD7CF18
:1015D000E114F10409F426CF3EEF3E0DF8018FEF40
:1015E0009FEF2E2F201B231788F42191822728E0BC
:1015F000AC014170552796958795452B21F041E028
:10160000842740EA9427215099F7EBCFEFEFFFEFC3
:10161000EC0FFD1FEE0DFF1D2081FE01EE0DFF1DE5
:1016200030812327322723279827892798272817AF
:10163000390709F06CCFE0915D038981E81367CF2A
:101640009A81A6E0B1E02DE031E08D91891709F48F
:10165000F1C22A173B07C9F781E0A696EFAFA6971C
:101660009058A7969FAFA797A8968FAFA89763E0CB
:10167000CE018B599F4F0E94B20249CF4D8150E05D
:10168000542F44276E81640F752F711D20916903BB
:1016900030916A03923031F0913099F520916703CF
:1016A0003091680348E061157105E1F146171706AE
:1016B000C8F14B81A42FB0E0BA2FAA274C814A0F62
:1016C0005B2F511D460F571F2417350708F4C7C25B
:1016D0006B8170E0762F66279C81690F711D8330C6
:1016E00009F45AC008F5813009F449C0823009F084
:1016F0000ECF20916103309162034E8182E090E031
:1017000045C020916B0330916C03933049F030E079
:1017100020E040E0943039F620916D0330916E0363
:1017200049E1C1CF83E099CF853009F445C0E8F1A4
:10173000863009F0ECCE40916303509164032D8113
:101740003E81322723273227A696EFAFA697A7968A
:101750008FAFA797A8967FAFA897A9966FAFA997C5
:10176000AA963FAFAA97AB962FAFAB97660F771F9E
:10177000FA01E60FF71F3183208366E079CF2091CD
:101780005F03309160034E8181E090E00E94150379
:10179000892B09F0BCCE46CE2091630330916403BF
:1017A0004E8183E00E945703F3CF2091650330916F
:1017B00066034E8184E0F6CF40915F035091600351
:1017C0002D813E81322723273227A696EFAFA69799
:1017D000A7968FAFA797A8967FAFA897A9966FAF48
:1017E000A997AA963FAFAA97AB962FAFAB97660F74
:1017F000771F640F751FDB012D933C93BECF809143
:10180000510390915203892B09F460E08BE395E03A
:1018100097CE8091530390915403892B09F460E093
:10182000E0915D04F0915E046583DA82C982C801AB
:101830000E94C90987CE833109F45AC1823309F065
:10184000BFCE84E091E00E9417050E942809F09223
:10185000AE04E092AD0469E375E08FEA94E00E9483
:101860004307F092C804E092C70469E375E089EC8D
:1018700094E00E944307F092E204E092E10469E3FD
:1018800075E083EE94E00E9443079ACE843509F414
:101890007EC1C8F5823409F45BC1833409F090CE6F
:1018A0008DEC90E00E9417050E942809F092AE048A
:1018B000E092AD0469E375E08FEA94E00E9443078B
:1018C0006BE375E08FEA94E00E944307F092C8044E
:1018D000E092C70469E375E089EC94E00E94430755
:1018E0006BE375E089EC94E00E944307F092E20418
:1018F000E092E10469E375E083EE94E00E9443071F
:101900006BE375E0BECF823609F45CC1803709F025
:1019100057CE88E690E00E94170580918E028111D3
:101920000DC01092870210928802109289021092C4
:101930008A0210928B0281E080938E020E94280915
:10194000E0915D04F0915E0499249394958281E086
:1019500090E0909354038093530380914E038F93B0
:1019600080914D038F93AAE6B2E0BF93AF931F938C
:101970000F930E943D15B8018AEA92E00E94270564
:101980008DE493E090938D0280938C022FB7F894AE
:101990008091A0029091A102A091A202B091A30215
:1019A0002FBF8093880290938902A0938A02B093FC
:1019B0008B029092870210928602A6E8B2E0B09362
:1019C0006E04A0936D04ECE4F6E0F0936C04E093F5
:1019D0006B0467E974E083E694E00E940E0750927E
:1019E00036044092350463E974E08DE294E00E948D
:1019F0000E07509248044092470463E974E08FE375
:101A000094E00E940E0750925A044092590463E9F0
:101A100074E081E594E00E940E078090810390902D
:101A2000820384E090E00E944B13909382038093A2
:101A300081030F900F900F900F900F900F90892BB4
:101A400031F469E671E08BE793E00E943B05E09199
:101A50008103F0918203138212828DE594E09183D9
:101A6000808380917F0390918003892B09F0C9C006
:101A7000F0938003E0937F0380917D0390917E0338
:101A8000019690937E0380937D039ACD86E591E045
:101A90000E9417050E942809D092AE04C092AD049E
:101AA000D092C804C092C704D092E204C092E1046C
:101AB00087CD8AE391E00E9417050E942809B09221
:101AC000AE04A092AD041092A6041092A504B092A8
:101AD000C804A092C7041092C0041092BF04B09230
:101AE000E204A092E1041092DA041092D90468CDC5
:101AF0008FE191E00E9417050E942809F092AE0440
:101B0000E092AD04F092C804E092C704F092E204BF
:101B1000E092E10455CD6EE472E08AEA92E00E9420
:101B200027050E942809D092AE04C092AD0469E353
:101B300075E08FEA94E00E944307D092C804C092F7
:101B4000C7046BE375E089EC94E00E944307ACCFD7
:101B500088EE90E00E9417050E942809B092AE041A
:101B6000A092AD0469E375E08FEA94E00E94430718
:101B7000B092C804A092C7046BE375E089EC94E0CE
:101B80000E944307B092E204A092E10419CD81EBD8
:101B900090E00E9417050E94280970923604609216
:101BA000350463E974E08DE294E00E940E077092C0
:101BB00048046092470467E974E08FE394E00E9470
:101BC0000E07FECC85E990E00E9417050E942809C7
:101BD000709236046092350467E974E08DE294E017
:101BE0000E940E07709248046092470463E974E013
:101BF0008FE394E00E940E0770925A046092590499
:101C0000DFCCD4011396FC93EE93129735CF6091FD
:101C10004E03E2E0F0E0FA83E983C8010E94C909BB
:101C200060914D0383E090E09A838983C8010E940C
:101C3000C909C6CC963009F44BCD953009F01ECDBC
:101C40002B8130E0322F22274C81240F311D40910F
:101C50006703509168032417350708F439CD82E0F3
:101C6000FCCC1F920F920FB60F9211242F933F932B
:101C70008F939F93AF93BF938091A0029091A10205
:101C8000A091A202B091A30230919F0223E0230F02
:101C90002D3758F50196A11DB11D20939F02809309
:101CA000A0029093A102A093A202B093A3028091FC
:101CB000A4029091A502A091A602B091A70201965C
:101CC000A11DB11D8093A4029093A502A093A6022A
:101CD000B093A702BF91AF919F918F913F912F91A8
:101CE0000F900FBE0F901F90189526E8230F0296B5
:101CF000A11DB11DD2CF1F920F920FB60F921124CA
:101D00002F933F934F935F936F937F938F939F9303
:101D1000AF93BF93EF93FF938AEA92E00E941E0471
:101D2000FF91EF91BF91AF919F918F917F916F91B3
:101D30005F914F913F912F910F900FBE0F901F9089
:101D400018951F920F920FB60F9211242F938F9315
:101D50009F93EF93FF93E091BA02F091BB028081D1
:101D6000E091C002F091C10282FD1BC09081809180
:101D7000C3028F5F8F732091C402821741F0E091FC
:101D8000C302F0E0E655FD4F958F8093C302FF91AB
:101D9000EF919F918F912F910F900FBE0F901F90F9
:101DA00018958081F4CF0F931F93CF93DF93EC01AD
:101DB00088819981009759F02A813B81261737073E
:101DC00030F081E0DF91CF911F910F9108958B0149
:101DD0006F5F7F4F0E947014009759F0998388833A
:101DE0001B830A832C813D81232B59F7FC01108230
:101DF000E8CF80E0E7CFCF93DF93EC011B861A8614
:101E00001D861C861F861E8670E060E00A960E9472
:101E1000D30E2A853B85811117C02115310519F094
:101E2000C9010E94E7131B861A861F861E861D861F
:101E30001C861D8A1C8A1F8A1E8A198E188E1B8A70
:101E40001A8ADF91CF9108951F861E8665E371E09F
:101E5000C9010E943615EDCFEF92FF920F931F93A9
:101E6000CF93DF93EC017B01FB0101900020E9F7A8
:101E700031978F01061B170BB8010E94D30E2881E2
:101E80003981811113C02115310519F0C9010E9452
:101E9000E713198218821D821C821B821A82DF912D
:101EA000CF911F910F91FF90EF9008951D830C83A8
:101EB000B701C901DF91CF911F910F91FF90EF9072
:101EC0000C9436158F929F92AF92BF92CF92DF9271
:101ED000EF92FF921F93CF93DF93EC0121E131E06A
:101EE000FC0121933193CF010E94FB0ECE014C9651
:101EF0000E94FB0ECE01C6960E94FB0E4E01F0E53D
:101F00008F0E911CC4010E94FB0E5E018AE6A80E92
:101F1000B11CC5010E94FB0E6E01E4E8CE0ED11C7F
:101F2000C6010E94FB0E60E083E00E942A0260E08E
:101F30008AE00E942A0260E08BE00E942A0261E0AF
:101F400084E00E942A0261E087E00E942A0283E086
:101F50008A831C821B821E821D8211E01F831986C8
:101F600018866EEA71E0CE010C960E942C0F1B8A37
:101F70001A8A8AE08C8F1E8E1D8E18A21F8E19A3BE
:101F80001BA21AA266EB71E0CE0186960E942C0F6E
:101F90001DA61CA68BE08EABEE24E394F12CF8AECC
:101FA000EFAAFAAEE9AE1BAF1DAE1CAE6EEB71E050
:101FB000CE01805C9F4F0E942C0FFE01EA5BFF4F19
:101FC000118210828DE0F40180833196118210829B
:101FD00032961182108232961083319611821082CD
:101FE00063ED71E0CE01865A9F4F0E942C0FFE01D7
:101FF000E05AFF4F1182108281E1F501808335960E
:1020000010833196F182E0826EEE71E0CE018C5841
:102010009F4F0E942C0F82E1F6018083359610833A
:102020003196F182E08264EF71E0CE0182579F4FDA
:102030000E942C0FFE01E256FF4F84E08083319610
:102040001082319687E08083CF55DF4F1882DF9171
:10205000CF911F91FF90EF90DF90CF90BF90AF9006
:102060009F908F900895EAEAF2E01382128288EE40
:1020700093E0A0E0B0E084839583A683B7838BE1EF
:1020800091E09183808385EC90E09587848784EC50
:1020900090E09787868780EC90E0918B808B81EC35
:1020A00090E0938B828B82EC90E0958B848B86EC16
:1020B00090E0978B868B118E128E138E148E8BE987
:1020C00094E00E94620F83E893E00E94620FA3E80D
:1020D000B3E08DE291E011969C938E9310922604CA
:1020E000109225041092300410922F0410923204A2
:1020F00010923104109234041092330410922E0482
:1021000010922D0410924204109241041092440443
:102110001092430410924604109245041092400419
:1021200010923F04109254041092530410925604DB
:1021300010925504109258041092570410925204B1
:102140001092510410926604109265041092680473
:102150001092670410926A04109269041092640449
:1021600010926304109278041092770410927A040B
:102170001092790410927C0410927B0410927604E1
:102180001092750410928A041092890410928C04A3
:1021900010928B0410928E0410928D041092880479
:1021A0001092870485E893E0909328048093270495
:1021B000E5E5F3E0F0932C04E0932B0413968D9166
:1021C0009C911497918380838FE993E090933A04D4
:1021D0008093390487E593E090933E0480933D0417
:1021E0005D968D919C915E979383828389EB93E0BA
:1021F00090934C0480934B0489E593E090935004B2
:1022000080934F04D7968D919C919583848383ED21
:1022100093E090935E0480935D041092D803AFE442
:10222000B3E015961C921E9214978BE593E0909361
:102230006204809361048091D4039091D5039783C5
:10224000868383E090E090934E0380934D038DEE60
:1022500093E09093700480936F0487E493E09093ED
:1022600074048093730487E094E0909382048093D5
:10227000810489E493E0909386048093850481E24D
:1022800094E09093940480939304B0939604A09365
:10229000950483E294E0909398048093970481E5F9
:1022A00093E090939A0480939904EBE7F3E0138210
:1022B0001282158214821782168211821082E3E73D
:1022C000F3E0138212821582148217821682118221
:1022D0001082EDE5F3E013821282158214821782D8
:1022E0001682118610861386128615861486178626
:1022F0001686118A108A11821082128A138A148A11
:10230000158A0895789484B5826084BD84B581600F
:1023100084BD85B5826085BD85B5816085BD8091B0
:102320006E00816080936E00109281008091810028
:102330008260809381008091810081608093810020
:10234000809180008160809380008091B1008460E2
:102350008093B1008091B00081608093B000809143
:102360007A00846080937A0080917A008260809302
:102370007A0080917A00816080937A0080917A005F
:10238000806880937A001092C1008AEA92E090936C
:10239000A9028093A8028FE493E090936003809356
:1023A0005F0383E090E0909368038093670385E583
:1023B00093E0909362038093610384E090E09093B4
:1023C0006A03809369038BE493E0909364038093A2
:1023D000630382E090E090936C0380936B0327E4A7
:1023E00033E0309366032093650390936E038093EC
:1023F0006D0381E080935D038CE080935E03E09148
:10240000BA02F091BB0282E08083E091B602F091C3
:10241000B7021082E091B802F091B90280E18083A6
:102420001092C202E091BE02F091BF0286E080836A
:10243000E091BC02F091BD02808180618083E091D7
:10244000BC02F091BD02808188608083E091BC0273
:10245000F091BD02808180688083E091BC02F091A0
:10246000BD0280818F7D80838091C20086608093D1
:10247000C20061E08CE00E942A0260E08CE00E94D1
:10248000FC018FE291E0A0E0B0E080936F039093B5
:102490007003A0937103B09372030E944E0989EDFB
:1024A00094E00E94780782EE99E00E9478078BED15
:1024B00096E00E9478078CEB91E00E9417058AEA6B
:1024C00092E00E94A80404E610E080E0E82E80E09C
:1024D000F82E2FB7F8948091A0029091A102A091BC
:1024E000A202B091A3022FBF40919B0250919C0287
:1024F00060919D0270919E02841B950BA60BB70BF9
:102500000A97A105B10508F443C02FB7F89480914C
:10251000A0029091A102A091A202B091A3022FBFAC
:1025200080939B0290939C02A0939D02B0939E0285
:102530008091990290919A020196B8010E943113FC
:1025400090939A0280939902C0E0809175039091D4
:102550007603C8171906E4F4E0917703F091780345
:10256000C080D18080E0309751F466E371E083E76A
:1025700093E00E943B05F6010995CF5FE6CFC817AF
:10258000D1F30280F381E02DC080D1808F5FF7CF3F
:10259000E114F10409F49DCF0E940A04882309F490
:1025A00098CF0E94000095CF83E793E00E949D089A
:1025B0008BE793E00E949D0883E893E00E94F40873
:1025C0008BE994E00C94C608F999FECF92BD81BDC9
:1025D000F89A992780B50895262FF999FECF1FBA4A
:1025E00092BD81BD20BD0FB6F894FA9AF99A0FBE3C
:1025F000019608952F923F924F925F926F927F9231
:102600008F929F92AF92BF92CF92DF92EF92FF9202
:102610000F931F93CF93DF93CDB7DEB7CA1BDB0BAE
:102620000FB6F894DEBF0FBECDBF09942A88398853
:1026300048885F846E847D848C849B84AA84B9845A
:10264000C884DF80EE80FD800C811B81AA81B98166
:10265000CE0FD11D0FB6F894DEBF0FBECDBFED017A
:102660000895AA1BBB1B51E107C0AA1FBB1FA617D9
:10267000B70710F0A61BB70B881F991F5A95A9F72B
:1026800080959095BC01CD010895EE0FFF1F059038
:10269000F491E02D09940F931F93CF93DF93823031
:1026A000910510F482E090E0E0913F05F091400543
:1026B00030E020E0B0E0A0E0309799F4211531053A
:1026C00009F44AC0281B390B24303105D8F58A811A
:1026D0009B816115710589F1FB0193838283FE0162
:1026E00011C0408151810281138148175907E0F0E0
:1026F0004817590799F4109761F012960C931297A6
:1027000013961C933296CF01DF91CF911F910F91B9
:10271000089500933F0510934005F4CF211531052E
:1027200051F04217530738F0A901DB019A01BD01AE
:10273000DF01F801C1CFEF01F9CF909340058093FD
:102740003F05CDCFFE01E20FF31F819391932250FD
:10275000310939832883D7CF20913D0530913E053B
:10276000232B41F4209102013091030130933E0567
:1027700020933D0520910001309101012115310583
:1027800041F42DB73EB74091040150910501241B3F
:10279000350BE0913D05F0913E05E217F307A0F4FB
:1027A0002E1B3F0B2817390778F0AC014E5F5F4FA7
:1027B0002417350748F04E0F5F1F50933E05409396
:1027C0003D05819391939FCFF0E0E0E09CCFCF93C4
:1027D000DF930097E9F0FC01329713821282A091F7
:1027E0003F05B0914005ED0130E020E01097A1F4E5
:1027F00020813181820F931F20913D0530913E054C
:102800002817390709F061C0F0933E05E0933D05B4
:10281000DF91CF910895EA01CE17DF07E8F54A81ED
:102820005B819E0141155105B1F7E901FB83EA8304
:1028300049915991C40FD51FEC17FD0761F48081B0
:1028400091810296840F951FE90199838883828183
:1028500093819B838A83F0E0E0E012968D919C91B6
:1028600013970097B9F52D913C911197CD010296E0
:10287000820F931F20913D0530913E05281739079F
:1028800039F6309751F51092400510923F05B093FC
:102890003E05A0933D05BCCFD383C28340815181C7
:1028A000840F951FC817D90761F44E5F5F4F888169
:1028B0009981480F591F518340838A819B8193835B
:1028C00082832115310509F0B0CFF0934005E093E4
:1028D0003F059ECFFD01DC01C0CF13821282D7CF0E
:1028E000B0E0A0E0E6E7F4E10C94FC128C01009764
:1028F00051F4CB010E944B138C01C801CDB7DEB758
:10290000E0E10C941813FC01E60FF71F9C01225024
:102910003109E217F30708F49DC0D901CD91DC918C
:102920001197C617D70798F0C530D10530F3CE01FF
:1029300004978617970708F3C61BD70B2297C193F6
:10294000D1936D937C93CF010E94E713D6CF5B01A7
:10295000AC1ABD0A4C018C0E9D1EA0913F05B09192
:102960004005512C412CF12CE12C109731F5809130
:102970003D0590913E058815990509F05CC0461605
:10298000570608F058C0809100019091010100970E
:1029900041F48DB79EB74091040150910501841B0D
:1029A000950BE817F90708F055C0F0933E05E09342
:1029B0003D05F90171836083A0CF8D919C911197A2
:1029C00012966C90129713967C901397A815B905E0
:1029D00059F56C0142E0C40ED11CCA14DB0420F18D
:1029E000AC014A195B09DA011296159780F06282F0
:1029F000738251834083D9016D937C93E114F10478
:102A000071F0D7011396FC93EE93129776CF22962E
:102A10008C0F9D1FF90191838083F301EFCFF09319
:102A20004005E0933F0569CF4816590608F42C018C
:102A30007D01D3019ACFCB010E944B137C010097FB
:102A400049F0AE01B8010E942D15C8010E94E7139C
:102A5000870153CF10E000E050CFFB01DC0102C042
:102A600001900D9241505040D8F70895FB01DC01D0
:102A700001900D920020E1F70895AEE0B0E0E3E4AC
:102A8000F5E10C9408130D891E8986E08C831A8366
:102A900009838FEF9FE79E838D83AE01475E5F4F73
:102AA0006F89788DCE0101960E9460152F8138853F
:102AB000020F131FF80110822E96E4E00C942413E9
:102AC000ABE0B0E0E6E6F5E10C94FA127C013B01E4
:102AD0008A01FC0117821682838181FFC8C1CE0161
:102AE00001965C01F7019381F30193FD859193FFBA
:102AF00081913F01882309F453C1853239F493FD54
:102B0000859193FF81913F01853229F4B70190E0CF
:102B10000E945017E7CF912C212C312CFFE1F315A7
:102B200038F08B3211F190F4803209F1833229F1BF
:102B300037FC3CC020ED280F2A3050F536FE20C06F
:102B40008AE0989E200D1124922E06C08D3291F0BD
:102B5000803371F7689430F8F30193FD859193FF0A
:102B600081913F018111DACF21C0689431F86894D6
:102B700032F8F2CF689433F8EFCF689434F8ECCFA2
:102B8000EAE02E9E200D1124222E689435F8E4CF21
:102B90008E3229F436FC04C1689436F8DDCF8C36C9
:102BA00019F4689437F8D8CF8836B1F2982F9F7D02
:102BB00095549330E0F08336A1F18337C1F183352A
:102BC00009F063C02801F2E04F0E511CF801C080EB
:102BD000D180692D70E036FC02C06FEF7FEFC60137
:102BE0000E943A174C01689437F882010AC00C5FC2
:102BF0001F4FFFE3F98388248394912C6501E894A7
:102C000037F833FE2DC0522C8114910471F55520F4
:102C100009F468CFB70180E290E00E9450175A94FF
:102C2000F6CFF801808189830E5F1F4FE4CF280122
:102C3000F2E04F0E511CF801C080D180692D70E088
:102C400036FC02C06FEF7FEFC6010E9445174C01B2
:102C50008201D5CFB70180E290E00E9450172A94FC
:102C60002814190409F0B0F7CECFF60137FC85918E
:102C700037FE81916F01B70190E00E94501751100B
:102C80005A94F1E08F1A9108BFCF843619F0893633
:102C900009F077C0F80137FE6BC0608171818281D5
:102CA00093810C5F1F4FF32DFF763F2E97FF09C0D6
:102CB00090958095709561957F4F8F4F9F4F689449
:102CC00037F82AE030E0A5010E948017C82ECA1804
:102CD0008C2C432C36FE0CC0E89440F8C91440F408
:102CE00034FE05C032FC03C0F32DFE7E4F2E892C2E
:102CF00044FE95C0FE01EC0DF11D8081803309F08A
:102D000087C0242D297E422E842D8870582E43FCA6
:102D100095C040FE8FC09C2C821418F42C0C922C71
:102D2000981844FE91C0B70180E390E00E945017CC
:102D300042FE09C088E790E041FE02C088E590E0CD
:102D4000B7010E945017C91408F48AC0CA94D12C44
:102D50009FEFC91AD90ACA0CDB1CF60182916F01D8
:102D6000B70190E00E945017AC14BD04B1F74FCFEB
:102D700060817181072E000C880B990B0E5F1F4F2D
:102D800092CFD32CE894D4F82AE030E0853739F19B
:102D9000232D297FD22E8F3601F148F48835A9F0F2
:102DA000F701868197812B96E2E10C941613803708
:102DB00049F08837A9F7D4FE02C06894D2F820E120
:102DC00030E00DC06894D4F8F6CF34FE03C0822FF3
:102DD0008660D82E20E132E002C028E030E0F80121
:102DE000D7FE0FC060817181828193810C5F1F4F7C
:102DF000A5010E948017C82ECA183D2CE89437F808
:102E000067CF6081718190E080E00E5F1F4FF0CF4F
:102E100042FC02C0839478CF8394839475CF842D31
:102E2000867809F471CFF6CFB70180E290E00E9476
:102E3000501783948214C0F3512C73CF522C58181E
:102E4000821408F46ECFF8CF842D867809F47BCFF6
:102E50008BE241FE80E247FC8DE2B70190E071CF4A
:102E6000B70180E390E00E9450179A946CCF8FEFE7
:102E70009FEF99CFFC010590615070400110D8F789
:102E8000809590958E0F9F1F0895FC0161507040B2
:102E900001900110D8F7809590958E0F9F1F08958F
:102EA0000F931F93CF93DF93182F092FEB018B8183
:102EB00081FD09C01FEF0FEF812F902FDF91CF9180
:102EC0001F910F91089582FF14C02E813F818C8144
:102ED0009D81281739073CF4E881F981CF010196DB
:102EE0009983888310838E819F8101969F838E832F
:102EF000E3CFE885F985812F0995892BA1F3DACFF6
:102F0000FA01AA27283051F1203181F1E8946F931A
:102F10006E7F6E5F7F4F8F4F9F4FAF4FB1E03ED0C0
:102F2000B4E03CD0670F781F891F9A1FA11D680F5E
:102F3000791F8A1F911DA11D6A0F711D811D911D91
:102F4000A11D20D009F468943F912AE0269F112406
:102F50003019305D3193DEF6CF010895462F47706A
:102F6000405D4193B3E00FD0C9F7F6CF462F4F70C5
:102F7000405D4A3318F0495D31FD4052419302D023
:102F8000A9F7EACFB4E0A6959795879577956795C9
:102F9000BA95C9F700976105710508959B01AC01C9
:102FA0000A2E06945795479537952795BA95C9F7F0
:102FB000620F731F841F951FA01D089511E0C5E2C5
:102FC000D1E004C0FE010E9445132196C632D1070C
:062FD000C9F7F894FFCFE1
:102FD6000000410580000102030405061000000000
:102FE60000C608EA080D08000000004004A003CD52
:102FF60003A804FE03DC03F00300000000F4081E2F
:10300600095F080D0A0051554555453A2063616E22
:103016002774207065656B206974656D2066726F14
:103026006D2071756575653A2071756575652069E0
:103036007320656D7074792E0051554555453A20BB
:10304600696E73756666696369656E74206D656D14
:103056006F727920746F20637265617465206120D8
:103066006E6577206E6F64652E00203A20496E7477
:103076006572727570746F72202D2D3E2000424F5E
:1030860054D34E203100424F54D34E203200507557
:103096006C7361646F72204F70746F636F706C61D4
:1030A600646F00504952202853656E736F72206416
:1030B60065204D6F76696D69656E746F2900504F96
:1030C60054203100504F542032005072E16374692D
:1030D60063612053656C656363696F6E6164613A11
:1030E6002030782558005049522061637469766112
:1030F600646F3A202564005469656D706F204163E2
:10310600746976616369F36E2064656C2050495278
:103116003A20256420536567756E646F73005034DA
:103126002050554C5341444F5245532053656C65CE
:103136006363696F6E61646F200056616C6F722005
:103146004D425F544D505F5049523A20256400006D
:00000001FF
