:100000000C9465010C948D010C948D010C948D0160
:100010000C948D010C948D010C948D010C948D0128
:100020000C948D010C948D010C948D010C948D0118
:100030000C948D010C948D010C948D010C948D0108
:100040000C94C9130C948D010C9439140C94131452
:100050000C948D010C948D010C948D010C948D01E8
:100060000C948D010C948D015031302053656C65DA
:100070006363696F6E616461202D2D3E20436F6E56
:1000800074726F6C20646520676172616A650050EC
:1000900031302053656C656363696F6E6164612004
:1000A0002D2D3E20436F6E74726F6C20646520703E
:1000B00065727369616E6173005030392053656CED
:1000C000656363696F6E616461202D2D3E20536509
:1000D0006E736F72657320416E616CEFBFBD6769AF
:1000E000636F732028416C6C2900503037205365B2
:1000F0006C656363696F6E616461202D2D3E2053D2
:10010000656E736F72204D6F76696D69656E746F81
:1001100020285049522900503620494E5445525209
:100120005550544F522053656C656363696F6E611F
:10013000646F00503520494E544552525550544F2B
:10014000522053656C656363696F6E61646F005024
:100150003420434F4E4D555441444F522053656C0B
:10016000656363696F6E61646F00503420494E545B
:100170004552525550544F522053656C6563636924
:100180006F6E61646F0050342050554C5341444FA2
:100190005245532053656C656363696F6E61646F8C
:1001A0002000503320434F4E4D555441444F522070
:1001B00053656C656363696F6E61646F00503120D5
:1001C000434F4E4D555441444F522053656C656327
:1001D00063696F6E61646F00503120494E5445521F
:1001E000525550544F522053656C656363696F6E6E
:1001F00061646F0050312050554C5341444F52457B
:10020000532053656C656363696F6E61646F004F63
:100210004646004F4E00202D2D3E2050756C7361D8
:10022000646F00202D2D3E20536F6C7461646F004D
:100230004F4646004F4E00436F6E6D757461646F9C
:1002400072202D2D3E20004153594E5741495420D4
:100250005445524D494E41444F00312E3200322E0A
:100260003200332E32003300320031000000000033
:10027000240027002A0000000000250028002B0091
:1002800000000000230026002900040404040404E4
:100290000404020202020202030303030303010235
:1002A0000408102040800102040810200102040804
:1002B00010200000000800020100000304070000F5
:1002C0000000000000003416DA1911241FBECFEF21
:1002D000D8E0DEBFCDBF26E0AAE8B2E001C01D92A3
:1002E000AC3AB207E1F712E0A0E0B1E0E4EEF1E4ED
:1002F00002C005900D92AA38B107D9F711E0C4E603
:10030000D1E004C02197FE010E94221CC336D10710
:10031000C9F70E94F3170C94E5200C9400008F920B
:100320009F92AF92BF92CF92DF92EF92FF92CF93C4
:10033000DF93EC01E881F98161817281072E000C65
:10034000880B990B0E94EC192FEF3FEF4FE95BE30D
:100350000E94271A20E030E040E05FE30E944C1B3F
:1003600020E030E048EC52E40E94271A4B015C0187
:100370000E94B91B6B01072E000C880B990B0E9481
:10038000EC199B01AC01C501B4010E944C1B20E09B
:1003900030E048EC52E40E94271A0E94B91B6233F5
:1003A00071055CF08FEFC81AD80AB601DD0C880B16
:1003B000990B0E94EC194B015C010C80DD81C02D72
:1003C000C501B4010E94B91B18826983DF91CF91E6
:1003D000FF90EF90DF90CF90BF90AF909F908F9065
:1003E0000895833081F028F4813099F08230A9F0AB
:1003F00008958730A9F08830C9F08430B1F4809135
:1004000080008F7D03C0809180008F778093800073
:10041000089584B58F7784BD089584B58F7DFBCF13
:100420008091B0008F778093B00008958091B000E4
:100430008F7DF9CF0F931F93CF93DF93FC0125811D
:10044000222309F455C0EC0186819781009731F091
:10045000019709F437C090E080E023C0208130E0AC
:10046000F901EE54FD4F8491F901E256FD4F0491DC
:10047000F901E657FD4F1491112369F381110E9490
:10048000F101E12FF0E0EE0FFF1FE058FD4FA591C5
:10049000B491EC910E2331E020E009F430E0832F99
:1004A000922F29813A812817390711F19A8389837C
:1004B000E889F9893097E1F0CE01DF91CF911F9162
:1004C0000F91099480818E3008F08E50877080647F
:1004D00080937C0080917A00806480937A00809180
:1004E0007A0086FDFCCF8091780090917900D9CF79
:1004F000DF91CF911F910F910895CF93DF93EC017E
:10050000888199810E941A02EC81FD81A881B981BC
:1005100011968D919C91208131812817390751F0D6
:1005200091838083EE85FF85309721F0CE01DF91A6
:10053000CF910994DF91CF9108951F93CF93DF93CB
:10054000282F30E0F901EE54FD4F8491F901E25675
:10055000FD4FD491F901E657FD4FC491CC23A9F08A
:10056000162F81110E94F101EC2FF0E0EE0FFF1F1A
:10057000EA58FD4FA591B4918FB7F894EC91111101
:1005800008C0D095DE23DC938FBFDF91CF911F9100
:100590000895DE2BF8CFCF93DF9390E0FC01E25675
:1005A000FD4F249186579D4FFC0184918823D1F003
:1005B00090E0880F991FFC01E459FD4FA591B4917B
:1005C000FC01EA58FD4FC591D49161110EC09FB74F
:1005D000F8948C91E22FE0958E238C932881E2236E
:1005E000E8839FBFDF91CF9108958FB7F894EC9186
:1005F000E22BEC938FBFF6CF3FB7F8948091CE02F9
:100600009091CF02A091D002B091D10226B5A89BC3
:1006100005C02F3F19F00196A11DB11D3FBFBA2F94
:10062000A92F982F8827BC01CD01620F711D811D54
:10063000911D42E0660F771F881F991F4A95D1F7D9
:1006400008958F929F92AF92BF92CF92DF92EF92D6
:10065000FF924B015C010E94FC026B017C010E9435
:10066000FC026C197D098E099F09683E7340810563
:100670009105A8F321E0821A9108A108B10888EE3B
:10068000C80E83E0D81EE11CF11C81149104A10462
:10069000B10429F7FF90EF90DF90CF90BF90AF901B
:1006A0009F908F9008950F931F93CF93DF938C01AA
:1006B000C62F8091AF03823074F09091C000906497
:1006C0009093C00061E00E949D0261E070E080E0D4
:1006D00090E00E942103902FF8012FEF3FEF8191CE
:1006E000282788E0A9014170552736952795452B85
:1006F00021F041E0242740EA3427815099F78E2FDA
:10070000891B8C1760F3322723273227F801EC0F5F
:10071000F11D3083E1E0EC0FE00FF12FF11D20839C
:10072000CE5F8091D2029091D302D0E0DC01ED91B6
:10073000FC910280F381E02DAE01B80109956AE0D9
:1007400070E080E090E00E9421038091AF0382304E
:100750003CF09091C00096FFFCCF60E00E949D02AB
:10076000CE01DF91CF911F910F9108950F931F93A9
:10077000CF93DF93CDB7DEB7C054D1090FB6F8944D
:10078000DEBF0FBECDBF9091AE0399838A8381E017
:100790008B83DB01AA0FBB1FA20FB31FCB0120E08D
:1007A000460F572F511D382F361B8417950770F4AD
:1007B0000D911D91E1E0F0E0012B09F4E0E001C0B2
:1007C000EE0F3A95EAF72E2B0196EDCF2C8364E0DD
:1007D000CE0101960E945303C05CDF4F0FB6F89420
:1007E000DEBF0FBECDBFDF91CF911F910F91089556
:1007F000EF92FF920F931F93CF93DF93CDB7DEB7A6
:10080000C054D1090FB6F894DEBF0FBECDBF909192
:10081000AE0399838A83842F880F8B83CB01880F43
:10082000991F280F391FDE0111967B0163E070E0EC
:10083000CD014E0D5F2D511D1296E416F50688F47C
:10084000F901108101812E5F3F4F11960C93119792
:1008500012961C9312976E5F7F4FFFEFEF1AFF0AFD
:10086000EBCF0E945303C05CDF4F0FB6F894DEBF9E
:100870000FBECDBFDF91CF911F910F91FF90EF90F1
:1008800008952FB7F8946091CA027091CB028091BD
:10089000CC029091CD022FBF0895AF92BF92CF921C
:1008A000DF92EF92FF920F931F93CF93DF936C0130
:1008B0007B018B01040F151FEB015E01AE18BF0811
:1008C000C017D10759F06991D601ED91FC910190C3
:1008D000F081E02DC6010995892B79F7C501DF91DB
:1008E000CF911F910F91FF90EF90DF90CF90BF902D
:1008F000AF900895FC01538D448D252F30E0842F57
:1009000090E0821B930B541710F0CF960895019737
:100910000895FC01918D828D981761F0A28DAE0F24
:10092000BF2FB11D5D968C91928D9F5F9F73928FAB
:1009300090E008958FEF9FEF0895FC01918D828DD7
:10094000981731F0828DE80FF11D858D90E00895A4
:100950008FEF9FEF0895FC01918D228D892F90E0FC
:10096000805C9F4F821B91098F739927089581EEB8
:1009700092E00E94AB0421E0892B09F420E0822F51
:10098000089580E090E0892B29F00E94B70481113E
:100990000C9400000895FC01A48DA80FB92FB11D7F
:1009A000A35ABF4F2C91848D90E001968F739927A5
:1009B000848FA689B7892C93A089B1898C91837083
:1009C00080648C93938D848D981306C00288F3897C
:1009D000E02D80818F7D80830895EF92FF920F93A9
:1009E0001F93CF93DF93EC0181E0888F9B8D8C8DDB
:1009F00098131AC0E889F989808185FF15C09FB7CF
:100A0000F894EE89FF896083E889F9898081837091
:100A1000806480839FBF81E090E0DF91CF911F9140
:100A20000F91FF90EF900895F62E0B8D10E00F5F61
:100A30001F4F0F731127E02E8C8D8E110CC00FB637
:100A400007FCFACFE889F989808185FFF5CFCE01CF
:100A50000E94CB04F1CFEB8DEC0FFD2FF11DE35A7B
:100A6000FF4FF0829FB7F8940B8FEA89FB89808152
:100A70008062CFCF0F931F93CF93DF938C01D0E091
:100A8000C0E0F801EC0FFD1F6491662341F081EE98
:100A900092E00E94ED04892B11F02196F2CFCE0155
:100AA000DF91CF911F910F910895CF93DF93EC01C8
:100AB000888D8823B9F0AA89BB89E889F9898C9146
:100AC00085FD03C0808186FD0DC00FB607FCF7CF02
:100AD0008C9185FFF2CF808185FFEDCFCE010E9402
:100AE000CB04E9CFDF91CF9108951F93CF93DF938C
:100AF000FC012181261731F0162FEC0180810E9424
:100B00009D021983DF91CF911F910895CF93DF93B9
:100B1000EC0161307105A9F030F06230710599F097
:100B200063307105B9F460E0CE0180519F4F0E949F
:100B3000750560E0CE018E509F4FDF91CF910C94F0
:100B4000750561E0F1CF61E080519F4F0E9475050E
:100B500061E0F0CFDF91CF9108950F931F93CF9372
:100B6000DF93EC010E9441040A811B812C813D81AD
:100B7000601771078207930738F500951095209547
:100B80003095600F711F821F931FEE81FF8140819E
:100B9000518128EE33E0429F8001439F100D529F08
:100BA000100D112430E020E06017710782079307D1
:100BB00080F019821A821B821C821D8280E0DF91E4
:100BC000CF911F910F910895601B710B820B930BB6
:100BD000DCCF81E0F4CF2091A4033091A503232B37
:100BE00041F5DC01ED91FC910190F081E02DA081B7
:100BF000B18111962D913C91129780899189892B11
:100C000069F013968D919C918217930781F081E092
:100C100090E09093A5038093A40308950488F58938
:100C2000E02D81E0408151814217530708F480E0B4
:100C3000089581E008958F929F92AF92BF92CF92D4
:100C4000DF92EF92FF921F93CF93DF93EC01162F69
:100C5000E881F9810190F081E02DC780D084E184A2
:100C6000F2840E944104E881F9810190F081E02D35
:100C700081809280A380B4809B01AC01281939093E
:100C80004A095B09A12F110FBB0B0E94281CC60E3D
:100C9000D71EE81EF91EC782D086E186F286C5817E
:100CA000D681F7FE3BC017821086118612862781F7
:100CB000308541855285A4E6B0E00E94FB1A288168
:100CC000398150E040E00E94031CC22FCA01622F0C
:100CD000732F25E030E040E050E00E94031C6330B9
:100CE0007105810591050CF0CB5FC61BD0E08091AA
:100CF000880390918903C817D90721F0D0938903FD
:100D0000C0938803DF91CF911F91FF90EF90DF9008
:100D1000CF90BF90AF909F908F9008952881398198
:100D20002C153D0520F6C901B0E0A0E0878390872F
:100D3000A187B287BCCFEF92FF920F931F93CF93FF
:100D4000DF9300D000D0CDB7DEB78C0184ED92E008
:100D50009C838B83CE0103969A838983013011058E
:100D6000E1F0B8F10230110509F10330110589F104
:100D70001093E0020093DF020F900F900F900F90FE
:100D8000DF91CF911F910F91FF90EF9008956FEF3A
:100D9000CE0101960E941B06EBCF8091D4026FEF2B
:100DA000811109C081E08093D40209C08091D402EE
:100DB0008823C1F361E0CE0101960E941B06EB80FF
:100DC000FC800E944104F7016183728383839483D2
:100DD000CFCF1092D4028091DF029091E002813057
:100DE0009105A9F2029721F661E0D2CF60919403B8
:100DF00070919503CB019927E091AE05F091AF0575
:100E000040815181E091B205F091B305208131819B
:100E10008130910549F1C0F082309105F1F08330C5
:100E2000910561F16817790799F190939503809383
:100E300094030E949B066091940370919503772719
:100E400086ED93E00C948605452B11F082E090E04E
:100E5000232B41F381E090E0E5CF452B19F7232BBD
:100E600089F083E090E0DECF452B79F451E040E05B
:100E7000232B09F450E0852F942FD4CF452B91F6E6
:100E8000232B81F690E080E0D0CF232B59F6E9CFD9
:100E90000895CF93DF93EC010E9441046A837B8322
:100EA0008C839D8381E089831882DF91CF9108959F
:100EB00080918A0390918B038035910580F486EBB5
:100EC00095E00E941A0280ED95E00E941A028AEED7
:100ED00095E00E941A0284E096E00C941A028CECD1
:100EE00094E00E947D0284EE94E00E947D028CEFEB
:100EF00094E00E947D0284E195E00E947D028CE2F4
:100F000095E00E947D0284E495E00E947D028CE5DC
:100F100095E00E947D0284E795E00E947D028CE8C6
:100F200095E00C947D02FB0101900020E9F73197D8
:100F3000AF01461B570BDC01ED91FC910280F38160
:100F4000E02D0994CF93DF930E943A05EC016CE306
:100F500071E081EE92E00E9493078C0F9D1FDF915C
:100F6000CF9108950F931F93CF93DF93EC010E94CD
:100F700093078C016CE371E0CE010E949307800F10
:100F8000911FDF91CF911F910F9108950F931F93A0
:100F9000CF93DF938C01EB0181EE92E00E94B207C8
:100FA000F80180819181009739F0BE01DF91CF91E6
:100FB0001F910F910C94B207DF91CF911F910F9168
:100FC0000895EF92FF920F931F93CF93DF938C01BD
:100FD000D62FC0E0D80112968D919C911397C81717
:100FE0001906E4F41496ED91FC91E080F18080E024
:100FF000309759F46FE371E0C8010E94C6076D2F66
:10100000C7010E947505CF5FE5CFC817C1F3028005
:10101000F381E02DE080F1808F5FF7CFDF91CF91FA
:101020001F910F91FF90EF900895CF93DF93EC0104
:101030004B815C8129813A814217530771F587E31F
:1010400092E00E943A058091C1029091C202892BE0
:10105000E9F481E090E09093C2028093C10284E3BE
:1010600092E00E94A2078C899D8918161906ACF49B
:1010700061E08091C1029091C202892B09F460E085
:10108000CE014296DF91CF910C94E1071092C202FB
:101090001092C10280E392E0E4CFDF91CF910895F6
:1010A000CF93DF93EC014E855F856A857B8581EE6A
:1010B00092E00E944D042B813C8189819A812817FE
:1010C0003907C1F483E292E00E94A2078C899D89CE
:1010D0001816190694F461E02B813C8189819A816C
:1010E0002817390709F460E0CE014296DF91CF91CD
:1010F0000C94E10786E192E0E7CFDF91CF9108956C
:10110000CF93DF93DC011496ED91FC91C081D181E6
:10111000309741F46FE371E00E94C607CE01DF9182
:10112000CF91089580E08617C9F30280F381E02D06
:10113000C081D1818F5FF7CFDF92EF92FF920F9343
:101140001F93CF93DF938C017B01D0E0C0E0262F6B
:101150002170D22ED80112968D919C91C817D90773
:101160001CF56C2FC8010E948008DC011296ED91DD
:10117000FC916D2DB2E0EB16F10431F461E02081B9
:101180003181232B09F060E0262F30E0408151812E
:101190004217530739F031832083FC01808191810C
:1011A0000E9475052196D6CFDF91CF911F910F91A7
:1011B000FF90EF90DF900895CF93DF93EC01E881EB
:1011C000F981AC89BD89418152812D913C912417CF
:1011D000350790F020853185232B59F461E070E0CC
:1011E00006960E949C08E881F98181E090E0918751
:1011F0008087DF91CF91089511861086FACFCF9323
:10120000DF93EC01EC89FD8940815181EA89FB89FA
:10121000208131812417350774F1E881F9818085B7
:1012200091858130910541F08230910599F01092BD
:101230009903109298030BC0218132814217530702
:10124000B4F061E070E0CE0106960E949C0882E056
:1012500090E00DC0418152814217530744F070E085
:1012600060E0CE0106960E949C0881E090E0E88153
:10127000F98191878087DF91CF910895CF93DF9394
:10128000EC01E881F9818889998943815481218120
:1012900032814217530751F00E94490761E070E024
:1012A000CE010696DF91CF910C949C08FC01218120
:1012B000211110C0E889F989808181110FC087E46C
:1012C00092E00E94A207E889F98981E0808370E0BA
:1012D00060E0E6CF0E94AD05882361F3DF91CF91F6
:1012E0000895DC01ED91FC9143815481218132818B
:1012F0004217530729F462E070E006960C949C08AC
:1013000008950C947109CF92DF92EF92FF921F9390
:10131000CF93DF937C01D0E0C0E06C0186E0C80E83
:10132000D11CD70118968D919C911997C817D90790
:10133000CCF4ED91FC9111E0218132818381948183
:101340002817390709F410E06C2FC6010E948008A5
:10135000DC011296ED91FC91812F90E091838083C6
:101360002196DFCFDF91CF911F91FF90EF90DF901B
:10137000CF900C94F6060F931F93CF93DF93DC016D
:10138000ED91FC9111970190F081E02D0088F18999
:10139000E02D309749F077836683CF01DF91CF91BD
:1013A0001F910F910C9449071296ED91FC91808149
:1013B0009181FC012281338112161306A4F4EB0102
:1013C0000480F581E02D00811181EF2B21F46FE382
:1013D00071E00E94C607D80150968D919C91FC0146
:1013E000D783C683DBCFDF91CF911F910F910895F3
:1013F000EF92FF920F931F93CF93DF93EC017B014A
:101400000E811F8184E090E00E94521C9F838E8396
:10141000892B29F462E771E0CE010E94C607EE81B4
:10142000FF8113821282F182E0828C819D81892B5F
:1014300071F4FD83EC838A819B8101969B838A836F
:10144000DF91CF911F910F91FF90EF900895D801F8
:101450001396FC93EE931297EECFEF92FF920F93B9
:101460001F93CF93DF93EC017B010E811F8184E0FA
:1014700090E00E94521C9F838E83892B29F462E79F
:1014800071E0CE010E94C607EE81FF8113821282B5
:10149000F182E0828C819D81892B71F4FD83EC8344
:1014A0008A819B8101969B838A83DF91CF911F91D3
:1014B0000F91FF90EF900895D8011396FC93EE934F
:1014C0001297EECFEF92FF920F931F93CF93DF937C
:1014D000EC017B010E811F8184E090E00E94521C90
:1014E0009F838E83892B29F462E771E0CE010E94ED
:1014F000C607EE81FF8113821282F182E0828C8125
:101500009D81892B71F4FD83EC838A819B810196F7
:101510009B838A83DF91CF911F910F91FF90EF9072
:101520000895D8011396FC93EE931297EECF0F9384
:101530001F93CF93DF938C01C091CC03D091CD0347
:1015400084E090E00E94521C9093CD038093CC03E2
:10155000892B31F462E771E086EC93E00E94C607C4
:10156000E091CC03F091CD031382128211830083AA
:101570008091CA039091CB03892B91F4F093CB0314
:10158000E093CA038091C8039091C9030196909398
:10159000C9038093C803DF91CF911F910F910895E4
:1015A000FB83EA83EFCFCF92DF92EF92FF920F930C
:1015B0001F93CF93DF93CDB7DEB7CE56D1090FB6C9
:1015C000F894DEBF0FBECDBF6C018091A5038F9351
:1015D0008091A4038F9383EA91E09F938F93CE0130
:1015E00001967C019F938F930E94441EB70181EE68
:1015F00092E00E94B207AB96DFAECEAEAB97009101
:101600009403109195031127FE01E559FF4FD60170
:1016100056968D919C919183808389E690E08C0F02
:101620009D1FAF969FAF8EAFAF97A7969FAF8EAF20
:10163000A797A996FFAFEEAFA9970F900F900F90C5
:101640000F900F900F9080910201833409F4AEC087
:1016500068F5813409F43FC0823409F492C0809166
:101660009403909195038017910781F0109395034F
:1016700000939403E091CA04F091CB040688F789A3
:10168000E02D309719F085E090E00995C259DF4FC1
:101690000FB6F894DEBF0FBECDBFDF91CF911F9183
:1016A0000F91FF90EF90DF90CF900895843409F46C
:1016B000A9C08534A1F6F60180899189009779F255
:1016C000DC0111962C912111B9C082E480930201B2
:1016D00002E010E0C4CF8AE692E00E94A207AB9637
:1016E000EEADFFADAB9780899189892B09F444C099
:1016F00088E692E00E94A2078091A4039091A5033E
:1017000099279F938F9387EB91E09F938F93FF92FD
:10171000EF920E94441EB70181EE92E00E94B20750
:10172000AB96EEADFFADAB970480F581E02D0F9049
:101730000F900F900F900F900F9080819181892BC7
:1017400031F48091A4039091A503892B89F086E65A
:1017500092E00E94A2071092A5031092A40382E4D3
:101760008093020182E692E00E94A20702E010E06C
:101770008EE592E00E94A2078AE592E00E94A2070D
:101780006ECF80918803909189038436910508F487
:1017900066CF83E48093020164E171E0CE018B594E
:1017A0009F4F0E94BB0910E000E059CFCE01835942
:1017B0009F4F0E94EB05882361F01092A5031092C1
:1017C000A40364E171E0CE018B599F4F0E94BB09D5
:1017D00046CFAB96EEADFFADAB9780899189009770
:1017E00009F43DCFDC0111962C91211106C084E44F
:1017F0008093020101E010E032CF0E94AD0581111B
:101800002ECFF5CFCE0183599F4F0E94EB05882341
:1018100051F01092A5031092A40385E48093020175
:1018200062E171E0BBCF80918C0390918D03892B95
:1018300009F015CF81E480930201B5CF0E94AD0578
:1018400081110DCF42CFCF93DF93EC012B813C81EF
:1018500089819A8128173907D1F44E855F856A8579
:101860007B8581EE92E00E944D0463EC71E081EE95
:1018700092E00E94930788859985892BC9F481E0BD
:1018800090E09987888783E192E00E94A2078C8983
:101890009D89181619068CF461E088859985892B35
:1018A00009F460E0CE014296DF91CF910C94E107FC
:1018B000198618868FE092E0E8CFDF91CF910895E6
:1018C0000F931F93CF93DF93EC018C819D81009741
:1018D00069F0FC01028113810E94EE1C1D830C83C0
:1018E0008A819B8101979B838A83EFCF81E0DF917F
:1018F000CF911F910F910895CF93DF93EC01449600
:101900000E94600C1B8A1A8ACE018E960E94600C7F
:101910001DA61CA6CE01885B9F4F0E94600CFE0195
:10192000EA5BFF4F11821082CE018E599F4F0E94B9
:10193000600CFE01E05AFF4F118210827A961182EC
:101940001082CE0184589F4F0E94600CFE01EC561D
:10195000FF4F11821082CE018A569F4FDF91CF91A7
:101960000C94600C0F931F93CF93DF93EC018C8149
:101970009D81009769F0FC01028113810E94EE1C99
:101980001D830C838A819B8101979B838A83EFCF80
:1019900081E0DF91CF911F910F910895CF93DF9355
:1019A000EC0184509F4F0E94B20CFE01EC5FFE4F91
:1019B00011821082CE018C5E9E4F0E94B20CFE01FD
:1019C000E45EFE4F11821082CE01845D9E4F0E9424
:1019D000B20CFE01EC5CFE4F11821082CE018C5BDA
:1019E0009E4F0E94B20CFE01E45BFE4F11821082FA
:1019F000789611821082CE01845A9E4F0E94B20CBA
:101A0000FE01E458FE4F11821082CE018C589E4F89
:101A10000E94B20CFE01EC56FE4F11821082CE01E4
:101A200084579E4F0E94B20CFE01EC53FE4F118270
:101A30001082CE0184549E4FDF91CF910C94B20C52
:101A40000F931F93CF93DF93EC010C811D81012B2A
:101A500051F08C819D81FC01028113810E94EE1C5A
:101A60001D830C83F4CFDF91CF911F910F910895C7
:101A7000CF93DF93EC0142960E94200D8A859B85CF
:101A8000009721F0DF91CF910C94EE1CDF91CF9164
:101A90000895CF93DF93EC018AE191E099838883E5
:101AA000CE018E529F4F0E94380DCE0188549F4F19
:101AB0000E94380DCE0182569F4F0E94380DCE01F4
:101AC0008C579F4F0E94380DCE0186599F4F0E9420
:101AD000380DCE01805B9F4F0E94380DCE01C69617
:101AE0000E94380DCE014C960E94380DCE01029610
:101AF000DF91CF910C94380DCF93DF93EC010E94CE
:101B0000490DCE01DF91CF910C94EE1CCF93DF9362
:101B1000EC0186E391E099838883CE0184549E4F43
:101B20000E94200DCE018C559E4F0E94200DCE01AB
:101B300084579E4F0E94200DCE018C589E4F0E94CC
:101B4000200DCE01845A9E4F0E94200DCE018C5B49
:101B50009E4F0E94200DCE01845D9E4F0E94200D5D
:101B6000CE018C5E9E4F0E94200DCE0184509F4F6F
:101B70000E94200DCE01DF91CF910C94490DCF939F
:101B8000DF93EC010E94860DCE01DF91CF910C9482
:101B9000EE1CEF92FF920F931F93CF93DF93EC0114
:101BA0008C819D81892B29F467ED71E0CE010E9423
:101BB000C6078C819D81FC0100811181E280F38048
:101BC0000E94EE1CFD82EC828A819B8101979B839F
:101BD0008A83C801DF91CF911F910F91FF90EF9001
:101BE000089584EB95E00E947C0C86ED93E00E94C2
:101BF000CE0C8091D2039091D303892B29F08EECE7
:101C000093E00E94C90DF5CF08951F93CF93DF9302
:101C1000EC01162F0E94E51A181739F0612FCE013A
:101C2000DF91CF911F910C94ED1ADF91CF911F910D
:101C300008952F923F924F925F926F927F928F9270
:101C40009F92AF92BF92CF92DF92EF92FF920F934B
:101C50001F93CF93DF93CDB7DEB7C456D1090FB62C
:101C6000F894DEBF0FBECDBF10E000E045E1E42EEA
:101C700048E0F42ECE0101966C0151E8A52E59E002
:101C8000B52E69E0462E61E0562E73E8672E79E0A6
:101C9000772EEFE52E2EE2E03E2E0330110509F4FB
:101CA0003CC30CF044C00130110509F41EC30230DE
:101CB000110509F427C360918A0390E080E00E9437
:101CC000050E80918A039091B202891789F0809362
:101CD000B202833409F46CC108F06EC0833109F498
:101CE00026C1F0F5813109F4ECC0823109F4FEC05F
:101CF0000F5F1F4F0630110581F6CC59DF4F0FB62D
:101D0000F894DEBF0FBECDBFDF91CF911F910F9131
:101D1000FF90EF90DF90CF90BF90AF909F908F900B
:101D20007F906F905F904F903F902F900895043078
:101D3000110509F4FDC20530110509F0BCCF8091F1
:101D400094039091950399270E949B0660919403B8
:101D500070919503772786ED93E00E948605C8CFA2
:101D6000813409F4F7C008F018C1823309F682EA19
:101D700091E00E94A2070E94F10DF092C705E09247
:101D8000C60560EA76E088EC95E00E94620AF0926F
:101D9000E105E092E00560EA76E082EE95E00E94DF
:101DA000620AF092FB05E092FA0560EA76E08CEFB9
:101DB00095E00E94620A9CCF803709F449C148F53A
:101DC000843509F428C1823609F092CF87E191E089
:101DD0000E94A2070E94F10D81E7882E89E0982ECB
:101DE0009092DB048092DA0468EA75E082ED94E078
:101DF0000E942D0A9092F3048092F20464EA75E046
:101E00008AEE94E00E942D0A90920B0580920A05BA
:101E10006FCF803A09F499C1813A09F4BFC1803982
:101E200009F066CF89EB90E00E94A2070E94F10DB5
:101E300080E993E090937105809370058EE893E0BC
:101E400090936F0580936E058FEF98E090936B05EC
:101E500080936A0568EA75E082E695E00E942D0AA3
:101E600082E993E09093A1058093A0058CED98E022
:101E700090939B0580939A0564EA75E082E995E06A
:101E80000E942D0AB092DB04A092DA0464EA75E0A5
:101E900082ED94E00E942D0AB092F304A092F20425
:101EA00064EA75E08AEE94E00E942D0AB0920B0578
:101EB000A0920A0564EA75E082E095E00E942D0A8E
:101EC00017CF84EF91E00E94A2070E94F10D80E5F8
:101ED00098E09093C7058093C6059093E1058093A1
:101EE000E0059093FB058093FA0502CF88ED91E021
:101EF0000E94A2070E94F10D83E29CE09093C70527
:101F00008093C6051092BF051092BE059093E1051F
:101F10008093E0051092D9051092D8059093FB05A7
:101F20008093FA051092F3051092F205E1CE8DEB45
:101F300091E00E94A2070E94F10DF092C705E09285
:101F4000C605F092E105E092E005F092FB05E09213
:101F5000FA05CECE86E891E00E94A2070E94F10D1C
:101F600030E5832E38E0932E9092C7058092C60507
:101F700060EA76E088EC95E00E94620A9092E105C2
:101F80008092E00562EA76E082EE95E00E94620AC5
:101F90009092FB058092FA05ABCE8AE691E00E9412
:101FA000A2070E94F10D23E2822E2CE0922EDCCFBC
:101FB0008FE491E00E94A2070E94F10DF092C70504
:101FC000E092C60560EA76E088EC95E00E94620A3D
:101FD00062EA76E088EC95E00E94620AF092E10500
:101FE000E092E00560EA76E082EE95E00E94620A07
:101FF00062EA76E082EE95E00E94620AF092FB05CA
:10200000E092FA0560EA76E08CEF95E00E94620AC1
:1020100062EA76E0CCCE83E391E00E94A2070E94C0
:10202000F10D91E7892E99E0992E9092DB04809230
:10203000DA0464EA75E082ED94E00E942D0A909241
:10204000F3048092F20468EA75E08AEE94E036CFF9
:102050008AEE90E00E94A2078091AA0281110DC031
:102060001092A3021092A4021092A5021092A6024E
:102070001092A70281E08093AA020E94F10DE091E4
:102080001405F091150581E0858381E090E090933F
:102090009B0380939A0380918D038F9380918C038F
:1020A0008F938AE492E09F938F93DF92CF920E9466
:1020B000441EB60181EE92E00E94B2078CE893E0E4
:1020C0009093A9028093A80282EA92E00E944907B5
:1020D00082EA92E090932505809324058EE399E0AF
:1020E000909323058093220568EA75E08AE195E0E4
:1020F0000E942D0AB092DB04A092DA0464EA75E033
:1021000082ED94E00E942D0AB092F304A092F204B2
:1021100064EA75E08AEE94E00E942D0AB0920B0505
:10212000A0920A0564EA75E082E095E00E942D0A1B
:1021300064E175E08EEC93E00E94F8090F900F9037
:102140000F900F900F900F90D3CD8FE890E00E94EA
:10215000A2070E94F10D1092D4025092DA0240922E
:10216000D9021092D5021092D6021092D702109284
:10217000D80286ED93E00E94CE0C7092DB04609250
:10218000DA046CEA75E082ED94E00E942D0A709208
:10219000F3046092F20460EB75E057CF88E690E0BC
:1021A0000E94A20780919A0281110DC010929302A1
:1021B0001092940210929502109296021092970239
:1021C00081E080939A0280918A02811113C010925B
:1021D000BC021092BB021092BE021092BD0210927D
:1021E000C0021092BF021092BA021092B90281E0AE
:1021F00080938A0280E091E0909399028093980204
:1022000082E992E00E9449071092D4025092DA02C9
:102210004092D9021092DB021092DC021092DD0291
:102220001092DE020E94F10D8091BD029091BE02DB
:10223000892B29F089EB92E00E94C90DF5CF6CEC57
:1022400074E089EB92E00E94F8098091A5038F93D6
:102250008091A4038F933F922F92DF92CF920E949E
:10226000441EB60181EE92E00E94B20783ED9AE02F
:102270009093DB048093DA0422E932E03093DD04AA
:102280002093DC0422E933E03093A1052093A005DC
:1022900010929D0510929C0590939B0580939A0542
:1022A00089EB92E09093A3058093A2058091A5030A
:1022B0008F938091A4038F9385E792E09F938F93F0
:1022C000DF92CF920E94441EB60181EE92E00E94FE
:1022D000B2076CEC74E08EEC93E00E94F8090FB644
:1022E000F894DEBF0FBECDBF03CD60918D0382E0B9
:1022F00090E00E94050E60918C0383E090E00E94C4
:10230000050EF6CC60918F0385E090E00E94050EEB
:1023100060918E0386E090E0F2CF6091910387E0B8
:1023200090E00E94050E6091900388E090E0E7CF76
:10233000609193038AE090E00E94050E6091920301
:102340008BE090E0DCCFCF93DF93D0E0C0E0C730EC
:10235000D105C0F4FE01E155FE4E0C94221CB611CD
:10236000C911D411E611F6110612061261E080912E
:10237000960390919703892B09F460E080EA96E038
:102380000E9475052196C830D10509F7DF91CF91DC
:10239000089561E08091980390919903892B09F445
:1023A00060E082EA96E0ECCF61E080919A03909140
:1023B0009B03892B09F460E0E0911405F091150569
:1023C000658381E090E00E94050EDCCF61E08091A2
:1023D0009C0390919D03892B09F460E0E0915C05DA
:1023E000F0915D05658384E090E0EDCF61E0809140
:1023F0009E0390919F03892B09F460E0E0918C0586
:10240000F0918D05658389E090E0DDCF0E94F606AE
:10241000B9CFCF92DF92EF92FF920F931F93CF939A
:10242000DF93CDB7DEB7C854D1090FB6F894DEBF3D
:102430000FBECDBF8091D2029091D302DC01ED910D
:10244000FC910084F185E02D09958C010E94FC022D
:1024500001151105A1F41092B8021092B702C85BE1
:10246000DF4F0FB6F894DEBF0FBECDBFDF91CF9127
:102470001F910F91FF90EF90DF90CF9008952091E2
:10248000B7023091B80202171307C9F01093B802CF
:102490000093B7020091C0031091C1032091C203C1
:1024A0003091C303600F711F821F931F6093B302AB
:1024B0007093B4028093B5029093B602D0CF00918E
:1024C000B3021091B4022091B5023091B6026017A8
:1024D00071078207930718F21092B8021092B702A0
:1024E000FE0131967F016F0110E000E08091D20281
:1024F0009091D302DC01ED91FC910084F185E02DF7
:102500000995892BC1F08091D2029091D302DC0110
:10251000ED91FC910284F385E02D0995F6018193FC
:102520006F010F5F1F4F0034110501F70E94A311C7
:102530000E94190E94CF0115110509F490CF3EEFBA
:10254000300FF7018FEF9FEF2E2F2E19231788F4EE
:102550002191822728E0AC014170552796958795F7
:10256000452B21F041E0842740EA9427215099F738
:10257000EBCFEFEFFFEFEC0FFD1FE00FF11F20811E
:10258000FE01E00FF11F30812327322723279827F0
:10259000892798272817390749F6E091AE038981E2
:1025A000E813C4CF9A81ABE0B1E022E131E08D9134
:1025B000891709F4D5C02A173B07C9F781E022968D
:1025C000EFAF2297905823969FAF239724968FAF13
:1025D000249763E0CE018F5B9F4F0E945303A6CFE9
:1025E0006D8170E0762F66274E81640F711D2091FA
:1025F000BA033091BB03923031F0913099F52091BC
:10260000B8033091B90348E061157105E1F146174F
:102610001706C8F14B81A42FB0E0BA2FAA274C812E
:102620004A0F5B2F511D460F571F2417350708F41B
:10263000ACC06B8170E0762F66279C81690F711D9D
:10264000833009F45AC008F5813009F449C082305A
:1026500009F06CCF2091B2033091B3034E8182E038
:1026600090E045C02091BC033091BD03933049F008
:1026700030E020E040E0943039F62091BE03309104
:10268000BF0349E1C1CF83E09ACF853009F445C04B
:10269000E8F1863009F04ACF4091B4035091B50378
:1026A0002D813E813227232732272296EFAF2297B2
:1026B00023968FAF239724967FAF249725966FAFED
:1026C000259726963FAF269727962FAF2797660F19
:1026D000771FFA01E60FF71F3183208366E07ACF78
:1026E0002091B0033091B1034E8181E090E00E94CF
:1026F000B603892B09F01ACFB2CE2091B4033091E2
:10270000B5034E8183E00E94F803F3CF2091B60316
:102710003091B7034E8184E0F6CF4091B0035091E1
:10272000B1032D813E813227232732272296EFAF36
:10273000229723968FAF239724967FAF24972596D1
:102740006FAF259726963FAF269727962FAF2797EF
:10275000660F771F640F751FDB012D933C93BECF6F
:10276000963009F466CF953009F03ACF2B8130E0EE
:10277000322F22274C81240F311D4091B8035091F4
:10278000B9032417350708F454CF82E018CF0C940E
:10279000E51A1F920F920FB60F9211242F933F93B9
:1027A0008F939F93AF93BF938091CA029091CB0276
:1027B000A091CC02B091CD023091C90223E0230F49
:1027C0002D3758F50196A11DB11D2093C9028093A4
:1027D000CA029093CB02A093CC02B093CD02809119
:1027E000CE029091CF02A091D002B091D102019679
:1027F000A11DB11D8093CE029093CF02A093D00271
:10280000B093D102BF91AF919F918F913F912F9142
:102810000F900FBE0F901F90189526E8230F029679
:10282000A11DB11DD2CF1F920F920FB60F9211248E
:102830002F933F934F935F936F937F938F939F93C8
:10284000AF93BF93EF93FF9381EE92E00E94CB048E
:10285000FF91EF91BF91AF919F918F917F916F9178
:102860005F914F913F912F910F900FBE0F901F904E
:1028700018951F920F920FB60F9211242F938F93DA
:102880009F93EF93FF93E091F102F091F202808128
:10289000E091F702F091F80282FD1BC090818091D7
:1028A000FA028F5F8F732091FB02821741F0E09153
:1028B000FA02F0E0EF51FD4F958F8093FA02FF91FD
:1028C000EF919F918F912F910F900FBE0F901F90BE
:1028D00018958081F4CF0F931F93CF93DF93EC0172
:1028E00088819981009759F02A813B812617370703
:1028F00030F081E0DF91CF911F910F9108958B010E
:102900006F5F7F4F0E94771D009759F099838883EE
:102910001B830A832C813D81232B59F7FC011082F4
:10292000E8CF80E0E7CFCF93DF93EC011B861A86D8
:102930001D861C861F861E8670E060E00A960E9437
:102940006B142A853B85811117C02115310519F0BB
:10295000C9010E94EE1C1B861A861F861E861D86D4
:102960001C861D8A1C8A1F8A1E8A198E188E1B8A35
:102970001A8ADF91CF9108951F861E866EE371E05B
:10298000C9010E943D1EEDCFEF92FF920F931F935E
:10299000CF93DF93EC017B01FB0101900020E9F76D
:1029A00031978F01061B170BB8010E946B14288109
:1029B0003981811113C02115310519F0C9010E9417
:1029C000EE1C198218821D821C821B821A82DF91E2
:1029D000CF911F910F91FF90EF9008951D830C836D
:1029E000B701C901DF91CF911F910F91FF90EF9037
:1029F0000C943D1E3F924F925F926F927F928F9206
:102A00009F92AF92BF92CF92DF92EF92FF920F937D
:102A10001F93CF93DF93EC012AE131E0FC01219376
:102A20003193CF010E949314CE014C960E949314CF
:102A3000CE01C6960E9493144E01F0E58F0E911CB4
:102A4000C4010E9493145E018AE6A80EB11CC50160
:102A50000E9493146E01E4E8CE0ED11CC6010E94C0
:102A600093147E01FEE9EF0EF11CC7010E9493143E
:102A70003E0188EB680E711CC3010E9493142E0165
:102A8000E2ED4E0E511CC2010E94931460E083E0FF
:102A90000E94CB0260E08AE00E94CB0260E08BE003
:102AA0000E94CB0260E08DE00E94CB0261E084E0F6
:102AB0000E94CB0261E087E00E94CB0261E085E0EA
:102AC0000E94CB0261E086E00E94CB0283E08A8311
:102AD0001C821B821E821D82332433943F821986FE
:102AE000188669E072E0CE010C960E94C4141B8A1D
:102AF0001A8A8AE08C8F1E8E1D8E18A21F8E39A214
:102B00001BA21AA263E172E0CE0186960E94C41451
:102B10001DA61CA68BE08EAB01E010E018AF0FAB3A
:102B20001AAF09AF3BAE1DAE1CAE6DE172E0CE0137
:102B3000805C9F4F0E94C414FE01EA5BFF4F11822C
:102B400010828DE0F40180833196118210823296DA
:102B5000118210823296308231961182108264E2A4
:102B600072E0CE01865A9F4F0E94C414FE01E05AC3
:102B7000FF4F1182108281E1F5018083359630820A
:102B800031961183008368E272E0CE018C589F4F2A
:102B90000E94C41482E1F60180833596308231961A
:102BA000118300836EE272E0CE0182579F4F0E9434
:102BB000C4148EE0F70180833596308231961183FC
:102BC000008364E372E0CE0188559F4F0E94C414D5
:102BD00080E1F301808338968FEF9FEF91838083AC
:102BE000339730823196118300836BE372E0CE011C
:102BF0008E539F4F0E94C41483E1F2018083359667
:102C0000308231961183008362E472E0CE018452F7
:102C10009F4F0E94C414FE01E451FF4F84E0808363
:102C200031961082319687E08083319610823196FA
:102C300085E0808331961082319686E08083CD5086
:102C4000DF4F1882DF91CF911F910F91FF90EF908E
:102C5000DF90CF90BF90AF909F908F907F906F90BC
:102C60005F904F903F900895E1EEF2E01382128260
:102C700088EE93E0A0E0B0E084839583A683B783D9
:102C800084E291E09183808385EC90E0958784874E
:102C900084EC90E09787868780EC90E0918B808B26
:102CA00081EC90E0938B828B82EC90E0958B848B0F
:102CB00086EC90E0978B868B118E128E138E148E7D
:102CC00084EB95E00E94FA1486ED93E00E94FA14DA
:102CD000A6EDB3E086E391E011969C938E9310925B
:102CE000CB041092CA041092D5041092D40410920E
:102CF000D7041092D6041092D9041092D8041092DE
:102D0000D3041092D2041092ED041092EC041092AD
:102D1000EF041092EE041092F1041092F00410925D
:102D2000EB041092EA04109205051092040510922B
:102D300007051092060510920905109208051092D9
:102D400003051092020510921D0510921C051092A9
:102D50001F0510921E051092210510922005109259
:102D60001B0510921A051092350510923405109229
:102D700037051092360510923905109238051092D9
:102D800033051092320510924D0510924C051092A9
:102D90004F0510924E051092510510925005109259
:102DA0004B0510924A051092650510926405109229
:102DB00067051092660510926905109268051092D9
:102DC00063051092620510927D0510927C051092A9
:102DD0007F0510927E051092810510928005109259
:102DE0007B0510927A051092950510929405109229
:102DF00097051092960510929905109298051092D9
:102E000093051092920588ED93E09093CD04809302
:102E1000CC04E6EAF3E0F093D104E093D0041396F7
:102E20008D919C9114979183808382EF93E090938E
:102E3000E5048093E40488EA93E09093E9048093A6
:102E4000E8045D968D919C915E97938382838CE0DC
:102E500094E09093FD048093FC048AEA93E09093BD
:102E6000010580930005D7968D919C91958384836D
:102E700086E294E0909315058093140510922B043C
:102E8000A6E9B3E015961C921E9214978CEA93E083
:102E90009093190580931805809127049091280438
:102EA0009783868383E090E090938D0380938C03D7
:102EB00080E494E090932D0580932C058EE793E0B9
:102EC00090933105809330058AE594E09093450511
:102ED0008093440580E893E09093490580934805EA
:102EE00084E794E090935D0580935C0582E893E02D
:102EF00090936105809360058EE894E0909375054A
:102F00008093740584E893E0909379058093780525
:102F10008FE891E0909383058093820588EA94E09E
:102F200090938D0580938C0586E893E090939105AE
:102F30008093900582EC94E09093A5058093A4057E
:102F4000B093A705A093A60584EC94E09093A905FF
:102F50008093A80588E993E09093AB058093AA0538
:102F600080EA93E09093AF058093AE051B961C9288
:102F70001E921A9782EA93E09093B3058093B2056C
:102F80001D961C921E921C97EEECF3E013821282A7
:102F9000158214821782168211821082E6ECF3E009
:102FA0001382128215821482178216821182108275
:102FB000EEEAF3E0138212821582148217821682DF
:102FC0001186108613861286158614861786168635
:102FD000118A108A11821082128A138A148A158A21
:102FE000178A168A0895CF93DF93CDB7DEB7C456FC
:102FF000D1090FB6F894DEBF0FBECDBF789484B56B
:10300000826084BD84B5816084BD85B5826085BDE4
:1030100085B5816085BD80916E00816080936E0072
:103020001092810080918100826080938100809164
:103030008100816080938100809180008160809315
:1030400080008091B10084608093B1008091B000D5
:1030500081608093B00080917A00846080937A00D0
:1030600080917A00826080937A0080917A008160FA
:1030700080937A0080917A00806880937A00109221
:10308000C10081EE92E09093D3028093D20286E950
:1030900093E09093B1038093B00388E090E0909325
:1030A000B9038093B80386EA93E09093B3038093C7
:1030B000B20384E090E09093BB038093BA038AE864
:1030C00093E09093B5038093B40386E090E09093EF
:1030D000BD038093BC032EE733E03093B703209306
:1030E000B6039093BF038093BE0381E08093AE0349
:1030F0008CE08093AF03E091F102F091F20282E064
:103100008083E091ED02F091EE021082E091EF02F7
:10311000F091F00280E180831092F902E091F502D3
:10312000F091F60286E08083E091F302F091F402E0
:10313000808180618083E091F302F091F4028081CC
:1031400088608083E091F302F091F40280818068CE
:103150008083E091F302F091F40280818F7D80837F
:103160008091C20086608093C20061E08CE00E9482
:10317000CB0260E08CE00E949D028FE291E0A0E033
:10318000B0E08093C0039093C103A093C203B093B7
:10319000C30381EA90E090938B0380938A0381E0DC
:1031A00090E00E94C71390E090939B0380939A0352
:1031B00082E090E00E94C713182F83E090E00E9405
:1031C000C713212F30E0322F2227820F932F911D1A
:1031D00090938D0380938C0384E090E00E94C7134A
:1031E00090E090939D0380939C0385E090E00E9483
:1031F000C713182F86E090E00E94C713212F30E0FC
:10320000322F2227820F932F911D90938F0380934B
:103210008E0387E090E00E94C713182F88E090E0AB
:103220000E94C713212F30E0322F2227820F932FC5
:10323000911D909391038093900389E090E00E9408
:10324000C71390E090939F0380939E038AE090E0E1
:103250000E94C713182F8BE090E00E94C713212F04
:1032600030E0322F2227820F932F911D90939303EA
:10327000809392030E94A3110E94190E88E597E0A3
:103280000E94970A89E092E10E94970A8091A50323
:103290008F938091A4038F9387EB91E09F938F93FB
:1032A0008E010F5F1F4F1F930F930E94441EB801A2
:1032B00081EE92E00E94B20781EE92E00E945505F5
:1032C0000F900F900F900F900F900F9074E6E72ED5
:1032D000F12CE3E0CE2ED12CF0E0AF2EF0E0BF2EAB
:1032E0000E9441040091C5021091C6022091C702BC
:1032F0003091C802601B710B820B930B6A30710511
:103300008105910508F44AC00E9441046093C502FA
:103310007093C6028093C7029093C8028091C30243
:103320009091C4020196B7010E94EF1B9093C402D2
:103330008093C302912C8091C8039091C903981681
:103340001906E4F4E091CA03F091CB0300811181E6
:1033500080E0309751F46FE371E086EC93E00E94D7
:10336000C607F80109959394E6CF9816D1F3028029
:10337000F381E02D008111818F5FF7CF8091C3022F
:103380009091C402B6010E94EF1B892B39F4809101
:1033900094039091950399270E949B06A114B10470
:1033A00009F49ECF0E94B704882309F499CF0E94A4
:1033B000000096CF86EC93E00E94200D8EEC93E007
:1033C0000E94200D86ED93E00E94860D84EB95E02F
:1033D0000C94490DE89409C097FB3EF490958095B4
:1033E000709561957F4F8F4F9F4F9923A9F0F92FCB
:1033F00096E9BB279395F695879577956795B79549
:10340000F111F8CFFAF4BB0F11F460FF1BC06F5F2E
:103410007F4F8F4F9F4F16C0882311F096E911C040
:10342000772321F09EE8872F762F05C0662371F061
:1034300096E8862F70E060E02AF09A95660F771F75
:10344000881FDAF7880F9695879597F908950E9457
:103450003A1A0C94AB1A0E949D1A38F00E94A41AD2
:1034600020F0952311F00C94941A0C949A1A1124BC
:103470000C94DF1A0E94BC1A70F3959FC1F3950F4C
:1034800050E0551F629FF001729FBB27F00DB11DE8
:10349000639FAA27F00DB11DAA1F649F6627B00D78
:1034A000A11D661F829F2227B00DA11D621F739F61
:1034B000B00DA11D621F839FA00D611D221F749F6F
:1034C0003327A00D611D231F849F600D211D822FB6
:1034D000762F6A2F11249F5750409AF0F1F08823DD
:1034E0004AF0EE0FFF1FBB1F661F771F881F91500A
:1034F0005040A9F79E3F510580F00C94941A0C940B
:10350000DF1A5F3FE4F3983ED4F38695779567958D
:10351000B795F795E7959F5FC1F7FE2B880F911D33
:103520009695879597F9089597F99F6780E870E0D9
:1035300060E008959FEF80EC089500240A94161629
:10354000170618060906089500240A941216130691
:10355000140605060895092E0394000C11F488231F
:1035600052F0BB0F40F4BF2B11F460FF04C06F5F3B
:103570007F4F8F4F9F4F089557FD9058440F551F11
:1035800059F05F3F71F04795880F97FB991F61F0E5
:103590009F3F79F087950895121613061406551F5C
:1035A000F2CF4695F1DF08C0161617061806991FC8
:1035B000F1CF86957105610508940895E894BB27BD
:1035C00066277727CB0197F90895F999FECF92BD29
:1035D00081BDF89A992780B50895262FF999FECFD5
:1035E0001FBA92BD81BD20BD0FB6F894FA9AF99A20
:1035F0000FBE019608950E943D1BA59F900DB49F9C
:10360000900DA49F800D911D112408952F923F923B
:103610004F925F926F927F928F929F92AF92BF92E2
:10362000CF92DF92EF92FF920F931F93CF93DF938E
:10363000CDB7DEB7CA1BDB0B0FB6F894DEBF0FBEEB
:10364000CDBF09942A88398848885F846E847D8438
:103650008C849B84AA84B984C884DF80EE80FD803A
:103660000C811B81AA81B981CE0FD11D0FB6F894B0
:10367000DEBF0FBECDBFED010895A29FB001B39F85
:10368000C001A39F700D811D1124911DB29F700D6B
:10369000811D1124911D08955058BB27AA270E940F
:1036A000641B0C94AB1A0E949D1A38F00E94A41A55
:1036B00020F039F49F3F19F426F40C949A1A0EF472
:1036C000E095E7FB0C94941AE92F0E94BC1A58F37A
:1036D000BA17620773078407950720F079F4A6F5F7
:1036E0000C94DE1A0EF4E0950B2EBA2FA02D0B01D0
:1036F000B90190010C01CA01A0011124FF27591B37
:1037000099F0593F50F4503E68F11A16F040A22F3C
:10371000232F342F4427585FF3CF469537952795AD
:10372000A795F0405395C9F77EF41F16BA0B620BAC
:10373000730B840BBAF09150A1F0FF0FBB1F661FF3
:10374000771F881FC2F70EC0BA0F621F731F841F36
:1037500048F4879577956795B795F7959E3F08F05C
:10376000B0CF9395880F08F09927EE0F979587951E
:1037700008950E94C01B6894B1110C94DF1A08953B
:103780000E94C41A88F09F5798F0B92F9927B75113
:10379000B0F0E1F0660F771F881F991F1AF0BA95F5
:1037A000C9F714C0B13091F00E94DE1AB1E008955B
:1037B0000C94DE1A672F782F8827B85F39F0B93F4D
:1037C000CCF3869577956795B395D9F73EF49095A8
:1037D0008095709561957F4F8F4F9F4F0895AA1BDD
:1037E000BB1B51E107C0AA1FBB1FA617B70710F0EC
:1037F000A61BB70B881F991F5A95A9F7809590951E
:10380000BC01CD010895052E97FB1EF400940E9483
:103810001A1C57FD07D00E94301C07FC03D04EF441
:103820000C941A1C50954095309521953F4F4F4F61
:103830005F4F089590958095709561957F4F8F4F5C
:103840009F4F0895EE0FFF1F0590F491E02D09940E
:10385000B7FF0C94FB1A0E94FB1A821B930B08956E
:10386000A1E21A2EAA1BBB1BFD010DC0AA1FBB1F84
:10387000EE1FFF1FA217B307E407F50720F0A21BF6
:10388000B30BE40BF50B661F771F881F991F1A9463
:1038900069F760957095809590959B01AC01BD018D
:1038A000CF0108950F931F93CF93DF93823091053B
:1038B00010F482E090E0E091AA06F091AB0630E0CF
:1038C00020E0B0E0A0E0309799F42115310509F42B
:1038D0004AC0281B390B24303105D8F58A819B81D9
:1038E0006115710589F1FB0193838283FE0111C08B
:1038F000408151810281138148175907E0F0481730
:10390000590799F4109761F012960C931297139639
:103910001C933296CF01DF91CF911F910F910895A3
:103920000093AA061093AB06F4CF2115310551F090
:103930004217530738F0A901DB019A01BD01DF01ED
:10394000F801C1CFEF01F9CF9093AB068093AA069F
:10395000CDCFFE01E20FF31F8193919322503109E5
:1039600039832883D7CF2091A8063091A906232B2D
:1039700041F420910501309106013093A90620936E
:10398000A80620910301309104012115310541F46D
:103990002DB73EB74091070150910801241B350B0C
:1039A000E091A806F091A906E217F307A0F42E1BF8
:1039B0003F0B2817390778F0AC014E5F5F4F241793
:1039C000350748F04E0F5F1F5093A9064093A80695
:1039D000819391939FCFF0E0E0E09CCFCF93DF9372
:1039E0000097E9F0FC01329713821282A091AA0697
:1039F000B091AB06ED0130E020E01097A1F42081FA
:103A00003181820F931F2091A8063091A9062817B3
:103A1000390709F061C0F093A906E093A806DF9189
:103A2000CF910895EA01CE17DF07E8F54A815B815F
:103A30009E0141155105B1F7E901FB83EA834991E4
:103A40005991C40FD51FEC17FD0761F48081918156
:103A50000296840F951FE90199838883828193815F
:103A60009B838A83F0E0E0E012968D919C911397FE
:103A70000097B9F52D913C911197CD010296820FD7
:103A8000931F2091A8063091A9062817390739F607
:103A9000309751F51092AB061092AA06B093A90682
:103AA000A093A806BCCFD383C28340815181840FE9
:103AB000951FC817D90761F44E5F5F4F88819981C0
:103AC000480F591F518340838A819B81938382834E
:103AD0002115310509F0B0CFF093AB06E093AA06AB
:103AE0009ECFFD01DC01C0CF13821282D7CFB0E0A0
:103AF000A0E0EDE7FDE10C94081B8C01009751F468
:103B0000CB010E94521C8C01C801CDB7DEB7E0E1A9
:103B10000C94241BFC01E60FF71F9C012250310975
:103B2000E217F30708F49DC0D901CD91DC911197FC
:103B3000C617D70798F0C530D10530F3CE010497EA
:103B40008617970708F3C61BD70B2297C193D1930B
:103B50006D937C93CF010E94EE1CD6CF5B01AC1A13
:103B6000BD0A4C018C0E9D1EA091AA06B091AB0619
:103B7000512C412CF12CE12C109731F58091A806A5
:103B80009091A9068815990509F05CC0461657065C
:103B900008F058C08091030190910401009741F40E
:103BA0008DB79EB74091070150910801841B950B7A
:103BB000E817F90708F055C0F093A906E093A806A6
:103BC000F90171836083A0CF8D919C91119712961A
:103BD0006C90129713967C901397A815B90559F518
:103BE0006C0142E0C40ED11CCA14DB0420F1AC010C
:103BF0004A195B09DA011296159780F06282738286
:103C000051834083D9016D937C93E114F10471F0E9
:103C1000D7011396FC93EE93129776CF22968C0FD2
:103C20009D1FF90191838083F301EFCFF093AB06E1
:103C3000E093AA0669CF4816590608F42C017D01C5
:103C4000D3019ACFCB010E94521C7C01009749F00E
:103C5000AE01B8010E94341EC8010E94EE1C87010B
:103C600053CF10E000E050CFFB01DC0102C0019017
:103C70000D9241505040D8F70895FB01DC010190AE
:103C80000D920020E1F70895AEE0B0E0EAE4FEE135
:103C90000C94141B0D891E8986E08C831A8309837A
:103CA0008FEF9FE79E838D83AE01475E5F4F6F89E5
:103CB000788DCE0101960E94671E2F813885020FF4
:103CC000131FF80110822E96E4E00C94301BABE039
:103CD000B0E0EDE6FEE10C94061B7C013B018A019D
:103CE000FC0117821682838181FFC8C1CE01019633
:103CF0005C01F7019381F30193FD859193FF81911D
:103D00003F01882309F453C1853239F493FD85912D
:103D100093FF81913F01853229F4B70190E00E9421
:103D20005720E7CF912C212C312CFFE1F31538F0EF
:103D30008B3211F190F4803209F1833229F137FC92
:103D40003CC020ED280F2A3050F536FE20C08AE016
:103D5000989E200D1124922E06C08D3291F0803352
:103D600071F7689430F8F30193FD859193FF819189
:103D70003F018111DACF21C0689431F8689432F89C
:103D8000F2CF689433F8EFCF689434F8ECCFEAE0E0
:103D90002E9E200D1124222E689435F8E4CF8E3209
:103DA00029F436FC04C1689436F8DDCF8C3619F45A
:103DB000689437F8D8CF8836B1F2982F9F7D955404
:103DC0009330E0F08336A1F18337C1F1833509F0F8
:103DD00063C02801F2E04F0E511CF801C080D18071
:103DE000692D70E036FC02C06FEF7FEFC6010E94C4
:103DF00041204C01689437F882010AC00C5F1F4FC4
:103E0000FFE3F98388248394912C6501E89437F8C3
:103E100033FE2DC0522C8114910471F5552009F404
:103E200068CFB70180E290E00E9457205A94F6CF05
:103E3000F801808189830E5F1F4FE4CF2801F2E0F3
:103E40004F0E511CF801C080D180692D70E036FC06
:103E500002C06FEF7FEFC6010E944C204C0182012F
:103E6000D5CFB70180E290E00E9457202A94281411
:103E7000190409F0B0F7CECFF60137FC859137FE73
:103E800081916F01B70190E00E94572051105A9420
:103E9000F1E08F1A9108BFCF843619F0893609F006
:103EA00077C0F80137FE6BC0608171818281938198
:103EB0000C5F1F4FF32DFF763F2E97FF09C09095A3
:103EC0008095709561957F4F8F4F9F4F689437F81D
:103ED0002AE030E0A5010E948720C82ECA188C2C49
:103EE000432C36FE0CC0E89440F8C91440F434FE6C
:103EF00005C032FC03C0F32DFE7E4F2E892C44FEFC
:103F000095C0FE01EC0DF11D8081803309F087C062
:103F1000242D297E422E842D8870582E43FC95C076
:103F200040FE8FC09C2C821418F42C0C922C9818F4
:103F300044FE91C0B70180E390E00E94572042FE0A
:103F400009C088E790E041FE02C088E590E0B70133
:103F50000E945720C91408F48AC0CA94D12C9FEF3C
:103F6000C91AD90ACA0CDB1CF60182916F01B7018C
:103F700090E00E945720AC14BD04B1F74FCF608190
:103F80007181072E000C880B990B0E5F1F4F92CF8B
:103F9000D32CE894D4F82AE030E0853739F1232D8A
:103FA000297FD22E8F3601F148F48835A9F0F70128
:103FB000868197812B96E2E10C94221B803749F091
:103FC0008837A9F7D4FE02C06894D2F820E130E027
:103FD0000DC06894D4F8F6CF34FE03C0822F8660FB
:103FE000D82E20E132E002C028E030E0F801D7FE10
:103FF0000FC060817181828193810C5F1F4FA50189
:104000000E948720C82ECA183D2CE89437F867CF45
:104010006081718190E080E00E5F1F4FF0CF42FC25
:1040200002C0839478CF8394839475CF842D86784F
:1040300009F471CFF6CFB70180E290E00E945720DB
:1040400083948214C0F3512C73CF522C58188214CD
:1040500008F46ECFF8CF842D867809F47BCF8BE2FD
:1040600041FE80E247FC8DE2B70190E071CFB701DD
:1040700080E390E00E9457209A946CCF8FEF9FEFDF
:1040800099CFFC010590615070400110D8F78095E0
:1040900090958E0F9F1F0895FC0161507040019014
:1040A0000110D8F7809590958E0F9F1F08950F935C
:1040B0001F93CF93DF93182F092FEB018B8181FD85
:1040C00009C01FEF0FEF812F902FDF91CF911F912C
:1040D0000F91089582FF14C02E813F818C819D81B4
:1040E000281739073CF4E881F981CF0101969983BB
:1040F000888310838E819F8101969F838E83E3CF77
:10410000E885F985812F0995892BA1F3DACFFA018A
:10411000AA27283051F1203181F1E8946F936E7F06
:104120006E5F7F4F8F4F9F4FAF4FB1E03ED0B4E0F7
:104130003CD0670F781F891F9A1FA11D680F791F38
:104140008A1F911DA11D6A0F711D811D911DA11D49
:1041500020D009F468943F912AE0269F1124301959
:10416000305D3193DEF6CF010895462F4770405DF4
:104170004193B3E00FD0C9F7F6CF462F4F70405DA3
:104180004A3318F0495D31FD4052419302D0A9F7FE
:10419000EACFB4E0A6959795879577956795BA95F8
:1041A000C9F700976105710508959B01AC010A2EBE
:1041B00006945795479537952795BA95C9F7620F95
:1041C000731F841F951FA01D089511E0C4E6D1E060
:1041D00004C0FE010E94221C2196C536D107C9F7F2
:0441E000F894FFCF81
:1041E400E803410000AC068000201C010203040522
:1041F40006100100050000000000490D7C0D7C0C38
:1042040000000000ED044D047A045505AB04890454
:104214009D0400000000860DBF0DCE0C0D0A005158
:10422400554555453A2063616E2774207065656B6A
:10423400206974656D2066726F6D20717565756592
:104244003A20717565756520697320656D707479A0
:104254002E0051554555453A20696E737566666959
:104264006369656E74206D656D6F727920746F205B
:104274006372656174652061206E6577206E6F647A
:10428400652E00437265677320656E207574696CD2
:10429400732D3E202564004372656773202D3E20F4
:1042A400256400203A20496E746572727570746FCB
:1042B40072202D2D3E200051554555453A2063610D
:1042C4006E277420706F70206974656D2066726F3C
:1042D4006D2071756575653A207175657565206920
:1042E4007320656D7074792E00424F54EFBFBD4E3C
:1042F400203100424F54EFBFBD4E203200502E20DB
:104304004F70740050495200504F54203100504FA8
:104314005420320050485F52455300532E54454DAB
:10432400500050485F54544F520056616C6F7220D5
:104334004D425F544D505F5049523A20256400432A
:104344007265677320656E20636F6E666967322DD0
:104354003E20256400437265677320656E20436FB9
:0A4364006E6669672D3E2025640097
:00000001FF
