:100000000C9463000C948B000C948B000C948B006C
:100010000C948B000C948B000C948B000C948B0034
:100020000C948B000C948B000C948B000C948B0024
:100030000C948B000C948B000C948B000C948B0014
:100040000C9425030C948B000C9495030C946F0373
:100050000C948B000C948B000C948B000C948B00F4
:100060000C948B000C948B000000000023002600F1
:10007000290000000000240027002A0000000000E2
:10008000250028002B0004040404040404040202D4
:100090000202020203030303030301020408102007
:1000A0004080010204081020010204081020000012
:1000B0000008000201000003040700000000000027
:1000C00000005604410611241FBECFEFD8E0DEBF6A
:1000D000CDBF22E0A6E0B2E001C01D92A53FB2076D
:1000E000E1F712E0A0E0B1E0EAE1F1E102C0059041
:1000F0000D92A630B107D9F710E0C2E6D0E004C0F7
:100100002197FE010E948806C136D107C9F70E94D7
:10011000E9040C9480080C940000833081F028F4EA
:10012000813099F08230A9F008958730A9F08830A5
:10013000C9F08430B1F4809180008F7D03C080913C
:1001400080008F7780938000089584B58F7784BD79
:10015000089584B58F7DFBCF8091B0008F77809319
:10016000B00008958091B0008F7DF9CF1F93CF9399
:10017000DF93282F30E0F901E255FF4F8491F90118
:10018000E656FF4FD491F901EA57FF4FC491CC23B3
:10019000A9F0162F81110E948D00EC2FF0E0EE0FD8
:1001A000FF1FE458FF4FA591B4918FB7F894EC91DD
:1001B000111108C0D095DE23DC938FBFDF91CF9162
:1001C0001F910895DE2BF8CFAF92BF92CF92DF92AE
:1001D000EF92FF920F931F93CF93DF936C017B01FC
:1001E0008B01040F151FEB015E01AE18BF08C0178D
:1001F000D10759F06991D601ED91FC910190F08100
:10020000E02DC6010995892B79F7C501DF91CF91C2
:100210001F910F91FF90EF90DF90CF90BF90AF9024
:100220000895FC01538D448D252F30E0842F90E0FC
:10023000821B930B541710F0CF96089501970895E1
:10024000FC01918D828D981761F0A28DAE0FBF2FAA
:10025000B11D5D968C91928D9F5F9F73928F90E000
:1002600008958FEF9FEF0895FC01918D828D98176F
:1002700031F0828DE80FF11D858D90E008958FEFAC
:100280009FEF0895FC01918D228D892F90E0805C75
:100290009F4F821B91098F739927089585E192E002
:1002A0000E94420121E0892B09F420E0822F089569
:1002B00080E090E0892B29F00E944E0181110C947E
:1002C00000000895FC01A48DA80FB92FB11DA35AF9
:1002D000BF4F2C91848D90E001968F739927848F66
:1002E000A689B7892C93A089B1898C918370806489
:1002F0008C93938D848D981306C00288F389E02D2A
:1003000080818F7D80830895EF92FF920F931F93DA
:10031000CF93DF93EC0181E0888F9B8D8C8D9813B8
:100320001AC0E889F989808185FF15C09FB7F894C4
:10033000EE89FF896083E889F98980818370806410
:1003400080839FBF81E090E0DF91CF911F910F915B
:10035000FF90EF900895F62E0B8D10E00F5F1F4F6A
:100360000F731127E02E8C8D8E110CC00FB607FC79
:10037000FACFE889F989808185FFF5CFCE010E9407
:100380006201F1CFEB8DEC0FFD2FF11DE35AFF4F12
:10039000F0829FB7F8940B8FEA89FB898081806295
:1003A000CFCFCF93DF93EC01888D8823B9F0AA8952
:1003B000BB89E889F9898C9185FD03C0808186FD20
:1003C0000DC00FB607FCF7CF8C9185FFF2CF80816F
:1003D00085FFEDCFCE010E946201E9CFDF91CF9181
:1003E00008950F931F93CF93DF93EC018E819F812C
:1003F000009731F0019709F437C090E080E023C006
:10040000288130E0F901E255FF4F8491F901E65669
:10041000FF4F0491F901EA57FF4F1491112369F33B
:1004200081110E948D00E12FF0E0EE0FFF1FE859CF
:10043000FF4FA591B491EC910E2331E020E009F437
:1004400030E0832F922F29813A812817390711F143
:100450009A838983E889F9893097E1F0CE01DF91A9
:10046000CF911F910F91099488818E3008F08E50A2
:100470008770806480937C0080917A008064809390
:100480007A0080917A0086FDFCCF8091780090916F
:100490007900D9CFDF91CF911F910F910895FC0181
:1004A00001900020E9F73197AF01481B590BBC01BF
:1004B00085E192E00C94E400CF93DF930E944F0219
:1004C000EC0188E191E00E944F028C0F9D1FDF91AB
:1004D000CF910895CF93DF93EC014E855F856A85B8
:1004E0007B8585E192E00E94E4002B813C8189813B
:1004F0009A812817390731F48BE191E0DF91CF9190
:100500000C945C0288E291E0F9CFFC0123813481F4
:100510008181928128173907F1F485E391E00E94E7
:100520004F028091E90281110CC061E08091E802E4
:100530000E94B60081E08093E9028FE391E00C9481
:100540005C0260E08091E8020E94B6001092E9022D
:1005500082E491E0F4CF0895FC012381348181810C
:10056000928128173907D9F486E491E00E944F025E
:100570008091060290910702892B51F481E090E06E
:1005800090930702809306028FE391E00C945C0243
:10059000109207021092060282E491E0F7CF0895CC
:1005A000CF93DF93EC012B813C8189819A812817BD
:1005B0003907F9F44E855F856A857B8585E192E090
:1005C0000E94E40086E591E00E944F0288859985AB
:1005D000892B51F481E090E0998788878FE391E03F
:1005E000DF91CF910C945C021986188682E491E029
:1005F000F7CFDF91CF910895CF93DF93EC0119826C
:1006000018821B821A821D821C8270E060E00E94A8
:10061000F8032881398181110FC02115310519F0A6
:10062000C9010E942A07198218821D821C821B821E
:100630001A82DF91CF9108951D821C826AE171E0D8
:10064000C901DF91CF910C9479081F920F920FB6D8
:100650000F9211242F933F938F939F93AF93BF9348
:100660008091110290911202A0911302B091140294
:100670003091100223E0230F2D3758F50196A11D6C
:10068000B11D209310028093110290931202A09347
:100690001302B093140280910C0290910D02A0916C
:1006A0000E02B0910F020196A11DB11D80930C02A4
:1006B00090930D02A0930E02B0930F02BF91AF91E1
:1006C0009F918F913F912F910F900FBE0F901F9090
:1006D000189526E8230F0296A11DB11DD2CF1F92B7
:1006E0000F920FB60F9211242F933F934F935F9366
:1006F0006F937F938F939F93AF93BF93EF93FF93EA
:1007000085E192E00E946201FF91EF91BF91AF916C
:100710009F918F917F916F915F914F913F912F9119
:100720000F900FBE0F901F9018951F920F920FB64B
:100730000F9211242F938F939F93EF93FF93E09148
:100740002502F09126028081E0912B02F0912C028B
:1007500082FD1BC0908180912E028F5F8F7320914C
:100760002F02821741F0E0912E02F0E0EB5EFD4F88
:10077000958F80932E02FF91EF919F918F912F91F2
:100780000F900FBE0F901F9018958081F4CFCF93DC
:10079000DF9390E0FC01E656FF4F24918A579F4F6C
:1007A000FC0184918823D1F090E0880F991FFC010F
:1007B000EE58FF4FA591B491FC01E458FF4FC5914D
:1007C000D49161110EC09FB7F8948C91E22FE095FF
:1007D0008E238C932881E223E8839FBFDF91CF9102
:1007E00008958FB7F894EC91E22BEC938FBFF6CF7E
:1007F0000F931F93CF93DF93EC018881998100972A
:1008000059F02A813B812617370730F081E0DF91CC
:10081000CF911F910F9108958B016F5F7F4F0E94C1
:10082000B307009759F0998388831B830A832C812F
:100830003D81232B59F7FC011082E8CF80E0E7CF00
:10084000EF92FF920F931F93CF93DF93EC017B0105
:10085000FB0101900020E9F731978F01061B170B70
:10086000B8010E94F80328813981811113C0211534
:10087000310519F0C9010E942A07198218821D82C8
:100880001C821B821A82DF91CF911F910F91FF90E2
:10089000EF9008951D830C83B701C901DF91CF91BB
:1008A0001F910F91FF90EF900C947908EF92FF92B7
:1008B0001F93CF93DF93E5E1F2E01382128288EE7B
:1008C00093E0A0E0B0E084839583A683B7838AE0B9
:1008D00091E09183808385EC90E09587848784EC18
:1008E00090E09787868780EC90E0918B808B81ECFD
:1008F00090E0938B828B82EC90E0958B848B86ECDE
:1009000090E0978B868B118E128E138E148E8CEB4B
:1009100092E00E94FC028EEC92E00E94FC0280EECB
:1009200092E00E94FC028BEE92E00E94FC0260E0EA
:1009300083E00E94C70360E08AE00E94C70360E092
:100940008BE00E94C70361E084E00E94C703C2EB12
:10095000D2E083E088831A82198211E01D831F820E
:100960001E826AE671E08CEB92E00E9420041C82F9
:100970001B828AE08A8B1C8A1B8A1F8B198E188E19
:1009800064E771E08EEC92E00E9420041E8A1D8ACA
:100990008BE08CA3EE24E394F12CFEA2EDA219A728
:1009A0001BA61AA66EE771E080EE92E00E9420047A
:1009B000F8A6EFA284E08EAB1FAA18AF60EA71E040
:1009C0008BEE92E0DF91CF911F91FF90EF900C940E
:1009D0002004789484B5826084BD84B5816084BD30
:1009E00085B5826085BD85B5816085BD80916E00CD
:1009F000816080936E0010928100809181008260FE
:100A0000809381008091810081608093810080913A
:100A100080008160809380008091B1008460809329
:100A2000B1008091B00081608093B00080917A0025
:100A3000846080937A0080917A00826080937A004B
:100A400080917A00816080937A0080917A0080683A
:100A500080937A001092C10085E892E09093C302DF
:100A60008093C2029093D5028093D4029093E702C0
:100A70008093E602E0912502F091260282E08083D5
:100A8000E0912102F09122021082E0912302F09184
:100A9000240280E1808310922D02E0912902F091DE
:100AA0002A0286E08083E0912702F091280280816B
:100AB00080618083E0912702F09128028081886024
:100AC0008083E0912702F0912802808180688083F2
:100AD000E0912702F091280280818F7D808383E955
:100AE00091E00E945C0280E0A82E80E0B82EC0ED6C
:100AF000D2E00CEA12E095E8E92E92E0F92E2AE61F
:100B0000C22E22E0D22E2FB7F8948091110290913C
:100B10001202A0911302B09114022FBF409108025B
:100B20005091090260910A0270910B02841B950B8F
:100B3000A60BB70B0B97A105B10508F440C02FB762
:100B4000F8948091110290911202A0911302B09139
:100B500014022FBF8093080290930902A0930A0207
:100B6000B0930B028091B702882321F082EB92E0D0
:100B70000E94F1018091C902882321F084EC92E067
:100B80000E94F1018091DB02882321F086ED92E042
:100B90000E94F10185E192E00E94420102977CF0FF
:100BA00085E192E00E942001839749F485E192E07B
:100BB0000E942001823399F174F48133F9F0A11479
:100BC000B10409F4A0CF0E944E01882309F49BCF01
:100BD0000E94000098CF8333E9F1843381F7F092CB
:100BE000C302E092C202F092D502E092D402F092E7
:100BF000E702E092E6028DEE91E00EC0D092C302D1
:100C0000C092C202D092D502C092D402D092E70222
:100C1000C092E60285EA91E00E945C02D0CFD093B8
:100C2000C302C093C2021092BB021092BA02D093C8
:100C3000D502C093D4021092CD021092CC02D09370
:100C4000E702C093E6021092DF021092DE028DEB03
:100C500091E0E2CF1093C3020093C2021093D50239
:100C60000093D4021093E7020093E60285ED91E031
:100C7000D3CFFC0180819181009711F00C942A0759
:100C800008958BEE92E00E94390680EE92E00E9479
:100C900039068EEC92E00E9439068CEB92E00C94BF
:100CA00039062F923F924F925F926F927F928F926E
:100CB0009F92AF92BF92CF92DF92EF92FF920F93EB
:100CC0001F93CF93DF93CDB7DEB7CA1BDB0B0FB6F5
:100CD000F894DEBF0FBECDBF09942A8839884888B2
:100CE0005F846E847D848C849B84AA84B984C88448
:100CF000DF80EE80FD800C811B81AA81B981CE0F3F
:100D0000D11D0FB6F894DEBF0FBECDBFED01089523
:100D1000EE0FFF1F0590F491E02D09940F931F93A0
:100D2000CF93DF938230910510F482E090E0E09160
:100D3000F302F091F40230E020E0B0E0A0E0309760
:100D400099F42115310509F44AC0281B390B2430C8
:100D50003105D8F58A819B816115710589F1FB0107
:100D600093838283FE0111C04081518102811381EE
:100D700048175907E0F04817590799F4109761F0A0
:100D800012960C93129713961C933296CF01DF9113
:100D9000CF911F910F9108950093F3021093F402E5
:100DA000F4CF2115310551F04217530738F0A9014E
:100DB000DB019A01BD01DF01F801C1CFEF01F9CFDD
:100DC0009093F4028093F302CDCFFE01E20FF31F64
:100DD000819391932250310939832883D7CF209171
:100DE000F1023091F202232B41F420910201309163
:100DF00003013093F2022093F1022091000130911F
:100E000001012115310541F42DB73EB74091040190
:100E100050910501241B350BE091F102F091F20293
:100E2000E217F307A0F42E1B3F0B2817390778F0C1
:100E3000AC014E5F5F4F2417350748F04E0F5F1F20
:100E40005093F2024093F102819391939FCFF0E08F
:100E5000E0E09CCFCF93DF930097E9F0FC0132975D
:100E600013821282A091F302B091F402ED0130E0FE
:100E700020E01097A1F420813181820F931F2091EF
:100E8000F1023091F2022817390709F061C0F0939E
:100E9000F202E093F102DF91CF910895EA01CE17BB
:100EA000DF07E8F54A815B819E0141155105B1F7E5
:100EB000E901FB83EA8349915991C40FD51FEC17CF
:100EC000FD0761F4808191810296840F951FE901ED
:100ED00099838883828193819B838A83F0E0E0E019
:100EE00012968D919C9113970097B9F52D913C9195
:100EF0001197CD010296820F931F2091F10230913C
:100F0000F2022817390739F6309751F51092F4029A
:100F10001092F302B093F202A093F102BCCFD383FC
:100F2000C28340815181840F951FC817D90761F48E
:100F30004E5F5F4F88819981480F591F51834083CD
:100F40008A819B81938382832115310509F0B0CF7B
:100F5000F093F402E093F3029ECFFD01DC01C0CFD9
:100F600013821282D7CFB0E0A0E0E9EBF7E00C9457
:100F700053068C01009751F4CB010E948E068C0120
:100F8000C801CDB7DEB7E0E10C946F06FC01E60FB7
:100F9000F71F9C0122503109E217F30708F49DC0A6
:100FA000D901CD91DC911197C617D70798F0C530BC
:100FB000D10530F3CE0104978617970708F3C61BB7
:100FC000D70B2297C193D1936D937C93CF010E944D
:100FD0002A07D6CF5B01AC1ABD0A4C018C0E9D1EB0
:100FE000A091F302B091F402512C412CF12CE12C90
:100FF000109731F58091F1029091F20288159905D0
:1010000009F05CC04616570608F058C080910001F0
:1010100090910101009741F48DB79EB74091040172
:1010200050910501841B950BE817F90708F055C08E
:10103000F093F202E093F102F90171836083A0CF93
:101040008D919C91119712966C90129713967C90AB
:101050001397A815B90559F56C0142E0C40ED11CCF
:10106000CA14DB0420F1AC014A195B09DA011296BB
:10107000159780F06282738251834083D9016D930A
:101080007C93E114F10471F0D7011396FC93EE9375
:10109000129776CF22968C0F9D1FF9019183808342
:1010A000F301EFCFF093F402E093F30269CF481617
:1010B000590608F42C017D01D3019ACFCB010E947F
:1010C0008E067C01009749F0AE01B8010E947008BD
:1010D000C8010E942A07870153CF10E000E050CFDB
:1010E000FB01DC0102C001900D9241505040D8F745
:1010F0000895FB01DC0101900D920020E1F70895B5
:1011000010E0C2E6D0E004C0FE010E9488062196ED
:0A111000C336D107C9F7F894FFCFEA
:10111A000000F5028000000000008401E4001101D3
:10112A00D1014201200134010D0A00202D2D3E205B
:10113A00536F6C7461646F00202D2D3E2050756CC6
:10114A007361646F0052656C65202D2D3E20004F3F
:10115A004E004F464600436F6E6D757461646F7240
:10116A00202D2D3E2000203A20496E74657272753A
:10117A0070746F72202D2D3E2000424F54EFBFBD78
:10118A004E203100424F54EFBFBD4E203200507501
:10119A006C7361646F72204F70746F636F706C61EF
:1011AA00646F00503320446F6D6F626F6172642008
:1011BA0052656C6500417061727461646F20312000
:1011CA0053656C656363696F6E61646F004170613A
:1011DA00727461646F20322053656C656363696F52
:1011EA006E61646F00417061727461646F203320B4
:1011FA0053656C656363696F6E61646F005072C397
:10120A00A1637469636120332073656C65636369E4
:06121A006F6E61646100CB
:00000001FF
