:100000000C9418010C9440010C9440010C94980F2E
:100010000C94980F0C94980F0C9440010C94400190
:100020000C9440010C9440010C9440010C9440014C
:100030000C9440010C9440010C9440010C9440013C
:100040000C94F60E0C9440010C94660F0C94400F27
:100050000C9440010C9440010C9440010C9440011C
:100060000C94A20F0C9440015030372053656C65FE
:100070006363696F6E616461202D2D3E2053656E50
:10008000736F72204D6F76696D69656E746F20288D
:100090005049522900503620494E5445525255502D
:1000A000544F522053656C656363696F6E61646F72
:1000B00000503520494E544552525550544F52200D
:1000C00053656C656363696F6E61646F00503420C3
:1000D000434F4E4D555441444F522053656C656318
:1000E00063696F6E61646F00503420494E5445520D
:1000F000525550544F522053656C656363696F6E5F
:1001000061646F00503320434F4E4D555441444F6E
:10011000522053656C656363696F6E61646F005054
:100120003120434F4E4D555441444F522053656C3E
:10013000656363696F6E61646F00503120494E548E
:100140004552525550544F522053656C6563636954
:100150006F6E61646F0050312050554C5341444FD5
:100160005245532053656C656363696F6E61646FBC
:10017000004F4646004F4E00202D2D3E2050756CFE
:100180007361646F00202D2D3E20536F6C74616489
:100190006F004F4646004F4E00436F6E6D757461A1
:1001A000646F72202D2D3E20004153594E57414916
:1001B00054205445524D494E41444F005030382050
:1001C0002D20506F74656E63696F6D6574726F7307
:1001D0000000000000240027002A00000000002585
:1001E0000028002B00000000002300260029000446
:1001F00004040404040404020202020202030303CE
:1002000003030301020408102040800102040810C7
:100210002001020408102000000008000201000074
:100220000304070000000000000000001D12BE14BF
:1002300011241FBECFEFD8E0DEBFCDBF25E0ACE973
:10024000B2E001C01D92A03DB207E1F712E0A0E0CC
:10025000B1E0EAEAF3E302C005900D92AC39B107D0
:10026000D9F711E0C7E1D1E004C02197FE010E9457
:100270002F15C631D107C9F70E946C130C94C81909
:100280000C940000833081F028F4813099F08230A2
:10029000A9F008958730A9F08830C9F08430B1F40E
:1002A000809180008F7D03C0809180008F77809344
:1002B0008000089584B58F7784BD089584B58F7DBF
:1002C000FBCF8091B0008F778093B000089580912C
:1002D000B0008F7DF9CF0F931F93CF93DF93FC0175
:1002E0002581222309F455C0EC018681978100976E
:1002F00031F0019709F437C090E080E023C02081FD
:1003000030E0F901E95EFD4F8491F901ED5FFD4FA9
:100310000491F901E151FE4F1491112369F3811108
:100320000E944201E12FF0E0EE0FFF1FEB51FE4F64
:10033000A591B491EC910E2331E020E009F430E076
:10034000832F922F29813A812817390711F19A8337
:100350008983E889F9893097E1F0CE01DF91CF9167
:100360001F910F91099480818E3008F08E50877014
:10037000806480937C0080917A00806480937A000E
:1003800080917A0086FDFCCF809178009091790071
:10039000D9CFDF91CF911F910F910895CF93DF9324
:1003A000EC01888199810E946B01EC81FD81A8811B
:1003B000B98111968D919C9120813181281739073F
:1003C00051F091838083EE85FF85309721F0CE0137
:1003D000DF91CF910994DF91CF9108951F93CF932F
:1003E000DF93282F30E0F901E95EFD4F8491F90198
:1003F000ED5FFD4FD491F901E151FE4FC491CC2343
:10040000A9F0162F81110E944201EC2FF0E0EE0FAF
:10041000FF1FE552FE4FA591B4918FB7F894EC9170
:10042000111108C0D095DE23DC938FBFDF91CF91EF
:100430001F910895DE2BF8CFCF93DF9390E0FC015E
:10044000ED5FFD4F249181519E4FFC0184918823E3
:10045000D1F090E0880F991FFC01EF52FE4FA5915B
:10046000B491FC01E552FE4FC591D49161110EC0CB
:100470009FB7F8948C91E22FE0958E238C9328817E
:10048000E223E8839FBFDF91CF9108958FB7F8945F
:10049000EC91E22BEC938FBFF6CF3FB7F8948091AD
:1004A000330390913403A0913503B091360326B500
:1004B000A89B05C02F3F19F00196A11DB11D3FBF9C
:1004C000BA2FA92F982F8827BC01CD01620F711D6B
:1004D000811D911D42E0660F771F881F991F4A9565
:1004E000D1F708958F929F92AF92BF92CF92DF92F1
:1004F000EF92FF924B015C010E944D026B017C0167
:100500000E944D026C197D098E099F09683E734057
:1005100081059105A8F321E0821A9108A108B1088C
:1005200088EEC80E83E0D81EE11CF11C81149104F2
:10053000A104B10429F7FF90EF90DF90CF90BF9016
:10054000AF909F908F9008950F931F93CF93DF9359
:100550008C01C62F8091ED03823074F09091C00021
:1005600090649093C00061E00E94EE0161E070E051
:1005700080E090E00E947202902FF8012FEF3FEF91
:100580008191282788E0A901417055273695279544
:10059000452B21F041E0242740EA3427815099F788
:1005A0008E2F891B8C1760F3322723273227F801FF
:1005B000EC0FF11D3083E1E0EC0FE00FF12FF11DA6
:1005C0002083CE5F8091370390913803D0E0DC0127
:1005D000ED91FC910280F381E02DAE01B801099507
:1005E0006AE070E080E090E00E9472028091ED038A
:1005F00082303CF09091C00096FFFCCF60E00E94FA
:10060000EE01CE01DF91CF911F910F9108950F93CD
:100610001F93CF93DF93CDB7DEB7C054D1090FB688
:10062000F894DEBF0FBECDBF9091EC0399838A830F
:1006300081E08B83DB01AA0FBB1FA20FB31FCB018D
:1006400020E0460F572F511D382F361B8417950772
:1006500070F40D911D91E1E0F0E0012B09F4E0E070
:1006600001C0EE0F3A95EAF72E2B0196EDCF2C83C1
:1006700064E0CE0101960E94A402C05CDF4F0FB679
:10068000F894DEBF0FBECDBFDF91CF911F910F91C8
:100690000895EF92FF920F931F93CF93DF93CDB7FF
:1006A000DEB7C054D1090FB6F894DEBF0FBECDBF80
:1006B0009091EC0399838A83842F880F8B83CB01DD
:1006C000880F991F280F391FDE0111967B0163E007
:1006D00070E0CD014E0D5F2D511D1296E416F5060A
:1006E00088F4F901108101812E5F3F4F11960C9320
:1006F000119712961C9312976E5F7F4FFFEFEF1AC0
:10070000FF0AEBCF0E94A402C05CDF4F0FB6F89443
:10071000DEBF0FBECDBFDF91CF911F910F91FF9034
:10072000EF900895AF92BF92CF92DF92EF92FF9237
:100730000F931F93CF93DF936C017B018B01040F09
:10074000151FEB015E01AE18BF08C017D10759F0A5
:100750006991D601ED91FC910190F081E02DC601E7
:100760000995892B79F7C501DF91CF911F910F91E1
:10077000FF90EF90DF90CF90BF90AF900895FC0175
:10078000538D448D252F30E0842F90E0821B930BF6
:10079000541710F0CF96089501970895FC01918D9C
:1007A000828D981761F0A28DAE0FBF2FB11D5D969F
:1007B0008C91928D9F5F9F73928F90E008958FEF41
:1007C0009FEF0895FC01918D828D981731F0828DF5
:1007D000E80FF11D858D90E008958FEF9FEF08954C
:1007E000FC01918D228D892F90E0805C9F4F821BB0
:1007F00091098F739927089589E393E00E94F0038C
:1008000021E0892B09F420E0822F089580E090E018
:10081000892B29F00E94FC0381110C94000008959B
:10082000FC01A48DA80FB92FB11DA35ABF4F2C9165
:10083000848D90E001968F739927848FA689B7895C
:100840002C93A089B1898C91837080648C93938D53
:10085000848D981306C00288F389E02D80818F7DF6
:1008600080830895EF92FF920F931F93CF93DF93AE
:10087000EC0181E0888F9B8D8C8D98131AC0E889DC
:10088000F989808185FF15C09FB7F894EE89FF89AB
:100890006083E889F98980818370806480839FBF49
:1008A00081E090E0DF91CF911F910F91FF90EF9049
:1008B0000895F62E0B8D10E00F5F1F4F0F73112759
:1008C000E02E8C8D8E110CC00FB607FCFACFE88994
:1008D000F989808185FFF5CFCE010E941004F1CF08
:1008E000EB8DEC0FFD2FF11DE35AFF4FF0829FB708
:1008F000F8940B8FEA89FB8980818062CFCF0F93B8
:100900001F93CF93DF938C01D0E0C0E0F801EC0F90
:10091000FD1F6491662341F089E393E00E94320455
:10092000892B11F02196F2CFCE01DF91CF911F914B
:100930000F910895CF93DF93EC01888D8823B9F050
:10094000AA89BB89E889F9898C9185FD03C08081DA
:1009500086FD0DC00FB607FCF7CF8C9185FFF2CF57
:10096000808185FFEDCFCE010E941004E9CFDF9199
:10097000CF9108951F93CF93DF93FC012181261718
:1009800031F0162FEC0180810E94EE011983DF9176
:10099000CF911F91089508958FEF9FEF08958FEFE6
:1009A0009FEF08958091250390E09195819591099D
:1009B000089590E080E008952091DB02260F332710
:1009C000331F21323105ECF42091FF02FC0190E04D
:1009D00080E0243069F082E00895A091DB0221914B
:1009E000AC0145545D4FA40FB52FB11D2C9301965A
:1009F000861798F38091DB02680F6093DB0280E03A
:100A0000089581E00895CF93DF93CB01EA01642F2D
:100A10000E94DC04CE01DF91CF910895CF93DF9344
:100A20001F92CDB7DEB7698361E0CE0101960E94C7
:100A3000DC0481E090E00F90DF91CF9108958091E8
:100A4000DA039091DB0380359105C0F48CE295E0E8
:100A50000E946B0186E495E00E946B0180E695E0C0
:100A60000E946B018AE795E00E946B0184E995E0A2
:100A70000E946B018EEA95E00C946B0186EB94E08A
:100A80000E94CE0188EC94E00E94CE018AED94E0B1
:100A90000E94CE018CEE94E00E94CE018EEF94E095
:100AA0000E94CE0180E195E00C94CE01FB01019003
:100AB0000020E9F73197AF01461B570BDC01ED91A0
:100AC000FC910280F381E02D0994CF93DF930E9483
:100AD0007F04EC0163E371E089E393E00E94560533
:100AE0008C0F9D1FDF91CF9108950F931F93CF938C
:100AF000DF93EC010E9456058C0163E371E0CE01A7
:100B00000E945605800F911FDF91CF911F910F9189
:100B100008950F931F93CF93DF938C01EB0189E32B
:100B200093E00E947505F80180819181009739F06A
:100B3000BE01DF91CF911F910F910C947505DF914C
:100B4000CF911F910F910895EF92FF920F931F93F2
:100B5000CF93DF938C01D62FC0E0D80112968D91F0
:100B60009C911397C8171906E4F41496ED91FC9123
:100B7000E080F18080E0309759F466E371E0C801CD
:100B80000E9489056D2FC7010E94BA04CF5FE5CF8F
:100B9000C817C1F30280F381E02DE080F1808F5F00
:100BA000F7CFDF91CF911F910F91FF90EF900895B4
:100BB000CF93DF93EC014B815C8129813A8142170D
:100BC000530771F589E991E00E947F048091B30297
:100BD0009091B402892BE9F481E090E09093B40203
:100BE0008093B30286E991E00E9465058C899D8916
:100BF00018161906ACF461E08091B3029091B4022A
:100C0000892B09F460E0CE014296DF91CF910C94DC
:100C1000A4051092B4021092B30282E991E0E4CFED
:100C2000DF91CF910895CF93DF93EC014E855F85DF
:100C30006A857B8589E393E00E9492032B813C8146
:100C400089819A8128173907C1F485E891E00E94CB
:100C500065058C899D891816190694F461E02B812D
:100C60003C8189819A812817390709F460E0CE0117
:100C70004296DF91CF910C94A40588E791E0E7CFED
:100C8000DF91CF910895BF92CF92DF92EF92FF92C2
:100C90000F931F93CF93DF938C016B01D0E0C0E0E3
:100CA000862F8170B82ED80112968D919C91139742
:100CB000C817D907ACF59C2F1496ED91FC91E080F4
:100CC000F18080E0309719F566E371E0C8010E9479
:100CD0008905D7011296ED91FC91208131816B2D10
:100CE000B2E0CB16D10429F461E02115310509F0F9
:100CF00060E0862F90E08217930739F0918380831C
:100D0000F701808191810E94BA042196CCCF891786
:100D100000F70280F381E02DE080F1808F5FF7CF54
:100D2000DF91CF911F910F91FF90EF90DF90CF90C7
:100D3000BF9008950F931F93CF93DF93EC01A88189
:100D4000B981E889F98913964D915C9114971196B0
:100D50002D913C9142175307D9F02FB7F894409149
:100D60002F035091300360913103709132032FBFF4
:100D7000428353836483758321E02183108261E081
:100D800070E00696DF91CF911F910F910C9443066E
:100D900021812223B1F12FB7F89440912F03509174
:100DA000300360913103709132032FBF02811381B0
:100DB00024813581401751076207730720F44150A1
:100DC000510961097109401B510B620B730BA6811C
:100DD000B7810D90BC91A02D28EE33E0A29F800139
:100DE000A39F100DB29F100D112430E020E040179A
:100DF000510762077307B0F01182128213821482C6
:100E00001582E889F989208121110CC089EA91E0D5
:100E10000E946505E889F98981E0808370E060E0DF
:100E2000CE01AFCFDF91CF911F910F910895DC01DB
:100E3000ED91FC9143815481218132814217530706
:100E400029F462E070E006960C94430608950C9431
:100E500017070F931F93CF93DF93D0E0C0E08091EB
:100E60000C0490910D04C817D9070CF59C2FE09144
:100E70000E04F0910F040081118180E0309771F42D
:100E800066E371E08AE094E00E948905D8011E962D
:100E9000ED91FC91C80109952196E1CF8917B0F732
:100EA0000280F381E02D008111818F5FF7CFDF9108
:100EB000CF911F910F910895EF92FF920F931F937F
:100EC000CF93DF93EC017B010E811F8184E090E0E2
:100ED0000E9435159F838E83892B29F469E671E082
:100EE000CE010E948905EE81FF8113821282F18278
:100EF000E0828C819D81892B71F4FD83EC838A8152
:100F00009B8101969B838A83DF91CF911F910F91E3
:100F1000FF90EF900895D8011396FC93EE931297EB
:100F2000EECFEF92FF920F931F93CF93DF93EC01DD
:100F30007B010E811F8184E090E00E9435159F8324
:100F40008E83892B29F469E671E0CE010E94890520
:100F5000EE81FF8113821282F182E0828C819D8179
:100F6000892B71F4FD83EC838A819B8101969B839D
:100F70008A83DF91CF911F910F91FF90EF90089599
:100F8000D8011396FC93EE931297EECF0F931F9315
:100F9000CF93DF938C01C0910804D091090484E0C1
:100FA00090E00E9435159093090480930804892BE2
:100FB00031F469E671E082E094E00E948905E091F5
:100FC0000804F09109041382128211830083809136
:100FD000060490910704892B91F4F0930704E093A1
:100FE00006048091040490910504019690930504F1
:100FF00080930404DF91CF911F910F910895FB839B
:10100000EA83EFCFCF93DF93EC012B813C81898181
:101010009A8128173907D1F44E855F856A857B85CB
:1010200089E393E00E9492036AE971E089E393E027
:101030000E94560588859985892BC9F481E090E046
:101040009987888785E791E00E9465058C899D894D
:10105000181619068CF461E088859985892B09F4A6
:1010600060E0CE014296DF91CF910C94A4051986E1
:10107000188681E791E0E8CFDF91CF9108950F9333
:101080001F93CF93DF93EC018C819D81009769F0D2
:10109000FC01028113810E94D1151D830C838A817A
:1010A0009B8101979B838A83EFCF81E0DF91CF9172
:1010B0001F910F910895CF93DF93EC0186559F4FB9
:1010C0000E943F08FE01EE54FF4F11821082CE01B4
:1010D00084549F4F0E943F08FE01EC53FF4F118242
:1010E0001082CE0182539F4F0E943F08FE01EA52B8
:1010F000FF4F11821082CE0180529F4F0E943F0805
:10110000FE01E851FF4F11821082CE018E509F4F99
:101110000E943F08FE01E650FF4F11821082CE016F
:101120008C5F9E4F0E943F08C45FDE4F1982188279
:10113000DF91CF9108950F931F93CF93DF93EC012D
:101140008C819D81009769F0FC01028113810E94CE
:10115000D1151D830C838A819B8101979B838A8390
:10116000EFCF81E0DF91CF911F910F910895CF9341
:10117000DF93EC0144960E949B081B8A1A8ACE01D9
:101180008E960E949B081DA61CA6CE01885B9F4FD1
:101190000E949B08FE01EA5BFF4F11821082CE0184
:1011A0008E599F4F0E949B08FE01E05AFF4F11820B
:1011B00010827A9611821082CE0184589F4F0E942D
:1011C0009B08FE01EC56FF4F11821082CE018A5619
:1011D0009F4FDF91CF910C949B080F931F93CF9358
:1011E000DF93EC010C811D81012B51F08C819D81DD
:1011F000FC01028113810E94D1151D830C83F4CF61
:10120000DF91CF911F910F910895CF93DF93EC0160
:1012100042960E94ED088A859B85009721F0DF9118
:10122000CF910C94D115DF91CF910895CF93DF9397
:10123000EC0181E191E099838883CE018C579F4F27
:101240000E940509CE0186599F4F0E940509CE01D3
:10125000805B9F4F0E940509CE01C6960E9405093A
:10126000CE014C960E940509CE010296DF91CF91E6
:101270000C940509CF93DF93EC010E941609CE016F
:10128000DF91CF910C94D115CF93DF93EC018DE2D8
:1012900091E099838883CE018C5F9E4F0E94ED0878
:1012A000CE018E509F4F0E94ED08CE0180529F4F7D
:1012B0000E94ED08CE0182539F4F0E94ED08CE019F
:1012C00084549F4F0E94ED08CE0186559F4F0E9487
:1012D000ED08CE01DF91CF910C941609CF93DF93E7
:1012E000EC010E944409CE01DF91CF910C94D115FD
:1012F000CF93DF938AE295E00E94B70882E194E001
:101300000E945B0880910E0490910F04009799F061
:10131000FC01C281D3810E94D115D0930F04C093E8
:101320000E0480910C0490910D04019790930D048C
:1013300080930C04E7CFDF91CF9108951F93CF9353
:10134000DF9385ED8093BC008091B7029091B80245
:10135000A091B902B091BA020796A11DB11D23E078
:10136000B695A795979587952A95D1F72091BC00BA
:1013700024FD03C01092FF0252C04091B702509169
:10138000B8026091B9027091BA02452B462B472BE7
:1013900069F30097A105B10541F02AE22A95F1F71A
:1013A00000C00197A109B109E1CF8091B602C1E067
:1013B000C093B502882399F1D091B8001091BA007A
:1013C0008091BC008A7B8093BC0060E082E10E9437
:1013D000EE0160E083E10E94EE011092FF02C093F3
:1013E00001031092000361E082E10E94EE0161E0DE
:1013F00083E10E94EE018091B9008E7F8093B90055
:101400008091B9008D7F8093B90088E48093B80003
:1014100085E48093BC001093BA00D093B800DF91AC
:10142000CF911F910895EF92FF921F93CF93DF9377
:10143000CDB7DEB7C456D1090FB6F894DEBF0FBEE4
:10144000CDBF90E080E00E94CE1490E0009711F4B0
:1014500081E190E09093DB038093DA039F938F9375
:1014600082E192E09F938F93CE0101967C019F933E
:101470008F930E942717B70189E393E00E947505B7
:1014800081E090E00E94CE14282F30E03093E303F7
:101490002093E2031F928F9380E392E09F938F93B8
:1014A000FF92EF920E942717B70189E393E00E9411
:1014B000750582E090E00E94CE14182F83E090E042
:1014C0000E94CE14212F30E0322F2227820F932F3B
:1014D000911D9093DD038093DC039F938F9381E4B0
:1014E00092E09F938F93FF92EF920E942717B7018C
:1014F00089E393E00E9475050FB6F894DEBF0FBE36
:10150000CDBFCC59DF4F0FB6F894DEBF0FBECDBFB5
:10151000DF91CF911F91FF90EF900895FF920F936D
:101520001F93CF93DF93EC01F62E08811981C80138
:101530000E94CE14F81621F06F2DC8010E94D61417
:10154000CE01DF91CF911F910F91FF9008952F92BF
:101550003F924F925F926F927F928F929F92AF9243
:10156000BF92CF92DF92EF92FF920F931F93CF9390
:10157000DF93CDB7DEB7CC56D1090FB6F894DEBFF6
:101580000FBECDBF8091370390913803DC01ED9100
:10159000FC910084F185E02D09958C010E944D029B
:1015A00001151105F1F41092A1021092A002C45984
:1015B000DF4F0FB6F894DEBF0FBECDBFDF91CF91E6
:1015C0001F910F91FF90EF90DF90CF90BF90AF9061
:1015D0009F908F907F906F905F904F903F902F9053
:1015E00008952091A0023091A10202171307C9F0BB
:1015F0001093A1020093A0020091FE031091FF033B
:101600002091000430910104600F711F821F931F0D
:1016100060939C0270939D0280939E0290939F0220
:10162000C6CF00919C0210919D0220919E023091A4
:101630009F02601771078207930708F4B8CF1092D2
:10164000A1021092A0028E010F5F1F4F6801F12CC2
:10165000E12C8091370390913803DC01ED91FC91EE
:101660000084F185E02D0995892B09F476C08091DD
:10167000370390913803DC01ED91FC910284F385EE
:10168000E02D0995F60181936F01FFEFEF1AFF0A34
:1016900020E4E216F104E9F6F12CE12CCC24C39409
:1016A000D12C61E0B1E0EB16F10409F46DC1E2E088
:1016B000EE16F10409F472C18091DE039091DF030C
:1016C000892B09F460E088EC95E00E94BA04FFEFF2
:1016D000EF1AFF0A23E0E216F10419F7312C212C4E
:1016E00093E1C92E96E0D92E27E1622E27E0722ED3
:1016F00037E2432E37E0532E42E0A42E48E0B42ECA
:1017000058EDE52E55E0F52E41E02416310409F49C
:1017100043C36091DA031A821982C8010E948E0ABB
:101720008091DA039091B202891779F08093B20226
:10173000813409F4B5C208F06EC1823109F47EC269
:1017400008F03EC1813109F466C22A94232809F4C5
:101750002ECF22242394312CD7CFE114F10409F4A5
:1017600026CF3EEF3E0DF8018FEF9FEF2E2F201B6F
:10177000231788F42191822728E0AC014170552776
:1017800096958795452B21F041E0842740EA9427E0
:10179000215099F7EBCFEFEFFFEFEC0FFD1FEE0DB0
:1017A000FF1D2081FE01EE0DFF1D30812327322712
:1017B00023279827892798272817390709F06CCFFE
:1017C000E091EC038981E81367CF9A81A6E0B1E04C
:1017D0002DE031E08D91891709F4F1C22A173B07FA
:1017E000C9F781E0A696EFAFA6979058A7969FAF4E
:1017F000A797A8968FAFA89763E0CE018B599F4F0C
:101800000E94A40249CF4D8150E0542F44276E819D
:10181000640F752F711D2091F8033091F9039230F8
:1018200031F0913099F52091F6033091F70348E0BB
:1018300061157105E1F146171706C8F14B81A42F18
:10184000B0E0BA2FAA274C814A0F5B2F511D460FDB
:10185000571F2417350708F4C7C26B8170E0762F35
:1018600066279C81690F711D833009F45AC008F501
:10187000813009F449C0823009F00ECF2091F00385
:101880003091F1034E8182E090E045C02091FA034F
:101890003091FB03933049F030E020E040E0943099
:1018A00039F62091FC033091FD0349E1C1CF83E07B
:1018B00099CF853009F445C0E8F1863009F0ECCEC7
:1018C0004091F2035091F3032D813E81322723276B
:1018D0003227A696EFAFA697A7968FAFA797A896A1
:1018E0007FAFA897A9966FAFA997AA963FAFAA977F
:1018F000AB962FAFAB97660F771FFA01E60FF71F76
:101900003183208366E079CF2091EE033091EF039D
:101910004E8181E090E00E940703892B09F0BCCE44
:1019200046CE2091F2033091F3034E8183E00E9472
:101930004903F3CF2091F4033091F5034E8184E005
:10194000F6CF4091EE035091EF032D813E81322777
:1019500023273227A696EFAFA697A7968FAFA79714
:10196000A8967FAFA897A9966FAFA997AA963FAF01
:10197000AA97AB962FAFAB97660F771F640F751FB3
:10198000DB012D933C93BECF8091E0039091E10366
:10199000892B09F460E08AEC95E097CE8091E20310
:1019A0009091E303892B09F460E0E091EC04F0915D
:1019B000ED046583DA82C982C8010E948E0A87CE4F
:1019C000833109F45AC1823309F0BFCE84E091E03B
:1019D0000E9465050E947809F0923D05E0923C0561
:1019E00068EC75E08EE395E00E949107F092570550
:1019F000E092560568EC75E088E595E00E94910755
:101A0000F0927105E092700568EC75E082E795E070
:101A10000E9491079ACE843509F47EC1C8F58234BC
:101A200009F45BC1833409F090CE8DEC90E00E9404
:101A300065050E947809F0923D05E0923C0568EC4E
:101A400075E08EE395E00E9491076AEC75E08EE305
:101A500095E00E949107F0925705E092560568ECD8
:101A600075E088E595E00E9491076AEC75E088E5ED
:101A700095E00E949107F0927105E092700568EC84
:101A800075E082E795E00E9491076AEC75E0BECFB1
:101A9000823609F45CC1803709F057CE88E690E0C1
:101AA0000E9465058091AA0281110DC01092A302C7
:101AB0001092A4021092A5021092A6021092A70200
:101AC00081E08093AA020E947809E091EC04F091F1
:101AD000ED0499249394958281E090E09093E30340
:101AE0008093E2038091DD038F938091DC038F93D9
:101AF000A6E8B2E0BF93AF931F930F930E942717FE
:101B0000B80189E393E00E9475058CED93E0909312
:101B1000A9028093A8022FB7F89480912F03909187
:101B20003003A0913103B09132032FBF8093A40200
:101B30009093A502A093A602B093A7029092A3024D
:101B40001092A202A2EAB2E0B093FD04A093FC04BA
:101B5000EAE9F6E0F093FB04E093FA0466E275E04C
:101B600082EF94E00E945C075092C5044092C40446
:101B700062E275E08CEB94E00E945C075092D7041F
:101B80004092D60462E275E08EEC94E00E945C071D
:101B90005092E9044092E80462E275E080EE94E03D
:101BA0000E945C07809010049090110484E090E003
:101BB0000E94351590931104809310040F900F909C
:101BC0000F900F900F900F90892B31F469E671E020
:101BD0008AE094E00E948905E0911004F0911104DC
:101BE000138212828CEE94E09183808380910E04A4
:101BF00090910F04892B09F0C9C0F0930F04E09372
:101C00000E0480910C0490910D04019690930D04A4
:101C100080930C049ACD86E591E00E9465050E94B0
:101C20007809D0923D05C0923C05D0925705C092EC
:101C30005605D0927105C092700587CD8AE391E078
:101C40000E9465050E947809B0923D05A0923C056E
:101C50001092350510923405B0925705A0925605A2
:101C600010924F0510924E05B0927105A09270052A
:101C7000109269051092680568CD8FE191E00E948D
:101C800065050E947809F0923D05E0923C05F092CE
:101C90005705E0925605F0927105E092700555CD1A
:101CA0006AE672E089E393E00E9475050E94780974
:101CB000D0923D05C0923C0568EC75E08EE395E05E
:101CC0000E949107D0925705C09256056AEC75E0C4
:101CD00088E595E00E949107ACCF88EE90E00E94E5
:101CE00065050E947809B0923D05A0923C0568EC1C
:101CF00075E08EE395E00E949107B0925705A0929F
:101D000056056AEC75E088E595E00E949107B0926F
:101D10007105A092700519CD81EB90E00E946505D8
:101D20000E9478097092C5046092C40462E275E072
:101D30008CEB94E00E945C077092D7046092D6040A
:101D400066E275E08EEC94E00E945C07FECC85E9CB
:101D500090E00E9465050E9478097092C504609227
:101D6000C40466E275E08CEB94E00E945C0770921C
:101D7000D7046092D60462E275E08EEC94E00E9493
:101D80005C077092E9046092E804DFCCD4011396FA
:101D9000FC93EE93129735CF6091DD03E2E0F0E023
:101DA000FA83E983C8010E948E0A6091DC0383E014
:101DB00090E09A838983C8010E948E0AC6CC96302F
:101DC00009F44BCD953009F01ECD2B8130E0322F38
:101DD00022274C81240F311D4091F6035091F703C7
:101DE0002417350708F439CD82E0FCCC1F920F92FE
:101DF0000FB60F9211242F933F938F939F93AF931E
:101E0000BF9380912F0390913003A0913103B09143
:101E1000320330912E0323E0230F2D3758F501961E
:101E2000A11DB11D20932E0380932F0390933003A7
:101E3000A0933103B0933203809133039091340324
:101E4000A0913503B09136030196A11DB11D809379
:101E5000330390933403A0933503B0933603BF91BB
:101E6000AF919F918F913F912F910F900FBE0F9047
:101E70001F90189526E8230F0296A11DB11DD2CF01
:101E80001F920F920FB60F9211242F933F934F93EF
:101E90005F936F937F938F939F93AF93BF93EF93D2
:101EA000FF9389E393E00E941004FF91EF91BF91AB
:101EB000AF919F918F917F916F915F914F913F91E2
:101EC0002F910F900FBE0F901F9018951F920F9299
:101ED0000FB60F9211242F938F939F93EF93FF933D
:101EE000E0914903F0914A038081E0914F03F09122
:101EF000500382FD1BC09081809152038F5F8F73CE
:101F000020915303821741F0E0915203F0E0E75C27
:101F1000FC4F958F80935203FF91EF919F918F918A
:101F20002F910F900FBE0F901F9018958081F4CFC6
:101F30001F920F920FB60F9211240F900FBE0F90A9
:101F40001F9018951F920F920FB60F9211242F9386
:101F50003F934F935F936F937F938F939F93AF9331
:101F6000BF93EF93FF938091B900887F803609F487
:101F70004AC0F0F5883209F4A5C018F5803109F49B
:101F800099C0B8F4882309F4F5C0883009F492C0E8
:101F9000FF91EF91BF91AF919F918F917F916F9141
:101FA0005F914F913F912F910F900FBE0F901F9017
:101FB0001895883109F486C0803251F78093FE026B
:101FC00014C0803409F49BC040F48033B9F38833E3
:101FD000F9F68093FE0285ECAEC0803509F483C02B
:101FE000883509F494C0883499F60E949E09D0CFB0
:101FF000883909F48AC038F5883729F050F48836D2
:1020000011F0803729F683E08093FF021092FD02E1
:1020100055C0883809F479C0803919F0803809F042
:10202000B7CF8091FD02803208F06FC0E091FD02D1
:1020300081E08E0F8093FD028091BB00F0E0E352BF
:10204000FD4F80833BC0803B39F0D0F4803A09F4E7
:1020500077C0883A09F09CCF84E08093FF02109209
:10206000DC021092DB02F0E0E0E009958091DB02F7
:1020700081110FC081E08093DB021092BB0209C086
:10208000803C09F4A8CF883C09F4A5CF883B09F02F
:102090007FCFE091DC0281E08E0F8093DC02F0E0E4
:1020A000E554FD4F80818093BB009091DC028091CC
:1020B000DB0229C0809124038093BB0085EC8093D0
:1020C000BC0066CF9091230380912203981758F5A6
:1020D000E091230381E08E0F80932303F0E0EE5F15
:1020E000FC4F8081E9CFE091230381E08E0F809344
:1020F00023038091BB00F0E0EE5FFC4F8083909162
:102100002303809122039817C8F285E8D8CFE09185
:10211000230381E08E0F809323038091BB00F0E0C6
:10212000EE5FFC4F80838091010381115ECF81E0DF
:102130008093000384EA8093BC001092FF0228CFB2
:1021400085EC8093BC001092FF028091FD028032EA
:1021500030F4E091FD02F0E0E352FD4F1082609117
:10216000FD0270E08DED92E0F0E0E0E00995109264
:10217000FD020ECF1092FE0238CF0F931F93CF9324
:10218000DF93EC0188819981009759F02A813B8186
:102190002617370730F081E0DF91CF911F910F9123
:1021A00008958B016F5F7F4F0E945A16009759F078
:1021B000998388831B830A832C813D81232B59F7C4
:1021C000FC011082E8CF80E0E7CFCF93DF93EC01F2
:1021D0001B861A861D861C861F861E8670E060E0A0
:1021E0000A960E94BD102A853B85811117C02115D2
:1021F000310519F0C9010E94D1151B861A861F8668
:102200001E861D861C861D8A1C8A1F8A1E8A198EA0
:10221000188E1B8A1A8ADF91CF9108951F861E8619
:1022200065E371E0C9010E942017EDCFEF92FF92A4
:102230000F931F93CF93DF93EC017B01FB01019080
:102240000020E9F731978F01061B170BB8010E9498
:10225000BD1028813981811113C02115310519F074
:10226000C9010E94D115198218821D821C821B820D
:102270001A82DF91CF911F910F91FF90EF900895F7
:102280001D830C83B701C901DF91CF911F910F917D
:10229000FF90EF900C9420178F929F92AF92BF9275
:1022A000CF92DF92EF92FF921F93CF93DF93EC01D7
:1022B00021E131E0FC0121933193CF010E94E5102F
:1022C000CE014C960E94E510CE01C6960E94E51004
:1022D0004E01F0E58F0E911CC4010E94E5105E01D5
:1022E0008AE6A80EB11CC5010E94E5106E01E4E863
:1022F000CE0ED11CC6010E94E51060E083E00E9472
:102300001C0260E08AE00E941C0260E08BE00E94F8
:102310001C0261E084E00E941C0261E087E00E94F0
:102320001C0283E08A831C821B821E821D8211E0B4
:102330001F83198618866EEA71E0CE010C960E9402
:1023400016111B8A1A8A8AE08C8F1E8E1D8E18A287
:102350001F8E19A31BA21AA268EB71E0CE0186960C
:102360000E9416111DA61CA68BE08EABEE24E394F2
:10237000F12CF8AEEFAAFAAEE9AE1BAF1DAE1CAE63
:1023800062EC71E0CE01805C9F4F0E941611FE014D
:10239000EA5BFF4F118210828DE0F4018083319659
:1023A00011821082329611821082329610833196F9
:1023B0001182108267ED71E0CE01865A9F4F0E9414
:1023C0001611FE01E05AFF4F1182108281E1F501E2
:1023D0008083359610833196F182E08262EF71E05E
:1023E000CE018C589F4F0E94161182E1F601808326
:1023F000359610833196F182E08262E072E0CE0180
:1024000082579F4F0E941611FE01E256FF4F84E053
:10241000808331961082319687E08083CF55DF4FDD
:102420001882DF91CF911F91FF90EF90DF90CF90B6
:10243000BF90AF909F908F900895E9E3F3E01382EF
:10244000128288EE93E0A0E0B0E084839583A683B7
:10245000B7838BE191E09183808385EC90E0958751
:10246000848784EC90E09787868780EC90E0918B5E
:10247000808B81EC90E0938B828B82EC90E0958B4B
:10248000848B86EC90E0978B868B118E128E138E48
:10249000148E8AE295E00E944C1182E194E00E9441
:1024A0004C11A2E1B4E08DE291E011969C938E93E1
:1024B0001092B5041092B4041092BF041092BE049E
:1024C0001092C1041092C0041092C3041092C2046E
:1024D0001092BD041092BC041092D1041092D0044A
:1024E0001092D3041092D2041092D5041092D40406
:1024F0001092CF041092CE041092E3041092E204E2
:102500001092E5041092E4041092E7041092E6049D
:102510001092E1041092E0041092F5041092F40479
:102520001092F7041092F6041092F9041092F80435
:102530001092F3041092F20410920705109206050F
:10254000109209051092080510920B0510920A05C9
:1025500010920505109204051092190510921805A5
:1025600010921B0510921A0510921D0510921C0561
:10257000109217051092160584E194E09093B70429
:102580008093B604E4EEF3E0F093BB04E093BA0466
:1025900013968D919C911497918380838EE294E0A1
:1025A0009093C9048093C80486EE93E09093CD0481
:1025B0008093CC045D968D919C915E9793838283EA
:1025C00088E494E09093DB048093DA0488EE93E04F
:1025D0009093DF048093DE04D7968D919C91958330
:1025E000848382E694E09093ED048093EC0410924F
:1025F0006704AEEDB3E015961C921E9214978AEE16
:1026000093E09093F1048093F0048091630490919F
:1026100064049783868383E090E09093DD03809346
:10262000DC038CE794E09093FF048093FE0486ED36
:1026300093E0909303058093020586E994E09093DC
:1026400011058093100588ED93E090931505809314
:10265000140580EB94E09093230580932205B093BA
:102660002505A093240582EB94E0909327058093A1
:10267000260580EE93E09093290580932805EAE0F3
:10268000F4E013821282158214821782168211825C
:102690001082E2E0F4E01382128215821482178223
:1026A000168211821082ECEEF3E013821282158200
:1026B000148217821682118610861386128615865A
:1026C000148617861686118A108A11821082128A41
:1026D000138A148A158A0895789484B5826084BD1B
:1026E00084B5816084BD85B5826085BD85B5816016
:1026F00085BD80916E00816080936E001092810094
:10270000809181008260809381008091810081604E
:10271000809381008091800081608093800080910F
:10272000B10084608093B1008091B000816080939B
:10273000B00080917A00846080937A0080917A0062
:10274000826080937A0080917A00816080937A0021
:1027500080917A00806880937A001092C10089E3AA
:1027600093E090933803809337038EED93E090933A
:10277000EF038093EE0383E090E09093F703809360
:10278000F60384EE93E09093F1038093F00384E0EA
:1027900090E09093F9038093F8038AED93E090938F
:1027A000F3038093F20382E090E09093FB03809325
:1027B000FA0326ED33E03093F5032093F40390936E
:1027C000FD038093FC0381E08093EC038CE0809315
:1027D000ED03E0914903F0914A0382E08083E091A8
:1027E0004503F09146031082E0914703F0914803BE
:1027F00080E1808310925103E0914D03F0914E03EC
:1028000086E08083E0914B03F0914C0380818061EE
:102810008083E0914B03F0914C038081886080833A
:10282000E0914B03F0914C03808180688083E091BC
:102830004B03F0914C0380818F7D80838091C20097
:1028400086608093C20061E08CE00E941C0260E020
:102850008CE00E94EE018FE291E0A0E0B0E0809376
:10286000FE039093FF03A0930004B09301040E9421
:10287000130A8FE195E00E94C60787EA9AE00E945A
:10288000C60789E297E00E94C6078CEB91E00E94A0
:10289000650589E393E00E949A0404E610E080E075
:1028A000E82E80E0F82E2FB7F89480912F039091B6
:1028B0003003A0913103B09132032FBF40912A031E
:1028C00050912B0360912C0370912D03841B950B69
:1028D000A60BB70B0A97A105B10508F443C02FB7A3
:1028E000F89480912F0390913003A0913103B0911F
:1028F00032032FBF80932A0390932B03A0932C03C2
:10290000B0932D0380912803909129030196B8017B
:102910000E941B159093290380932803C0E08091A7
:10292000040490910504C8171906E4F4E091060424
:10293000F0910704C080D18080E0309751F466E3C5
:1029400071E082E094E00E948905F6010995CF5F6D
:10295000E6CFC817D1F30280F381E02DC080D1808B
:102960008F5FF7CFE114F10409F49DCF0E94FC03BF
:10297000882309F498CF0E94000095CF82E094E06C
:102980000E94ED088AE094E00E94ED0882E194E064
:102990000E9444098AE295E00C941609F999FECF49
:1029A00092BD81BDF89A992780B50895262FF9998F
:1029B000FECF1FBA92BD81BD20BD0FB6F894FA9A22
:1029C000F99A0FBE019608952F923F924F925F920F
:1029D0006F927F928F929F92AF92BF92CF92DF922F
:1029E000EF92FF920F931F93CF93DF93CDB7DEB794
:1029F000CA1BDB0B0FB6F894DEBF0FBECDBF099428
:102A00002A88398848885F846E847D848C849B847E
:102A1000AA84B984C884DF80EE80FD800C811B818C
:102A2000AA81B981CE0FD11D0FB6F894DEBF0FBEBB
:102A3000CDBFED010895AA1BBB1B51E107C0AA1F22
:102A4000BB1FA617B70710F0A61BB70B881F991F4F
:102A50005A95A9F780959095BC01CD010895EE0F88
:102A6000FF1F0590F491E02D09940F931F93CF93CE
:102A7000DF938230910510F482E090E0E091CE0582
:102A8000F091CF0530E020E0B0E0A0E0309799F47D
:102A90002115310509F44AC0281B390B24303105B2
:102AA000D8F58A819B816115710589F1FB019383BA
:102AB0008283FE0111C04081518102811381481738
:102AC0005907E0F04817590799F4109761F01296EA
:102AD0000C93129713961C933296CF01DF91CF91EE
:102AE0001F910F9108950093CE051093CF05F4CF59
:102AF0002115310551F04217530738F0A901DB01C8
:102B00009A01BD01DF01F801C1CFEF01F9CF909328
:102B1000CF058093CE05CDCFFE01E20FF31F819349
:102B200091932250310939832883D7CF2091CC0546
:102B30003091CD05232B41F4209102013091030106
:102B40003093CD052093CC052091000130910101F7
:102B50002115310541F42DB73EB740910401509144
:102B60000501241B350BE091CC05F091CD05E21752
:102B7000F307A0F42E1B3F0B2817390778F0AC01A0
:102B80004E5F5F4F2417350748F04E0F5F1F50937D
:102B9000CD054093CC05819391939FCFF0E0E0E089
:102BA0009CCFCF93DF930097E9F0FC01329713821B
:102BB0001282A091CE05B091CF05ED0130E020E06A
:102BC0001097A1F420813181820F931F2091CC05B1
:102BD0003091CD052817390709F061C0F093CD0574
:102BE000E093CC05DF91CF910895EA01CE17DF077E
:102BF000E8F54A815B819E0141155105B1F7E90174
:102C0000FB83EA8349915991C40FD51FEC17FD0747
:102C100061F4808191810296840F951FE901998367
:102C20008883828193819B838A83F0E0E0E012961F
:102C30008D919C9113970097B9F52D913C91119727
:102C4000CD010296820F931F2091CC053091CD05C6
:102C50002817390739F6309751F51092CF051092A1
:102C6000CE05B093CD05A093CC05BCCFD383C28352
:102C700040815181840F951FC817D90761F44E5FB9
:102C80005F4F88819981480F591F518340838A8102
:102C90009B81938382832115310509F0B0CFF09396
:102CA000CF05E093CE059ECFFD01DC01C0CF13829E
:102CB0001282D7CFB0E0A0E0E0E6F6E10C94E61493
:102CC0008C01009751F4CB010E9435158C01C8018D
:102CD000CDB7DEB7E0E10C940215FC01E60FF71F5B
:102CE0009C0122503109E217F30708F49DC0D90175
:102CF000CD91DC911197C617D70798F0C530D10553
:102D000030F3CE0104978617970708F3C61BD70B3D
:102D10002297C193D1936D937C93CF010E94D115DB
:102D2000D6CF5B01AC1ABD0A4C018C0E9D1EA09142
:102D3000CE05B091CF05512C412CF12CE12C1097F0
:102D400031F58091CC059091CD058815990509F054
:102D50005CC04616570608F058C08091000190915B
:102D60000101009741F48DB79EB740910401509145
:102D70000501841B950BE817F90708F055C0F0937F
:102D8000CD05E093CC05F90171836083A0CF8D91CF
:102D90009C91119712966C90129713967C901397B2
:102DA000A815B90559F56C0142E0C40ED11CCA142E
:102DB000DB0420F1AC014A195B09DA011296159780
:102DC00080F06282738251834083D9016D937C933A
:102DD000E114F10471F0D7011396FC93EE9312976E
:102DE00076CF22968C0F9D1FF90191838083F3018A
:102DF000EFCFF093CF05E093CE0569CF4816590683
:102E000008F42C017D01D3019ACFCB010E94351526
:102E10007C01009749F0AE01B8010E941717C80164
:102E20000E94D115870153CF10E000E050CFFB0185
:102E3000DC0102C001900D9241505040D8F7089536
:102E4000FB01DC0101900D920020E1F70895AEE056
:102E5000B0E0EDE2F7E10C94F2140D891E8986E0F2
:102E60008C831A8309838FEF9FE79E838D83AE0146
:102E7000475E5F4F6F89788DCE0101960E944A1799
:102E80002F813885020F131FF80110822E96E4E07F
:102E90000C940E15ABE0B0E0E0E5F7E10C94E4141F
:102EA0007C013B018A01FC0117821682838181FF2C
:102EB000C8C1CE0101965C01F7019381F30193FD36
:102EC000859193FF81913F01882309F453C1853295
:102ED00039F493FD859193FF81913F01853229F467
:102EE000B70190E00E943A19E7CF912C212C312CA8
:102EF000FFE1F31538F08B3211F190F4803209F1D3
:102F0000833229F137FC3CC020ED280F2A3050F5E0
:102F100036FE20C08AE0989E200D1124922E06C015
:102F20008D3291F0803371F7689430F8F30193FD9E
:102F3000859193FF81913F018111DACF21C068947F
:102F400031F8689432F8F2CF689433F8EFCF689490
:102F500034F8ECCFEAE02E9E200D1124222E689446
:102F600035F8E4CF8E3229F436FC04C1689436F883
:102F7000DDCF8C3619F4689437F8D8CF8836B1F2A3
:102F8000982F9F7D95549330E0F08336A1F18337DD
:102F9000C1F1833509F063C02801F2E04F0E511CE6
:102FA000F801C080D180692D70E036FC02C06FEF5F
:102FB0007FEFC6010E9424194C01689437F8820102
:102FC0000AC00C5F1F4FFFE3F98388248394912C80
:102FD0006501E89437F833FE2DC0522C811491041A
:102FE00071F5552009F468CFB70180E290E00E94A6
:102FF0003A195A94F6CFF801808189830E5F1F4FEA
:10300000E4CF2801F2E04F0E511CF801C080D180BE
:10301000692D70E036FC02C06FEF7FEFC6010E94A1
:103020002F194C018201D5CFB70180E290E00E94B8
:103030003A192A942814190409F0B0F7CECFF601F2
:1030400037FC859137FE81916F01B70190E00E94B6
:103050003A1951105A94F1E08F1A9108BFCF843673
:1030600019F0893609F077C0F80137FE6BC060812E
:103070007181828193810C5F1F4FF32DFF763F2E6C
:1030800097FF09C090958095709561957F4F8F4F00
:103090009F4F689437F82AE030E0A5010E946A1932
:1030A000C82ECA188C2C432C36FE0CC0E89440F86D
:1030B000C91440F434FE05C032FC03C0F32DFE7E7B
:1030C0004F2E892C44FE95C0FE01EC0DF11D808130
:1030D000803309F087C0242D297E422E842D8870EC
:1030E000582E43FC95C040FE8FC09C2C821418F4CF
:1030F0002C0C922C981844FE91C0B70180E390E00C
:103100000E943A1942FE09C088E790E041FE02C0E1
:1031100088E590E0B7010E943A19C91408F48AC002
:10312000CA94D12C9FEFC91AD90ACA0CDB1CF6012C
:1031300082916F01B70190E00E943A19AC14BD046E
:10314000B1F74FCF60817181072E000C880B990B6E
:103150000E5F1F4F92CFD32CE894D4F82AE030E0D2
:10316000853739F1232D297FD22E8F3601F148F48E
:103170008835A9F0F701868197812B96E2E10C94BE
:103180000015803749F08837A9F7D4FE02C068944B
:10319000D2F820E130E00DC06894D4F8F6CF34FEC8
:1031A00003C0822F8660D82E20E132E002C028E0E2
:1031B00030E0F801D7FE0FC0608171818281938178
:1031C0000C5F1F4FA5010E946A19C82ECA183D2C1A
:1031D000E89437F867CF6081718190E080E00E5FFE
:1031E0001F4FF0CF42FC02C0839478CF8394839426
:1031F00075CF842D867809F471CFF6CFB70180E2C0
:1032000090E00E943A1983948214C0F3512C73CF3A
:10321000522C5818821408F46ECFF8CF842D86787B
:1032200009F47BCF8BE241FE80E247FC8DE2B701DF
:1032300090E071CFB70180E390E00E943A199A9430
:103240006CCF8FEF9FEF99CFFC01059061507040DC
:103250000110D8F7809590958E0F9F1F0895FC015F
:103260006150704001900110D8F7809590958E0FB5
:103270009F1F08950F931F93CF93DF93182F092F4C
:10328000EB018B8181FD09C01FEF0FEF812F902F84
:10329000DF91CF911F910F91089582FF14C02E816D
:1032A0003F818C819D81281739073CF4E881F981A1
:1032B000CF0101969983888310838E819F81019627
:1032C0009F838E83E3CFE885F985812F0995892B2C
:1032D000A1F3DACFFA01AA27283051F1203181F188
:1032E000E8946F936E7F6E5F7F4F8F4F9F4FAF4F0E
:1032F000B1E03ED0B4E03CD0670F781F891F9A1F21
:10330000A11D680F791F8A1F911DA11D6A0F711DD4
:10331000811D911DA11D20D009F468943F912AE0E0
:10332000269F11243019305D3193DEF6CF010895C8
:10333000462F4770405D4193B3E00FD0C9F7F6CFF9
:10334000462F4F70405D4A3318F0495D31FD4052C1
:10335000419302D0A9F7EACFB4E0A6959795879557
:1033600077956795BA95C9F7009761057105089536
:103370009B01AC010A2E06945795479537952795E2
:10338000BA95C9F7620F731F841F951FA01D08957A
:1033900011E0C7E1D1E004C0FE010E942F15219683
:0A33A000C831D107C9F7F894FFCF38
:1033AA000000D00580000102030504061000000099
:1033BA000016093A09B7080000000032049203BF58
:1033CA00039A04F003CE03E2030000000044096EEE
:1033DA00095B080D0A0051554555453A2063616E4F
:1033EA002774207065656B206974656D2066726F3D
:1033FA006D2071756575653A207175657565206909
:10340A007320656D7074792E0051554555453A20E3
:10341A00696E73756666696369656E74206D656D3C
:10342A006F727920746F2063726561746520612000
:10343A006E6577206E6F64652E00203A20496E749F
:10344A006572727570746F72202D2D3E2000424F86
:10345A0054EFBFBD4E203100424F54EFBFBD4E2046
:10346A00320050756C7361646F72204F70746F63B1
:10347A006F706C61646F00504952202853656E73F7
:10348A006F72206465204D6F76696D69656E746F21
:10349A002900506F74656E63696F6D6574726F2071
:1034AA003100506F74656E63696F6D6574726F2059
:1034BA0032005072EFBFBD63746963612053656C5B
:1034CA00656363696F6E6164613A203078255800DC
:1034DA0050495220616374697661646F3A202564A9
:1034EA00005469656D706F20416374697661636920
:1034FA00EFBFBD6E2064656C205049523A202564A6
:10350A0020536567756E646F730050342050554CB4
:10351A005341444F5245532053656C656363696F49
:10352A006E61646F200056616C6F72204D425F5469
:0C353A004D505F5049523A2025640000BB
:00000001FF
